{
  "_format": "hh-sol-artifact-1",
  "contractName": "SkillBridgeMain",
  "sourceName": "SkillBridgeMain.sol",
  "abi": [
    {
      "inputs": [
        {
          "internalType": "address",
          "name": "_sbtToken",
          "type": "address"
        },
        {
          "internalType": "address",
          "name": "_nftContract",
          "type": "address"
        },
        {
          "internalType": "address",
          "name": "initialOwner",
          "type": "address"
        }
      ],
      "stateMutability": "nonpayable",
      "type": "constructor"
    },
    {
      "inputs": [
        {
          "internalType": "address",
          "name": "owner",
          "type": "address"
        }
      ],
      "name": "OwnableInvalidOwner",
      "type": "error"
    },
    {
      "inputs": [
        {
          "internalType": "address",
          "name": "account",
          "type": "address"
        }
      ],
      "name": "OwnableUnauthorizedAccount",
      "type": "error"
    },
    {
      "anonymous": false,
      "inputs": [
        {
          "indexed": true,
          "internalType": "address",
          "name": "student",
          "type": "address"
        },
        {
          "indexed": true,
          "internalType": "uint256",
          "name": "courseId",
          "type": "uint256"
        },
        {
          "indexed": false,
          "internalType": "uint256",
          "name": "nftTokenId",
          "type": "uint256"
        }
      ],
      "name": "CourseCompleted",
      "type": "event"
    },
    {
      "anonymous": false,
      "inputs": [
        {
          "indexed": true,
          "internalType": "uint256",
          "name": "courseId",
          "type": "uint256"
        },
        {
          "indexed": true,
          "internalType": "address",
          "name": "instructor",
          "type": "address"
        },
        {
          "indexed": false,
          "internalType": "string",
          "name": "title",
          "type": "string"
        },
        {
          "indexed": false,
          "internalType": "uint256",
          "name": "price",
          "type": "uint256"
        }
      ],
      "name": "CourseCreated",
      "type": "event"
    },
    {
      "anonymous": false,
      "inputs": [
        {
          "indexed": true,
          "internalType": "address",
          "name": "student",
          "type": "address"
        },
        {
          "indexed": true,
          "internalType": "uint256",
          "name": "courseId",
          "type": "uint256"
        },
        {
          "indexed": false,
          "internalType": "uint256",
          "name": "price",
          "type": "uint256"
        }
      ],
      "name": "CourseEnrolled",
      "type": "event"
    },
    {
      "anonymous": false,
      "inputs": [
        {
          "indexed": true,
          "internalType": "address",
          "name": "previousOwner",
          "type": "address"
        },
        {
          "indexed": true,
          "internalType": "address",
          "name": "newOwner",
          "type": "address"
        }
      ],
      "name": "OwnershipTransferred",
      "type": "event"
    },
    {
      "anonymous": false,
      "inputs": [
        {
          "indexed": true,
          "internalType": "address",
          "name": "user",
          "type": "address"
        },
        {
          "indexed": false,
          "internalType": "uint256",
          "name": "score",
          "type": "uint256"
        },
        {
          "indexed": false,
          "internalType": "uint256",
          "name": "tokensEarned",
          "type": "uint256"
        }
      ],
      "name": "TestCompleted",
      "type": "event"
    },
    {
      "anonymous": false,
      "inputs": [
        {
          "indexed": true,
          "internalType": "address",
          "name": "buyer",
          "type": "address"
        },
        {
          "indexed": false,
          "internalType": "uint256",
          "name": "amount",
          "type": "uint256"
        },
        {
          "indexed": false,
          "internalType": "uint256",
          "name": "ethPaid",
          "type": "uint256"
        }
      ],
      "name": "TokensPurchased",
      "type": "event"
    },
    {
      "inputs": [],
      "name": "TOKEN_PRICE",
      "outputs": [
        {
          "internalType": "uint256",
          "name": "",
          "type": "uint256"
        }
      ],
      "stateMutability": "view",
      "type": "function"
    },
    {
      "inputs": [
        {
          "internalType": "uint256",
          "name": "amount",
          "type": "uint256"
        }
      ],
      "name": "buyTokens",
      "outputs": [],
      "stateMutability": "payable",
      "type": "function"
    },
    {
      "inputs": [
        {
          "internalType": "uint256",
          "name": "_courseId",
          "type": "uint256"
        },
        {
          "internalType": "string",
          "name": "_resultCID",
          "type": "string"
        }
      ],
      "name": "completeCourse",
      "outputs": [],
      "stateMutability": "nonpayable",
      "type": "function"
    },
    {
      "inputs": [
        {
          "internalType": "uint256",
          "name": "_score",
          "type": "uint256"
        }
      ],
      "name": "completeTest",
      "outputs": [],
      "stateMutability": "nonpayable",
      "type": "function"
    },
    {
      "inputs": [
        {
          "internalType": "uint256",
          "name": "",
          "type": "uint256"
        }
      ],
      "name": "courses",
      "outputs": [
        {
          "internalType": "uint256",
          "name": "id",
          "type": "uint256"
        },
        {
          "internalType": "address",
          "name": "instructor",
          "type": "address"
        },
        {
          "internalType": "string",
          "name": "title",
          "type": "string"
        },
        {
          "internalType": "uint256",
          "name": "price",
          "type": "uint256"
        },
        {
          "internalType": "string",
          "name": "metadataCID",
          "type": "string"
        },
        {
          "internalType": "bool",
          "name": "isActive",
          "type": "bool"
        },
        {
          "internalType": "uint256",
          "name": "createdAt",
          "type": "uint256"
        }
      ],
      "stateMutability": "view",
      "type": "function"
    },
    {
      "inputs": [
        {
          "internalType": "string",
          "name": "_metadataCID",
          "type": "string"
        },
        {
          "internalType": "string",
          "name": "_title",
          "type": "string"
        },
        {
          "internalType": "uint256",
          "name": "_price",
          "type": "uint256"
        }
      ],
      "name": "createCourse",
      "outputs": [],
      "stateMutability": "nonpayable",
      "type": "function"
    },
    {
      "inputs": [
        {
          "internalType": "uint256",
          "name": "_courseId",
          "type": "uint256"
        }
      ],
      "name": "enrollInCourse",
      "outputs": [],
      "stateMutability": "nonpayable",
      "type": "function"
    },
    {
      "inputs": [
        {
          "internalType": "address",
          "name": "user",
          "type": "address"
        },
        {
          "internalType": "uint256",
          "name": "courseId",
          "type": "uint256"
        }
      ],
      "name": "getCertificateNftId",
      "outputs": [
        {
          "internalType": "uint256",
          "name": "",
          "type": "uint256"
        }
      ],
      "stateMutability": "view",
      "type": "function"
    },
    {
      "inputs": [
        {
          "internalType": "uint256",
          "name": "courseId",
          "type": "uint256"
        }
      ],
      "name": "getEnrolledStudents",
      "outputs": [
        {
          "internalType": "address[]",
          "name": "",
          "type": "address[]"
        }
      ],
      "stateMutability": "view",
      "type": "function"
    },
    {
      "inputs": [
        {
          "internalType": "address",
          "name": "instructor",
          "type": "address"
        }
      ],
      "name": "getInstructorCourses",
      "outputs": [
        {
          "internalType": "uint256[]",
          "name": "",
          "type": "uint256[]"
        }
      ],
      "stateMutability": "view",
      "type": "function"
    },
    {
      "inputs": [
        {
          "internalType": "address",
          "name": "user",
          "type": "address"
        }
      ],
      "name": "getProfileMetadata",
      "outputs": [
        {
          "internalType": "string",
          "name": "",
          "type": "string"
        }
      ],
      "stateMutability": "view",
      "type": "function"
    },
    {
      "inputs": [
        {
          "internalType": "address",
          "name": "user",
          "type": "address"
        }
      ],
      "name": "getUserEnrolledCourses",
      "outputs": [
        {
          "internalType": "uint256[]",
          "name": "",
          "type": "uint256[]"
        }
      ],
      "stateMutability": "view",
      "type": "function"
    },
    {
      "inputs": [
        {
          "internalType": "address",
          "name": "user",
          "type": "address"
        },
        {
          "internalType": "uint256",
          "name": "courseId",
          "type": "uint256"
        }
      ],
      "name": "hasAccessToCourse",
      "outputs": [
        {
          "internalType": "bool",
          "name": "",
          "type": "bool"
        }
      ],
      "stateMutability": "view",
      "type": "function"
    },
    {
      "inputs": [
        {
          "internalType": "address",
          "name": "",
          "type": "address"
        },
        {
          "internalType": "uint256",
          "name": "",
          "type": "uint256"
        }
      ],
      "name": "instructorCourses",
      "outputs": [
        {
          "internalType": "uint256",
          "name": "",
          "type": "uint256"
        }
      ],
      "stateMutability": "view",
      "type": "function"
    },
    {
      "inputs": [],
      "name": "nextCourseId",
      "outputs": [
        {
          "internalType": "uint256",
          "name": "",
          "type": "uint256"
        }
      ],
      "stateMutability": "view",
      "type": "function"
    },
    {
      "inputs": [],
      "name": "nftCertificate",
      "outputs": [
        {
          "internalType": "contract SkillBridgeNFT",
          "name": "",
          "type": "address"
        }
      ],
      "stateMutability": "view",
      "type": "function"
    },
    {
      "inputs": [],
      "name": "owner",
      "outputs": [
        {
          "internalType": "address",
          "name": "",
          "type": "address"
        }
      ],
      "stateMutability": "view",
      "type": "function"
    },
    {
      "inputs": [],
      "name": "renounceOwnership",
      "outputs": [],
      "stateMutability": "nonpayable",
      "type": "function"
    },
    {
      "inputs": [
        {
          "internalType": "uint256",
          "name": "_score",
          "type": "uint256"
        },
        {
          "internalType": "uint256",
          "name": "_fee",
          "type": "uint256"
        }
      ],
      "name": "retakeTest",
      "outputs": [],
      "stateMutability": "nonpayable",
      "type": "function"
    },
    {
      "inputs": [],
      "name": "sbtToken",
      "outputs": [
        {
          "internalType": "contract IERC20",
          "name": "",
          "type": "address"
        }
      ],
      "stateMutability": "view",
      "type": "function"
    },
    {
      "inputs": [
        {
          "internalType": "string",
          "name": "cid",
          "type": "string"
        }
      ],
      "name": "setProfileMetadata",
      "outputs": [],
      "stateMutability": "nonpayable",
      "type": "function"
    },
    {
      "inputs": [
        {
          "internalType": "address",
          "name": "newOwner",
          "type": "address"
        }
      ],
      "name": "transferOwnership",
      "outputs": [],
      "stateMutability": "nonpayable",
      "type": "function"
    },
    {
      "inputs": [
        {
          "internalType": "address",
          "name": "",
          "type": "address"
        },
        {
          "internalType": "uint256",
          "name": "",
          "type": "uint256"
        }
      ],
      "name": "userCourseCertificates",
      "outputs": [
        {
          "internalType": "uint256",
          "name": "",
          "type": "uint256"
        }
      ],
      "stateMutability": "view",
      "type": "function"
    },
    {
      "inputs": [
        {
          "internalType": "address",
          "name": "",
          "type": "address"
        },
        {
          "internalType": "uint256",
          "name": "",
          "type": "uint256"
        }
      ],
      "name": "userCourses",
      "outputs": [
        {
          "internalType": "uint256",
          "name": "",
          "type": "uint256"
        }
      ],
      "stateMutability": "view",
      "type": "function"
    },
    {
      "inputs": [
        {
          "internalType": "address",
          "name": "",
          "type": "address"
        }
      ],
      "name": "userProfileCid",
      "outputs": [
        {
          "internalType": "string",
          "name": "",
          "type": "string"
        }
      ],
      "stateMutability": "view",
      "type": "function"
    },
    {
      "inputs": [
        {
          "internalType": "address",
          "name": "",
          "type": "address"
        }
      ],
      "name": "users",
      "outputs": [
        {
          "internalType": "address",
          "name": "wallet",
          "type": "address"
        },
        {
          "internalType": "uint256",
          "name": "testScore",
          "type": "uint256"
        },
        {
          "internalType": "uint256",
          "name": "tokensEarned",
          "type": "uint256"
        },
        {
          "internalType": "uint256",
          "name": "coursesCompleted",
          "type": "uint256"
        },
        {
          "internalType": "bool",
          "name": "hasCompletedTest",
          "type": "bool"
        }
      ],
      "stateMutability": "view",
      "type": "function"
    }
  ],
  "bytecode": "0x60806040523480156200001157600080fd5b506040516200364038038062003640833981810160405281019062000037919062000280565b80600073ffffffffffffffffffffffffffffffffffffffff168173ffffffffffffffffffffffffffffffffffffffff1603620000ad5760006040517f1e4fbdf7000000000000000000000000000000000000000000000000000000008152600401620000a49190620002ed565b60405180910390fd5b620000be816200015260201b60201c565b5082600160006101000a81548173ffffffffffffffffffffffffffffffffffffffff021916908373ffffffffffffffffffffffffffffffffffffffff16021790555081600260006101000a81548173ffffffffffffffffffffffffffffffffffffffff021916908373ffffffffffffffffffffffffffffffffffffffff16021790555060016003819055505050506200030a565b60008060009054906101000a900473ffffffffffffffffffffffffffffffffffffffff169050816000806101000a81548173ffffffffffffffffffffffffffffffffffffffff021916908373ffffffffffffffffffffffffffffffffffffffff1602179055508173ffffffffffffffffffffffffffffffffffffffff168173ffffffffffffffffffffffffffffffffffffffff167f8be0079c531659141344cd1fd0a4f28419497f9722a3daafe3b4186f6b6457e060405160405180910390a35050565b600080fd5b600073ffffffffffffffffffffffffffffffffffffffff82169050919050565b600062000248826200021b565b9050919050565b6200025a816200023b565b81146200026657600080fd5b50565b6000815190506200027a816200024f565b92915050565b6000806000606084860312156200029c576200029b62000216565b5b6000620002ac8682870162000269565b9350506020620002bf8682870162000269565b9250506040620002d28682870162000269565b9150509250925092565b620002e7816200023b565b82525050565b6000602082019050620003046000830184620002dc565b92915050565b613326806200031a6000396000f3fe6080604052600436106101815760003560e01c806393a05c20116100d1578063bf0aa65d1161008a578063d2d8cb6711610064578063d2d8cb67146105d9578063e359d99714610604578063ec57c20b1461062f578063f2fde38b1461066c57610181565b8063bf0aa65d14610536578063c91aacc414610573578063c9d4188f146105b057610181565b806393a05c20146103e657806396f979d214610423578063a4adb24b14610466578063a87430ba1461048f578063ade778f4146104d0578063b1981b9d146104f957610181565b8063690e84341161013e578063715018a611610118578063715018a61461033c5780637d83daf214610353578063829ae6f41461037e5780638da5cb5b146103bb57610181565b8063690e8434146102ab5780636a0304bf146102d45780636ceff219146102ff57610181565b80630e3fecd2146101865780633610724e146101af578063403e2707146101cb57806344674e431461020857806350774a15146102455780635e52da2714610282575b600080fd5b34801561019257600080fd5b506101ad60048036038101906101a89190612025565b610695565b005b6101c960048036038101906101c49190612065565b610a11565b005b3480156101d757600080fd5b506101f260048036038101906101ed91906120f0565b610baf565b6040516101ff91906121ad565b60405180910390f35b34801561021457600080fd5b5061022f600480360381019061022a91906120f0565b610c80565b60405161023c919061228d565b60405180910390f35b34801561025157600080fd5b5061026c600480360381019061026791906122af565b610d17565b604051610279919061230a565b60405180910390f35b34801561028e57600080fd5b506102a960048036038101906102a49190612065565b610ddf565b005b3480156102b757600080fd5b506102d260048036038101906102cd919061245a565b61121a565b005b3480156102e057600080fd5b506102e9611408565b6040516102f69190612515565b60405180910390f35b34801561030b57600080fd5b50610326600480360381019061032191906122af565b61142e565b604051610333919061253f565b60405180910390f35b34801561034857600080fd5b5061035161145f565b005b34801561035f57600080fd5b50610368611473565b604051610375919061253f565b60405180910390f35b34801561038a57600080fd5b506103a560048036038101906103a091906120f0565b611479565b6040516103b2919061228d565b60405180910390f35b3480156103c757600080fd5b506103d0611510565b6040516103dd9190612569565b60405180910390f35b3480156103f257600080fd5b5061040d600480360381019061040891906122af565b611539565b60405161041a919061253f565b60405180910390f35b34801561042f57600080fd5b5061044a60048036038101906104459190612065565b61156a565b60405161045d9796959493929190612584565b60405180910390f35b34801561047257600080fd5b5061048d60048036038101906104889190612601565b6116e9565b005b34801561049b57600080fd5b506104b660048036038101906104b191906120f0565b611878565b6040516104c795949392919061268c565b60405180910390f35b3480156104dc57600080fd5b506104f760048036038101906104f291906126df565b6118db565b005b34801561050557600080fd5b50610520600480360381019061051b91906122af565b61192b565b60405161052d919061253f565b60405180910390f35b34801561054257600080fd5b5061055d600480360381019061055891906122af565b611950565b60405161056a919061253f565b60405180910390f35b34801561057f57600080fd5b5061059a60048036038101906105959190612065565b6119ab565b6040516105a791906127e6565b60405180910390f35b3480156105bc57600080fd5b506105d760048036038101906105d29190612065565b611a4f565b005b3480156105e557600080fd5b506105ee611d32565b6040516105fb919061253f565b60405180910390f35b34801561061057600080fd5b50610619611d3c565b6040516106269190612829565b60405180910390f35b34801561063b57600080fd5b50610656600480360381019061065191906120f0565b611d62565b60405161066391906121ad565b60405180910390f35b34801561067857600080fd5b50610693600480360381019061068e91906120f0565b611e02565b005b600460003373ffffffffffffffffffffffffffffffffffffffff1673ffffffffffffffffffffffffffffffffffffffff16815260200190815260200160002060040160009054906101000a900460ff16610724576040517f08c379a000000000000000000000000000000000000000000000000000000000815260040161071b90612890565b60405180910390fd5b600160009054906101000a900473ffffffffffffffffffffffffffffffffffffffff1673ffffffffffffffffffffffffffffffffffffffff166323b872dd3330846040518463ffffffff1660e01b8152600401610783939291906128b0565b6020604051808303816000875af11580156107a2573d6000803e3d6000fd5b505050506040513d601f19601f820116820180604052508101906107c69190612913565b610805576040517f08c379a00000000000000000000000000000000000000000000000000000000081526004016107fc9061298c565b60405180910390fd5b81600460003373ffffffffffffffffffffffffffffffffffffffff1673ffffffffffffffffffffffffffffffffffffffff16815260200190815260200160002060010181905550670de0b6b3a76400008261086091906129db565b600460003373ffffffffffffffffffffffffffffffffffffffff1673ffffffffffffffffffffffffffffffffffffffff16815260200190815260200160002060020160008282546108b19190612a1d565b92505081905550600160009054906101000a900473ffffffffffffffffffffffffffffffffffffffff1673ffffffffffffffffffffffffffffffffffffffff1663a9059cbb33670de0b6b3a76400008561090b91906129db565b6040518363ffffffff1660e01b8152600401610928929190612a51565b6020604051808303816000875af1158015610947573d6000803e3d6000fd5b505050506040513d601f19601f8201168201806040525081019061096b9190612913565b6109aa576040517f08c379a00000000000000000000000000000000000000000000000000000000081526004016109a190612ac6565b60405180910390fd5b3373ffffffffffffffffffffffffffffffffffffffff167f2324acb3fe79183632ceecbae105261c5d54e95afd1cfbe33ebffc2b05652fd283670de0b6b3a7640000856109f791906129db565b604051610a05929190612ae6565b60405180910390a25050565b600081655af3107a4000610a2591906129db565b9050803414610a69576040517f08c379a0000000000000000000000000000000000000000000000000000000008152600401610a6090612b5b565b60405180910390fd5b600160009054906101000a900473ffffffffffffffffffffffffffffffffffffffff1673ffffffffffffffffffffffffffffffffffffffff1663a9059cbb33670de0b6b3a764000085610abc91906129db565b6040518363ffffffff1660e01b8152600401610ad9929190612a51565b6020604051808303816000875af1158015610af8573d6000803e3d6000fd5b505050506040513d601f19601f82011682018060405250810190610b1c9190612913565b610b5b576040517f08c379a0000000000000000000000000000000000000000000000000000000008152600401610b5290612bc7565b60405180910390fd5b3373ffffffffffffffffffffffffffffffffffffffff167f8fafebcaf9d154343dad25669bfa277f4fbacd7ac6b0c4fed522580e040a0f338334604051610ba3929190612ae6565b60405180910390a25050565b6060600860008373ffffffffffffffffffffffffffffffffffffffff1673ffffffffffffffffffffffffffffffffffffffff1681526020019081526020016000208054610bfb90612c16565b80601f0160208091040260200160405190810160405280929190818152602001828054610c2790612c16565b8015610c745780601f10610c4957610100808354040283529160200191610c74565b820191906000526020600020905b815481529060010190602001808311610c5757829003601f168201915b50505050509050919050565b6060600760008373ffffffffffffffffffffffffffffffffffffffff1673ffffffffffffffffffffffffffffffffffffffff168152602001908152602001600020805480602002602001604051908101604052809291908181526020018280548015610d0b57602002820191906000526020600020905b815481526020019060010190808311610cf7575b50505050509050919050565b60008060056000848152602001908152602001600020905060005b8160050180549050811015610dd2578473ffffffffffffffffffffffffffffffffffffffff16826005018281548110610d6e57610d6d612c47565b5b9060005260206000200160009054906101000a900473ffffffffffffffffffffffffffffffffffffffff1673ffffffffffffffffffffffffffffffffffffffff1603610dbf57600192505050610dd9565b8080610dca90612c76565b915050610d32565b5060009150505b92915050565b60006005600083815260200190815260200160002090508060060160009054906101000a900460ff16610e47576040517f08c379a0000000000000000000000000000000000000000000000000000000008152600401610e3e90612d0a565b60405180910390fd5b600460003373ffffffffffffffffffffffffffffffffffffffff1673ffffffffffffffffffffffffffffffffffffffff16815260200190815260200160002060040160009054906101000a900460ff16610ed6576040517f08c379a0000000000000000000000000000000000000000000000000000000008152600401610ecd90612d76565b60405180910390fd5b60008160030154905060006064605083610ef091906129db565b610efa9190612dc5565b905060008183610f0a9190612df6565b9050600160009054906101000a900473ffffffffffffffffffffffffffffffffffffffff1673ffffffffffffffffffffffffffffffffffffffff166323b872dd338660010160009054906101000a900473ffffffffffffffffffffffffffffffffffffffff16856040518463ffffffff1660e01b8152600401610f8f939291906128b0565b6020604051808303816000875af1158015610fae573d6000803e3d6000fd5b505050506040513d601f19601f82011682018060405250810190610fd29190612913565b611011576040517f08c379a000000000000000000000000000000000000000000000000000000000815260040161100890612e76565b60405180910390fd5b600160009054906101000a900473ffffffffffffffffffffffffffffffffffffffff1673ffffffffffffffffffffffffffffffffffffffff166323b872dd33611058611510565b846040518463ffffffff1660e01b8152600401611077939291906128b0565b6020604051808303816000875af1158015611096573d6000803e3d6000fd5b505050506040513d601f19601f820116820180604052508101906110ba9190612913565b6110f9576040517f08c379a00000000000000000000000000000000000000000000000000000000081526004016110f090612ee2565b60405180910390fd5b83600501339080600181540180825580915050600190039060005260206000200160009091909190916101000a81548173ffffffffffffffffffffffffffffffffffffffff021916908373ffffffffffffffffffffffffffffffffffffffff160217905550600660003373ffffffffffffffffffffffffffffffffffffffff1673ffffffffffffffffffffffffffffffffffffffff168152602001908152602001600020859080600181540180825580915050600190039060005260206000200160009091909190915055843373ffffffffffffffffffffffffffffffffffffffff167fb975c93c50aa94d9c86dd9fb379701dc0bdc2aa1c503bf46d9cf4f313e0f47fc8560405161120b919061253f565b60405180910390a35050505050565b6112243383610d17565b611263576040517f08c379a000000000000000000000000000000000000000000000000000000000815260040161125a90612f4e565b60405180910390fd5b6000600260009054906101000a900473ffffffffffffffffffffffffffffffffffffffff1673ffffffffffffffffffffffffffffffffffffffff16630712249f33846040518363ffffffff1660e01b81526004016112c2929190612f6e565b6020604051808303816000875af11580156112e1573d6000803e3d6000fd5b505050506040513d601f19601f820116820180604052508101906113059190612fb3565b9050600460003373ffffffffffffffffffffffffffffffffffffffff1673ffffffffffffffffffffffffffffffffffffffff168152602001908152602001600020600301600081548092919061135a90612c76565b919050555080600960003373ffffffffffffffffffffffffffffffffffffffff1673ffffffffffffffffffffffffffffffffffffffff168152602001908152602001600020600085815260200190815260200160002081905550823373ffffffffffffffffffffffffffffffffffffffff167f69598479254610bc37273ec300171cd231505beb1ee68d360cbd78c1bd818278836040516113fb919061253f565b60405180910390a3505050565b600260009054906101000a900473ffffffffffffffffffffffffffffffffffffffff1681565b6007602052816000526040600020818154811061144a57600080fd5b90600052602060002001600091509150505481565b611467611e88565b6114716000611f0f565b565b60035481565b6060600660008373ffffffffffffffffffffffffffffffffffffffff1673ffffffffffffffffffffffffffffffffffffffff16815260200190815260200160002080548060200260200160405190810160405280929190818152602001828054801561150457602002820191906000526020600020905b8154815260200190600101908083116114f0575b50505050509050919050565b60008060009054906101000a900473ffffffffffffffffffffffffffffffffffffffff16905090565b6006602052816000526040600020818154811061155557600080fd5b90600052602060002001600091509150505481565b60056020528060005260406000206000915090508060000154908060010160009054906101000a900473ffffffffffffffffffffffffffffffffffffffff16908060020180546115b990612c16565b80601f01602080910402602001604051908101604052809291908181526020018280546115e590612c16565b80156116325780601f1061160757610100808354040283529160200191611632565b820191906000526020600020905b81548152906001019060200180831161161557829003601f168201915b50505050509080600301549080600401805461164d90612c16565b80601f016020809104026020016040519081016040528092919081815260200182805461167990612c16565b80156116c65780601f1061169b576101008083540402835291602001916116c6565b820191906000526020600020905b8154815290600101906020018083116116a957829003601f168201915b5050505050908060060160009054906101000a900460ff16908060070154905087565b6000600360008154809291906116fe90612c76565b9190505590506000600560008381526020019081526020016000209050818160000181905550338160010160006101000a81548173ffffffffffffffffffffffffffffffffffffffff021916908373ffffffffffffffffffffffffffffffffffffffff160217905550838160020190816117789190613182565b50828160030181905550848160040190816117939190613182565b5060018160060160006101000a81548160ff021916908315150217905550428160070181905550600760003373ffffffffffffffffffffffffffffffffffffffff1673ffffffffffffffffffffffffffffffffffffffff1681526020019081526020016000208290806001815401808255809150506001900390600052602060002001600090919091909150553373ffffffffffffffffffffffffffffffffffffffff16827f27b444394f1a7b0aa73d468ff76433d70ccbd1517709b5a2b06eaf249a4ddcf08686604051611869929190613254565b60405180910390a35050505050565b60046020528060005260406000206000915090508060000160009054906101000a900473ffffffffffffffffffffffffffffffffffffffff16908060010154908060020154908060030154908060040160009054906101000a900460ff16905085565b80600860003373ffffffffffffffffffffffffffffffffffffffff1673ffffffffffffffffffffffffffffffffffffffff16815260200190815260200160002090816119279190613182565b5050565b6009602052816000526040600020602052806000526040600020600091509150505481565b6000600960008473ffffffffffffffffffffffffffffffffffffffff1673ffffffffffffffffffffffffffffffffffffffff168152602001908152602001600020600083815260200190815260200160002054905092915050565b606060056000838152602001908152602001600020600501805480602002602001604051908101604052809291908181526020018280548015611a4357602002820191906000526020600020905b8160009054906101000a900473ffffffffffffffffffffffffffffffffffffffff1673ffffffffffffffffffffffffffffffffffffffff16815260200190600101908083116119f9575b50505050509050919050565b600460003373ffffffffffffffffffffffffffffffffffffffff1673ffffffffffffffffffffffffffffffffffffffff16815260200190815260200160002060040160009054906101000a900460ff1615611adf576040517f08c379a0000000000000000000000000000000000000000000000000000000008152600401611ad6906132d0565b60405180910390fd5b6000670de0b6b3a764000082611af591906129db565b90506040518060a001604052803373ffffffffffffffffffffffffffffffffffffffff1681526020018381526020018281526020016000815260200160011515815250600460003373ffffffffffffffffffffffffffffffffffffffff1673ffffffffffffffffffffffffffffffffffffffff16815260200190815260200160002060008201518160000160006101000a81548173ffffffffffffffffffffffffffffffffffffffff021916908373ffffffffffffffffffffffffffffffffffffffff16021790555060208201518160010155604082015181600201556060820151816003015560808201518160040160006101000a81548160ff021916908315150217905550905050600160009054906101000a900473ffffffffffffffffffffffffffffffffffffffff1673ffffffffffffffffffffffffffffffffffffffff1663a9059cbb33836040518363ffffffff1660e01b8152600401611c5c929190612a51565b6020604051808303816000875af1158015611c7b573d6000803e3d6000fd5b505050506040513d601f19601f82011682018060405250810190611c9f9190612913565b611cde576040517f08c379a0000000000000000000000000000000000000000000000000000000008152600401611cd590612ac6565b60405180910390fd5b3373ffffffffffffffffffffffffffffffffffffffff167f2324acb3fe79183632ceecbae105261c5d54e95afd1cfbe33ebffc2b05652fd28383604051611d26929190612ae6565b60405180910390a25050565b655af3107a400081565b600160009054906101000a900473ffffffffffffffffffffffffffffffffffffffff1681565b60086020528060005260406000206000915090508054611d8190612c16565b80601f0160208091040260200160405190810160405280929190818152602001828054611dad90612c16565b8015611dfa5780601f10611dcf57610100808354040283529160200191611dfa565b820191906000526020600020905b815481529060010190602001808311611ddd57829003601f168201915b505050505081565b611e0a611e88565b600073ffffffffffffffffffffffffffffffffffffffff168173ffffffffffffffffffffffffffffffffffffffff1603611e7c5760006040517f1e4fbdf7000000000000000000000000000000000000000000000000000000008152600401611e739190612569565b60405180910390fd5b611e8581611f0f565b50565b611e90611fd3565b73ffffffffffffffffffffffffffffffffffffffff16611eae611510565b73ffffffffffffffffffffffffffffffffffffffff1614611f0d57611ed1611fd3565b6040517f118cdaa7000000000000000000000000000000000000000000000000000000008152600401611f049190612569565b60405180910390fd5b565b60008060009054906101000a900473ffffffffffffffffffffffffffffffffffffffff169050816000806101000a81548173ffffffffffffffffffffffffffffffffffffffff021916908373ffffffffffffffffffffffffffffffffffffffff1602179055508173ffffffffffffffffffffffffffffffffffffffff168173ffffffffffffffffffffffffffffffffffffffff167f8be0079c531659141344cd1fd0a4f28419497f9722a3daafe3b4186f6b6457e060405160405180910390a35050565b600033905090565b6000604051905090565b600080fd5b600080fd5b6000819050919050565b61200281611fef565b811461200d57600080fd5b50565b60008135905061201f81611ff9565b92915050565b6000806040838503121561203c5761203b611fe5565b5b600061204a85828601612010565b925050602061205b85828601612010565b9150509250929050565b60006020828403121561207b5761207a611fe5565b5b600061208984828501612010565b91505092915050565b600073ffffffffffffffffffffffffffffffffffffffff82169050919050565b60006120bd82612092565b9050919050565b6120cd816120b2565b81146120d857600080fd5b50565b6000813590506120ea816120c4565b92915050565b60006020828403121561210657612105611fe5565b5b6000612114848285016120db565b91505092915050565b600081519050919050565b600082825260208201905092915050565b60005b8381101561215757808201518184015260208101905061213c565b60008484015250505050565b6000601f19601f8301169050919050565b600061217f8261211d565b6121898185612128565b9350612199818560208601612139565b6121a281612163565b840191505092915050565b600060208201905081810360008301526121c78184612174565b905092915050565b600081519050919050565b600082825260208201905092915050565b6000819050602082019050919050565b61220481611fef565b82525050565b600061221683836121fb565b60208301905092915050565b6000602082019050919050565b600061223a826121cf565b61224481856121da565b935061224f836121eb565b8060005b83811015612280578151612267888261220a565b975061227283612222565b925050600181019050612253565b5085935050505092915050565b600060208201905081810360008301526122a7818461222f565b905092915050565b600080604083850312156122c6576122c5611fe5565b5b60006122d4858286016120db565b92505060206122e585828601612010565b9150509250929050565b60008115159050919050565b612304816122ef565b82525050565b600060208201905061231f60008301846122fb565b92915050565b600080fd5b600080fd5b7f4e487b7100000000000000000000000000000000000000000000000000000000600052604160045260246000fd5b61236782612163565b810181811067ffffffffffffffff821117156123865761238561232f565b5b80604052505050565b6000612399611fdb565b90506123a5828261235e565b919050565b600067ffffffffffffffff8211156123c5576123c461232f565b5b6123ce82612163565b9050602081019050919050565b82818337600083830152505050565b60006123fd6123f8846123aa565b61238f565b9050828152602081018484840111156124195761241861232a565b5b6124248482856123db565b509392505050565b600082601f83011261244157612440612325565b5b81356124518482602086016123ea565b91505092915050565b6000806040838503121561247157612470611fe5565b5b600061247f85828601612010565b925050602083013567ffffffffffffffff8111156124a05761249f611fea565b5b6124ac8582860161242c565b9150509250929050565b6000819050919050565b60006124db6124d66124d184612092565b6124b6565b612092565b9050919050565b60006124ed826124c0565b9050919050565b60006124ff826124e2565b9050919050565b61250f816124f4565b82525050565b600060208201905061252a6000830184612506565b92915050565b61253981611fef565b82525050565b60006020820190506125546000830184612530565b92915050565b612563816120b2565b82525050565b600060208201905061257e600083018461255a565b92915050565b600060e082019050612599600083018a612530565b6125a6602083018961255a565b81810360408301526125b88188612174565b90506125c76060830187612530565b81810360808301526125d98186612174565b90506125e860a08301856122fb565b6125f560c0830184612530565b98975050505050505050565b60008060006060848603121561261a57612619611fe5565b5b600084013567ffffffffffffffff81111561263857612637611fea565b5b6126448682870161242c565b935050602084013567ffffffffffffffff81111561266557612664611fea565b5b6126718682870161242c565b925050604061268286828701612010565b9150509250925092565b600060a0820190506126a1600083018861255a565b6126ae6020830187612530565b6126bb6040830186612530565b6126c86060830185612530565b6126d560808301846122fb565b9695505050505050565b6000602082840312156126f5576126f4611fe5565b5b600082013567ffffffffffffffff81111561271357612712611fea565b5b61271f8482850161242c565b91505092915050565b600081519050919050565b600082825260208201905092915050565b6000819050602082019050919050565b61275d816120b2565b82525050565b600061276f8383612754565b60208301905092915050565b6000602082019050919050565b600061279382612728565b61279d8185612733565b93506127a883612744565b8060005b838110156127d95781516127c08882612763565b97506127cb8361277b565b9250506001810190506127ac565b5085935050505092915050565b600060208201905081810360008301526128008184612788565b905092915050565b6000612813826124e2565b9050919050565b61282381612808565b82525050565b600060208201905061283e600083018461281a565b92915050565b7f496e697469616c20746573742072657175697265640000000000000000000000600082015250565b600061287a601583612128565b915061288582612844565b602082019050919050565b600060208201905081810360008301526128a98161286d565b9050919050565b60006060820190506128c5600083018661255a565b6128d2602083018561255a565b6128df6040830184612530565b949350505050565b6128f0816122ef565b81146128fb57600080fd5b50565b60008151905061290d816128e7565b92915050565b60006020828403121561292957612928611fe5565b5b6000612937848285016128fe565b91505092915050565b7f526574616b6520666565206661696c6564000000000000000000000000000000600082015250565b6000612976601183612128565b915061298182612940565b602082019050919050565b600060208201905081810360008301526129a581612969565b9050919050565b7f4e487b7100000000000000000000000000000000000000000000000000000000600052601160045260246000fd5b60006129e682611fef565b91506129f183611fef565b92508282026129ff81611fef565b91508282048414831517612a1657612a156129ac565b5b5092915050565b6000612a2882611fef565b9150612a3383611fef565b9250828201905080821115612a4b57612a4a6129ac565b5b92915050565b6000604082019050612a66600083018561255a565b612a736020830184612530565b9392505050565b7f546f6b656e20726577617264206661696c656400000000000000000000000000600082015250565b6000612ab0601383612128565b9150612abb82612a7a565b602082019050919050565b60006020820190508181036000830152612adf81612aa3565b9050919050565b6000604082019050612afb6000830185612530565b612b086020830184612530565b9392505050565b7f496e636f7272656374204554482073656e740000000000000000000000000000600082015250565b6000612b45601283612128565b9150612b5082612b0f565b602082019050919050565b60006020820190508181036000830152612b7481612b38565b9050919050565b7f546f6b656e207472616e73666572206661696c65640000000000000000000000600082015250565b6000612bb1601583612128565b9150612bbc82612b7b565b602082019050919050565b60006020820190508181036000830152612be081612ba4565b9050919050565b7f4e487b7100000000000000000000000000000000000000000000000000000000600052602260045260246000fd5b60006002820490506001821680612c2e57607f821691505b602082108103612c4157612c40612be7565b5b50919050565b7f4e487b7100000000000000000000000000000000000000000000000000000000600052603260045260246000fd5b6000612c8182611fef565b91507fffffffffffffffffffffffffffffffffffffffffffffffffffffffffffffffff8203612cb357612cb26129ac565b5b600182019050919050565b7f496e61637469766520636f757273650000000000000000000000000000000000600082015250565b6000612cf4600f83612128565b9150612cff82612cbe565b602082019050919050565b60006020820190508181036000830152612d2381612ce7565b9050919050565b7f54657374206e6f7420636f6d706c657465640000000000000000000000000000600082015250565b6000612d60601283612128565b9150612d6b82612d2a565b602082019050919050565b60006020820190508181036000830152612d8f81612d53565b9050919050565b7f4e487b7100000000000000000000000000000000000000000000000000000000600052601260045260246000fd5b6000612dd082611fef565b9150612ddb83611fef565b925082612deb57612dea612d96565b5b828204905092915050565b6000612e0182611fef565b9150612e0c83611fef565b9250828203905081811115612e2457612e236129ac565b5b92915050565b7f496e7374727563746f72207061796d656e74206661696c656400000000000000600082015250565b6000612e60601983612128565b9150612e6b82612e2a565b602082019050919050565b60006020820190508181036000830152612e8f81612e53565b9050919050565b7f506c6174666f726d20666565206661696c656400000000000000000000000000600082015250565b6000612ecc601383612128565b9150612ed782612e96565b602082019050919050565b60006020820190508181036000830152612efb81612ebf565b9050919050565b7f4e6f7420656e726f6c6c65640000000000000000000000000000000000000000600082015250565b6000612f38600c83612128565b9150612f4382612f02565b602082019050919050565b60006020820190508181036000830152612f6781612f2b565b9050919050565b6000604082019050612f83600083018561255a565b8181036020830152612f958184612174565b90509392505050565b600081519050612fad81611ff9565b92915050565b600060208284031215612fc957612fc8611fe5565b5b6000612fd784828501612f9e565b91505092915050565b60008190508160005260206000209050919050565b60006020601f8301049050919050565b600082821b905092915050565b6000600883026130427fffffffffffffffffffffffffffffffffffffffffffffffffffffffffffffffff82613005565b61304c8683613005565b95508019841693508086168417925050509392505050565b600061307f61307a61307584611fef565b6124b6565b611fef565b9050919050565b6000819050919050565b61309983613064565b6130ad6130a582613086565b848454613012565b825550505050565b600090565b6130c26130b5565b6130cd818484613090565b505050565b5b818110156130f1576130e66000826130ba565b6001810190506130d3565b5050565b601f8211156131365761310781612fe0565b61311084612ff5565b8101602085101561311f578190505b61313361312b85612ff5565b8301826130d2565b50505b505050565b600082821c905092915050565b60006131596000198460080261313b565b1980831691505092915050565b60006131728383613148565b9150826002028217905092915050565b61318b8261211d565b67ffffffffffffffff8111156131a4576131a361232f565b5b6131ae8254612c16565b6131b98282856130f5565b600060209050601f8311600181146131ec57600084156131da578287015190505b6131e48582613166565b86555061324c565b601f1984166131fa86612fe0565b60005b82811015613222578489015182556001820191506020850194506020810190506131fd565b8683101561323f578489015161323b601f891682613148565b8355505b6001600288020188555050505b505050505050565b6000604082019050818103600083015261326e8185612174565b905061327d6020830184612530565b9392505050565b7f5465737420616c726561647920636f6d706c6574656400000000000000000000600082015250565b60006132ba601683612128565b91506132c582613284565b602082019050919050565b600060208201905081810360008301526132e9816132ad565b905091905056fea264697066735822122023b215550742c4c6fc2d4ef5a58d081eed0187b152236b48acbcad33a80914a864736f6c63430008140033",
  "linkReferences": {},
  "deployedLinkReferences": {}
}