{"SkillBridgeMain.sol":{"SkillBridgeMain":{"abi":[{"inputs":[{"internalType":"address","name":"_sbtToken","type":"address"},{"internalType":"address","name":"_nftContract","type":"address"},{"internalType":"address","name":"initialOwner","type":"address"}],"stateMutability":"nonpayable","type":"constructor"},{"inputs":[{"internalType":"address","name":"owner","type":"address"}],"name":"OwnableInvalidOwner","type":"error"},{"inputs":[{"internalType":"address","name":"account","type":"address"}],"name":"OwnableUnauthorizedAccount","type":"error"},{"anonymous":false,"inputs":[{"indexed":true,"internalType":"address","name":"student","type":"address"},{"indexed":true,"internalType":"uint256","name":"courseId","type":"uint256"},{"indexed":false,"internalType":"uint256","name":"nftTokenId","type":"uint256"}],"name":"CourseCompleted","type":"event"},{"anonymous":false,"inputs":[{"indexed":true,"internalType":"uint256","name":"courseId","type":"uint256"},{"indexed":true,"internalType":"address","name":"instructor","type":"address"},{"indexed":false,"internalType":"string","name":"title","type":"string"},{"indexed":false,"internalType":"uint256","name":"price","type":"uint256"}],"name":"CourseCreated","type":"event"},{"anonymous":false,"inputs":[{"indexed":true,"internalType":"address","name":"student","type":"address"},{"indexed":true,"internalType":"uint256","name":"courseId","type":"uint256"},{"indexed":false,"internalType":"uint256","name":"price","type":"uint256"}],"name":"CourseEnrolled","type":"event"},{"anonymous":false,"inputs":[{"indexed":true,"internalType":"address","name":"previousOwner","type":"address"},{"indexed":true,"internalType":"address","name":"newOwner","type":"address"}],"name":"OwnershipTransferred","type":"event"},{"anonymous":false,"inputs":[{"indexed":true,"internalType":"address","name":"user","type":"address"},{"indexed":false,"internalType":"uint256","name":"score","type":"uint256"},{"indexed":false,"internalType":"uint256","name":"tokensEarned","type":"uint256"}],"name":"TestCompleted","type":"event"},{"inputs":[{"internalType":"uint256","name":"_courseId","type":"uint256"},{"internalType":"string","name":"_resultCID","type":"string"}],"name":"completeCourse","outputs":[],"stateMutability":"nonpayable","type":"function"},{"inputs":[{"internalType":"uint256","name":"_score","type":"uint256"}],"name":"completeTest","outputs":[],"stateMutability":"nonpayable","type":"function"},{"inputs":[{"internalType":"uint256","name":"","type":"uint256"}],"name":"courses","outputs":[{"internalType":"uint256","name":"id","type":"uint256"},{"internalType":"address","name":"instructor","type":"address"},{"internalType":"string","name":"title","type":"string"},{"internalType":"uint256","name":"price","type":"uint256"},{"internalType":"string","name":"metadataCID","type":"string"},{"internalType":"bool","name":"isActive","type":"bool"},{"internalType":"uint256","name":"createdAt","type":"uint256"}],"stateMutability":"view","type":"function"},{"inputs":[{"internalType":"string","name":"_metadataCID","type":"string"},{"internalType":"string","name":"_title","type":"string"},{"internalType":"uint256","name":"_price","type":"uint256"}],"name":"createCourse","outputs":[],"stateMutability":"nonpayable","type":"function"},{"inputs":[{"internalType":"uint256","name":"_courseId","type":"uint256"}],"name":"enrollInCourse","outputs":[],"stateMutability":"nonpayable","type":"function"},{"inputs":[{"internalType":"address","name":"instructor","type":"address"}],"name":"getInstructorCourses","outputs":[{"internalType":"uint256[]","name":"","type":"uint256[]"}],"stateMutability":"view","type":"function"},{"inputs":[{"internalType":"address","name":"user","type":"address"}],"name":"getProfileMetadata","outputs":[{"internalType":"string","name":"","type":"string"}],"stateMutability":"view","type":"function"},{"inputs":[{"internalType":"address","name":"user","type":"address"}],"name":"getUserEnrolledCourses","outputs":[{"internalType":"uint256[]","name":"","type":"uint256[]"}],"stateMutability":"view","type":"function"},{"inputs":[{"internalType":"address","name":"user","type":"address"},{"internalType":"uint256","name":"courseId","type":"uint256"}],"name":"hasAccessToCourse","outputs":[{"internalType":"bool","name":"","type":"bool"}],"stateMutability":"view","type":"function"},{"inputs":[{"internalType":"address","name":"","type":"address"},{"internalType":"uint256","name":"","type":"uint256"}],"name":"instructorCourses","outputs":[{"internalType":"uint256","name":"","type":"uint256"}],"stateMutability":"view","type":"function"},{"inputs":[],"name":"nextCourseId","outputs":[{"internalType":"uint256","name":"","type":"uint256"}],"stateMutability":"view","type":"function"},{"inputs":[],"name":"nftCertificate","outputs":[{"internalType":"contract SkillBridgeNFT","name":"","type":"address"}],"stateMutability":"view","type":"function"},{"inputs":[],"name":"owner","outputs":[{"internalType":"address","name":"","type":"address"}],"stateMutability":"view","type":"function"},{"inputs":[],"name":"renounceOwnership","outputs":[],"stateMutability":"nonpayable","type":"function"},{"inputs":[{"internalType":"uint256","name":"_score","type":"uint256"},{"internalType":"uint256","name":"_fee","type":"uint256"}],"name":"retakeTest","outputs":[],"stateMutability":"nonpayable","type":"function"},{"inputs":[],"name":"sbtToken","outputs":[{"internalType":"contract IERC20","name":"","type":"address"}],"stateMutability":"view","type":"function"},{"inputs":[{"internalType":"string","name":"cid","type":"string"}],"name":"setProfileMetadata","outputs":[],"stateMutability":"nonpayable","type":"function"},{"inputs":[{"internalType":"address","name":"newOwner","type":"address"}],"name":"transferOwnership","outputs":[],"stateMutability":"nonpayable","type":"function"},{"inputs":[{"internalType":"address","name":"","type":"address"},{"internalType":"uint256","name":"","type":"uint256"}],"name":"userCourses","outputs":[{"internalType":"uint256","name":"","type":"uint256"}],"stateMutability":"view","type":"function"},{"inputs":[{"internalType":"address","name":"","type":"address"}],"name":"userProfileCid","outputs":[{"internalType":"string","name":"","type":"string"}],"stateMutability":"view","type":"function"},{"inputs":[{"internalType":"address","name":"","type":"address"}],"name":"users","outputs":[{"internalType":"address","name":"wallet","type":"address"},{"internalType":"uint256","name":"testScore","type":"uint256"},{"internalType":"uint256","name":"tokensEarned","type":"uint256"},{"internalType":"uint256","name":"coursesCompleted","type":"uint256"},{"internalType":"bool","name":"hasCompletedTest","type":"bool"}],"stateMutability":"view","type":"function"}],"evm":{"bytecode":{"linkReferences":{},"object":"60806040523480156200001157600080fd5b5060405162002f0e38038062002f0e833981810160405281019062000037919062000280565b80600073ffffffffffffffffffffffffffffffffffffffff168173ffffffffffffffffffffffffffffffffffffffff1603620000ad5760006040517f1e4fbdf7000000000000000000000000000000000000000000000000000000008152600401620000a49190620002ed565b60405180910390fd5b620000be816200015260201b60201c565b5082600160006101000a81548173ffffffffffffffffffffffffffffffffffffffff021916908373ffffffffffffffffffffffffffffffffffffffff16021790555081600260006101000a81548173ffffffffffffffffffffffffffffffffffffffff021916908373ffffffffffffffffffffffffffffffffffffffff16021790555060016003819055505050506200030a565b60008060009054906101000a900473ffffffffffffffffffffffffffffffffffffffff169050816000806101000a81548173ffffffffffffffffffffffffffffffffffffffff021916908373ffffffffffffffffffffffffffffffffffffffff1602179055508173ffffffffffffffffffffffffffffffffffffffff168173ffffffffffffffffffffffffffffffffffffffff167f8be0079c531659141344cd1fd0a4f28419497f9722a3daafe3b4186f6b6457e060405160405180910390a35050565b600080fd5b600073ffffffffffffffffffffffffffffffffffffffff82169050919050565b600062000248826200021b565b9050919050565b6200025a816200023b565b81146200026657600080fd5b50565b6000815190506200027a816200024f565b92915050565b6000806000606084860312156200029c576200029b62000216565b5b6000620002ac8682870162000269565b9350506020620002bf8682870162000269565b9250506040620002d28682870162000269565b9150509250925092565b620002e7816200023b565b82525050565b6000602082019050620003046000830184620002dc565b92915050565b612bf4806200031a6000396000f3fe608060405234801561001057600080fd5b50600436106101375760003560e01c8063829ae6f4116100b8578063a87430ba1161007c578063a87430ba14610366578063ade778f41461039a578063c9d4188f146103b6578063e359d997146103d2578063ec57c20b146103f0578063f2fde38b1461042057610137565b8063829ae6f4146102965780638da5cb5b146102c657806393a05c20146102e457806396f979d214610314578063a4adb24b1461034a57610137565b8063690e8434116100ff578063690e8434146102045780636a0304bf146102205780636ceff2191461023e578063715018a61461026e5780637d83daf21461027857610137565b80630e3fecd21461013c578063403e27071461015857806344674e431461018857806350774a15146101b85780635e52da27146101e8575b600080fd5b61015660048036038101906101519190611aab565b61043c565b005b610172600480360381019061016d9190611b49565b6107b8565b60405161017f9190611c06565b60405180910390f35b6101a2600480360381019061019d9190611b49565b610889565b6040516101af9190611ce6565b60405180910390f35b6101d260048036038101906101cd9190611d08565b610920565b6040516101df9190611d63565b60405180910390f35b61020260048036038101906101fd9190611d7e565b6109e8565b005b61021e60048036038101906102199190611ee0565b610e23565b005b610228610fbc565b6040516102359190611f9b565b60405180910390f35b61025860048036038101906102539190611d08565b610fe2565b6040516102659190611fc5565b60405180910390f35b610276611013565b005b610280611027565b60405161028d9190611fc5565b60405180910390f35b6102b060048036038101906102ab9190611b49565b61102d565b6040516102bd9190611ce6565b60405180910390f35b6102ce6110c4565b6040516102db9190611fef565b60405180910390f35b6102fe60048036038101906102f99190611d08565b6110ed565b60405161030b9190611fc5565b60405180910390f35b61032e60048036038101906103299190611d7e565b61111e565b604051610341979695949392919061200a565b60405180910390f35b610364600480360381019061035f9190612087565b61129d565b005b610380600480360381019061037b9190611b49565b61142c565b604051610391959493929190612112565b60405180910390f35b6103b460048036038101906103af9190612165565b61148f565b005b6103d060048036038101906103cb9190611d7e565b6114df565b005b6103da6117c2565b6040516103e791906121cf565b60405180910390f35b61040a60048036038101906104059190611b49565b6117e8565b6040516104179190611c06565b60405180910390f35b61043a60048036038101906104359190611b49565b611888565b005b600460003373ffffffffffffffffffffffffffffffffffffffff1673ffffffffffffffffffffffffffffffffffffffff16815260200190815260200160002060040160009054906101000a900460ff166104cb576040517f08c379a00000000000000000000000000000000000000000000000000000000081526004016104c290612236565b60405180910390fd5b600160009054906101000a900473ffffffffffffffffffffffffffffffffffffffff1673ffffffffffffffffffffffffffffffffffffffff166323b872dd3330846040518463ffffffff1660e01b815260040161052a93929190612256565b6020604051808303816000875af1158015610549573d6000803e3d6000fd5b505050506040513d601f19601f8201168201806040525081019061056d91906122b9565b6105ac576040517f08c379a00000000000000000000000000000000000000000000000000000000081526004016105a390612332565b60405180910390fd5b81600460003373ffffffffffffffffffffffffffffffffffffffff1673ffffffffffffffffffffffffffffffffffffffff16815260200190815260200160002060010181905550670de0b6b3a7640000826106079190612381565b600460003373ffffffffffffffffffffffffffffffffffffffff1673ffffffffffffffffffffffffffffffffffffffff168152602001908152602001600020600201600082825461065891906123c3565b92505081905550600160009054906101000a900473ffffffffffffffffffffffffffffffffffffffff1673ffffffffffffffffffffffffffffffffffffffff1663a9059cbb33670de0b6b3a7640000856106b29190612381565b6040518363ffffffff1660e01b81526004016106cf9291906123f7565b6020604051808303816000875af11580156106ee573d6000803e3d6000fd5b505050506040513d601f19601f8201168201806040525081019061071291906122b9565b610751576040517f08c379a00000000000000000000000000000000000000000000000000000000081526004016107489061246c565b60405180910390fd5b3373ffffffffffffffffffffffffffffffffffffffff167f2324acb3fe79183632ceecbae105261c5d54e95afd1cfbe33ebffc2b05652fd283670de0b6b3a76400008561079e9190612381565b6040516107ac92919061248c565b60405180910390a25050565b6060600860008373ffffffffffffffffffffffffffffffffffffffff1673ffffffffffffffffffffffffffffffffffffffff1681526020019081526020016000208054610804906124e4565b80601f0160208091040260200160405190810160405280929190818152602001828054610830906124e4565b801561087d5780601f106108525761010080835404028352916020019161087d565b820191906000526020600020905b81548152906001019060200180831161086057829003601f168201915b50505050509050919050565b6060600760008373ffffffffffffffffffffffffffffffffffffffff1673ffffffffffffffffffffffffffffffffffffffff16815260200190815260200160002080548060200260200160405190810160405280929190818152602001828054801561091457602002820191906000526020600020905b815481526020019060010190808311610900575b50505050509050919050565b60008060056000848152602001908152602001600020905060005b81600501805490508110156109db578473ffffffffffffffffffffffffffffffffffffffff1682600501828154811061097757610976612515565b5b9060005260206000200160009054906101000a900473ffffffffffffffffffffffffffffffffffffffff1673ffffffffffffffffffffffffffffffffffffffff16036109c8576001925050506109e2565b80806109d390612544565b91505061093b565b5060009150505b92915050565b60006005600083815260200190815260200160002090508060060160009054906101000a900460ff16610a50576040517f08c379a0000000000000000000000000000000000000000000000000000000008152600401610a47906125d8565b60405180910390fd5b600460003373ffffffffffffffffffffffffffffffffffffffff1673ffffffffffffffffffffffffffffffffffffffff16815260200190815260200160002060040160009054906101000a900460ff16610adf576040517f08c379a0000000000000000000000000000000000000000000000000000000008152600401610ad690612644565b60405180910390fd5b60008160030154905060006064605083610af99190612381565b610b039190612693565b905060008183610b1391906126c4565b9050600160009054906101000a900473ffffffffffffffffffffffffffffffffffffffff1673ffffffffffffffffffffffffffffffffffffffff166323b872dd338660010160009054906101000a900473ffffffffffffffffffffffffffffffffffffffff16856040518463ffffffff1660e01b8152600401610b9893929190612256565b6020604051808303816000875af1158015610bb7573d6000803e3d6000fd5b505050506040513d601f19601f82011682018060405250810190610bdb91906122b9565b610c1a576040517f08c379a0000000000000000000000000000000000000000000000000000000008152600401610c1190612744565b60405180910390fd5b600160009054906101000a900473ffffffffffffffffffffffffffffffffffffffff1673ffffffffffffffffffffffffffffffffffffffff166323b872dd33610c616110c4565b846040518463ffffffff1660e01b8152600401610c8093929190612256565b6020604051808303816000875af1158015610c9f573d6000803e3d6000fd5b505050506040513d601f19601f82011682018060405250810190610cc391906122b9565b610d02576040517f08c379a0000000000000000000000000000000000000000000000000000000008152600401610cf9906127b0565b60405180910390fd5b83600501339080600181540180825580915050600190039060005260206000200160009091909190916101000a81548173ffffffffffffffffffffffffffffffffffffffff021916908373ffffffffffffffffffffffffffffffffffffffff160217905550600660003373ffffffffffffffffffffffffffffffffffffffff1673ffffffffffffffffffffffffffffffffffffffff168152602001908152602001600020859080600181540180825580915050600190039060005260206000200160009091909190915055843373ffffffffffffffffffffffffffffffffffffffff167fb975c93c50aa94d9c86dd9fb379701dc0bdc2aa1c503bf46d9cf4f313e0f47fc85604051610e149190611fc5565b60405180910390a35050505050565b610e2d3383610920565b610e6c576040517f08c379a0000000000000000000000000000000000000000000000000000000008152600401610e639061281c565b60405180910390fd5b6000600260009054906101000a900473ffffffffffffffffffffffffffffffffffffffff1673ffffffffffffffffffffffffffffffffffffffff16630712249f33846040518363ffffffff1660e01b8152600401610ecb92919061283c565b6020604051808303816000875af1158015610eea573d6000803e3d6000fd5b505050506040513d601f19601f82011682018060405250810190610f0e9190612881565b9050600460003373ffffffffffffffffffffffffffffffffffffffff1673ffffffffffffffffffffffffffffffffffffffff1681526020019081526020016000206003016000815480929190610f6390612544565b9190505550823373ffffffffffffffffffffffffffffffffffffffff167f69598479254610bc37273ec300171cd231505beb1ee68d360cbd78c1bd81827883604051610faf9190611fc5565b60405180910390a3505050565b600260009054906101000a900473ffffffffffffffffffffffffffffffffffffffff1681565b60076020528160005260406000208181548110610ffe57600080fd5b90600052602060002001600091509150505481565b61101b61190e565b6110256000611995565b565b60035481565b6060600660008373ffffffffffffffffffffffffffffffffffffffff1673ffffffffffffffffffffffffffffffffffffffff1681526020019081526020016000208054806020026020016040519081016040528092919081815260200182805480156110b857602002820191906000526020600020905b8154815260200190600101908083116110a4575b50505050509050919050565b60008060009054906101000a900473ffffffffffffffffffffffffffffffffffffffff16905090565b6006602052816000526040600020818154811061110957600080fd5b90600052602060002001600091509150505481565b60056020528060005260406000206000915090508060000154908060010160009054906101000a900473ffffffffffffffffffffffffffffffffffffffff169080600201805461116d906124e4565b80601f0160208091040260200160405190810160405280929190818152602001828054611199906124e4565b80156111e65780601f106111bb576101008083540402835291602001916111e6565b820191906000526020600020905b8154815290600101906020018083116111c957829003601f168201915b505050505090806003015490806004018054611201906124e4565b80601f016020809104026020016040519081016040528092919081815260200182805461122d906124e4565b801561127a5780601f1061124f5761010080835404028352916020019161127a565b820191906000526020600020905b81548152906001019060200180831161125d57829003601f168201915b5050505050908060060160009054906101000a900460ff16908060070154905087565b6000600360008154809291906112b290612544565b9190505590506000600560008381526020019081526020016000209050818160000181905550338160010160006101000a81548173ffffffffffffffffffffffffffffffffffffffff021916908373ffffffffffffffffffffffffffffffffffffffff1602179055508381600201908161132c9190612a50565b50828160030181905550848160040190816113479190612a50565b5060018160060160006101000a81548160ff021916908315150217905550428160070181905550600760003373ffffffffffffffffffffffffffffffffffffffff1673ffffffffffffffffffffffffffffffffffffffff1681526020019081526020016000208290806001815401808255809150506001900390600052602060002001600090919091909150553373ffffffffffffffffffffffffffffffffffffffff16827f27b444394f1a7b0aa73d468ff76433d70ccbd1517709b5a2b06eaf249a4ddcf0868660405161141d929190612b22565b60405180910390a35050505050565b60046020528060005260406000206000915090508060000160009054906101000a900473ffffffffffffffffffffffffffffffffffffffff16908060010154908060020154908060030154908060040160009054906101000a900460ff16905085565b80600860003373ffffffffffffffffffffffffffffffffffffffff1673ffffffffffffffffffffffffffffffffffffffff16815260200190815260200160002090816114db9190612a50565b5050565b600460003373ffffffffffffffffffffffffffffffffffffffff1673ffffffffffffffffffffffffffffffffffffffff16815260200190815260200160002060040160009054906101000a900460ff161561156f576040517f08c379a000000000000000000000000000000000000000000000000000000000815260040161156690612b9e565b60405180910390fd5b6000670de0b6b3a7640000826115859190612381565b90506040518060a001604052803373ffffffffffffffffffffffffffffffffffffffff1681526020018381526020018281526020016000815260200160011515815250600460003373ffffffffffffffffffffffffffffffffffffffff1673ffffffffffffffffffffffffffffffffffffffff16815260200190815260200160002060008201518160000160006101000a81548173ffffffffffffffffffffffffffffffffffffffff021916908373ffffffffffffffffffffffffffffffffffffffff16021790555060208201518160010155604082015181600201556060820151816003015560808201518160040160006101000a81548160ff021916908315150217905550905050600160009054906101000a900473ffffffffffffffffffffffffffffffffffffffff1673ffffffffffffffffffffffffffffffffffffffff1663a9059cbb33836040518363ffffffff1660e01b81526004016116ec9291906123f7565b6020604051808303816000875af115801561170b573d6000803e3d6000fd5b505050506040513d601f19601f8201168201806040525081019061172f91906122b9565b61176e576040517f08c379a00000000000000000000000000000000000000000000000000000000081526004016117659061246c565b60405180910390fd5b3373ffffffffffffffffffffffffffffffffffffffff167f2324acb3fe79183632ceecbae105261c5d54e95afd1cfbe33ebffc2b05652fd283836040516117b692919061248c565b60405180910390a25050565b600160009054906101000a900473ffffffffffffffffffffffffffffffffffffffff1681565b60086020528060005260406000206000915090508054611807906124e4565b80601f0160208091040260200160405190810160405280929190818152602001828054611833906124e4565b80156118805780601f1061185557610100808354040283529160200191611880565b820191906000526020600020905b81548152906001019060200180831161186357829003601f168201915b505050505081565b61189061190e565b600073ffffffffffffffffffffffffffffffffffffffff168173ffffffffffffffffffffffffffffffffffffffff16036119025760006040517f1e4fbdf70000000000000000000000000000000000000000000000000000000081526004016118f99190611fef565b60405180910390fd5b61190b81611995565b50565b611916611a59565b73ffffffffffffffffffffffffffffffffffffffff166119346110c4565b73ffffffffffffffffffffffffffffffffffffffff161461199357611957611a59565b6040517f118cdaa700000000000000000000000000000000000000000000000000000000815260040161198a9190611fef565b60405180910390fd5b565b60008060009054906101000a900473ffffffffffffffffffffffffffffffffffffffff169050816000806101000a81548173ffffffffffffffffffffffffffffffffffffffff021916908373ffffffffffffffffffffffffffffffffffffffff1602179055508173ffffffffffffffffffffffffffffffffffffffff168173ffffffffffffffffffffffffffffffffffffffff167f8be0079c531659141344cd1fd0a4f28419497f9722a3daafe3b4186f6b6457e060405160405180910390a35050565b600033905090565b6000604051905090565b600080fd5b600080fd5b6000819050919050565b611a8881611a75565b8114611a9357600080fd5b50565b600081359050611aa581611a7f565b92915050565b60008060408385031215611ac257611ac1611a6b565b5b6000611ad085828601611a96565b9250506020611ae185828601611a96565b9150509250929050565b600073ffffffffffffffffffffffffffffffffffffffff82169050919050565b6000611b1682611aeb565b9050919050565b611b2681611b0b565b8114611b3157600080fd5b50565b600081359050611b4381611b1d565b92915050565b600060208284031215611b5f57611b5e611a6b565b5b6000611b6d84828501611b34565b91505092915050565b600081519050919050565b600082825260208201905092915050565b60005b83811015611bb0578082015181840152602081019050611b95565b60008484015250505050565b6000601f19601f8301169050919050565b6000611bd882611b76565b611be28185611b81565b9350611bf2818560208601611b92565b611bfb81611bbc565b840191505092915050565b60006020820190508181036000830152611c208184611bcd565b905092915050565b600081519050919050565b600082825260208201905092915050565b6000819050602082019050919050565b611c5d81611a75565b82525050565b6000611c6f8383611c54565b60208301905092915050565b6000602082019050919050565b6000611c9382611c28565b611c9d8185611c33565b9350611ca883611c44565b8060005b83811015611cd9578151611cc08882611c63565b9750611ccb83611c7b565b925050600181019050611cac565b5085935050505092915050565b60006020820190508181036000830152611d008184611c88565b905092915050565b60008060408385031215611d1f57611d1e611a6b565b5b6000611d2d85828601611b34565b9250506020611d3e85828601611a96565b9150509250929050565b60008115159050919050565b611d5d81611d48565b82525050565b6000602082019050611d786000830184611d54565b92915050565b600060208284031215611d9457611d93611a6b565b5b6000611da284828501611a96565b91505092915050565b600080fd5b600080fd5b7f4e487b7100000000000000000000000000000000000000000000000000000000600052604160045260246000fd5b611ded82611bbc565b810181811067ffffffffffffffff82111715611e0c57611e0b611db5565b5b80604052505050565b6000611e1f611a61565b9050611e2b8282611de4565b919050565b600067ffffffffffffffff821115611e4b57611e4a611db5565b5b611e5482611bbc565b9050602081019050919050565b82818337600083830152505050565b6000611e83611e7e84611e30565b611e15565b905082815260208101848484011115611e9f57611e9e611db0565b5b611eaa848285611e61565b509392505050565b600082601f830112611ec757611ec6611dab565b5b8135611ed7848260208601611e70565b91505092915050565b60008060408385031215611ef757611ef6611a6b565b5b6000611f0585828601611a96565b925050602083013567ffffffffffffffff811115611f2657611f25611a70565b5b611f3285828601611eb2565b9150509250929050565b6000819050919050565b6000611f61611f5c611f5784611aeb565b611f3c565b611aeb565b9050919050565b6000611f7382611f46565b9050919050565b6000611f8582611f68565b9050919050565b611f9581611f7a565b82525050565b6000602082019050611fb06000830184611f8c565b92915050565b611fbf81611a75565b82525050565b6000602082019050611fda6000830184611fb6565b92915050565b611fe981611b0b565b82525050565b60006020820190506120046000830184611fe0565b92915050565b600060e08201905061201f600083018a611fb6565b61202c6020830189611fe0565b818103604083015261203e8188611bcd565b905061204d6060830187611fb6565b818103608083015261205f8186611bcd565b905061206e60a0830185611d54565b61207b60c0830184611fb6565b98975050505050505050565b6000806000606084860312156120a05761209f611a6b565b5b600084013567ffffffffffffffff8111156120be576120bd611a70565b5b6120ca86828701611eb2565b935050602084013567ffffffffffffffff8111156120eb576120ea611a70565b5b6120f786828701611eb2565b925050604061210886828701611a96565b9150509250925092565b600060a0820190506121276000830188611fe0565b6121346020830187611fb6565b6121416040830186611fb6565b61214e6060830185611fb6565b61215b6080830184611d54565b9695505050505050565b60006020828403121561217b5761217a611a6b565b5b600082013567ffffffffffffffff81111561219957612198611a70565b5b6121a584828501611eb2565b91505092915050565b60006121b982611f68565b9050919050565b6121c9816121ae565b82525050565b60006020820190506121e460008301846121c0565b92915050565b7f496e697469616c20746573742072657175697265640000000000000000000000600082015250565b6000612220601583611b81565b915061222b826121ea565b602082019050919050565b6000602082019050818103600083015261224f81612213565b9050919050565b600060608201905061226b6000830186611fe0565b6122786020830185611fe0565b6122856040830184611fb6565b949350505050565b61229681611d48565b81146122a157600080fd5b50565b6000815190506122b38161228d565b92915050565b6000602082840312156122cf576122ce611a6b565b5b60006122dd848285016122a4565b91505092915050565b7f526574616b6520666565206661696c6564000000000000000000000000000000600082015250565b600061231c601183611b81565b9150612327826122e6565b602082019050919050565b6000602082019050818103600083015261234b8161230f565b9050919050565b7f4e487b7100000000000000000000000000000000000000000000000000000000600052601160045260246000fd5b600061238c82611a75565b915061239783611a75565b92508282026123a581611a75565b915082820484148315176123bc576123bb612352565b5b5092915050565b60006123ce82611a75565b91506123d983611a75565b92508282019050808211156123f1576123f0612352565b5b92915050565b600060408201905061240c6000830185611fe0565b6124196020830184611fb6565b9392505050565b7f546f6b656e20726577617264206661696c656400000000000000000000000000600082015250565b6000612456601383611b81565b915061246182612420565b602082019050919050565b6000602082019050818103600083015261248581612449565b9050919050565b60006040820190506124a16000830185611fb6565b6124ae6020830184611fb6565b9392505050565b7f4e487b7100000000000000000000000000000000000000000000000000000000600052602260045260246000fd5b600060028204905060018216806124fc57607f821691505b60208210810361250f5761250e6124b5565b5b50919050565b7f4e487b7100000000000000000000000000000000000000000000000000000000600052603260045260246000fd5b600061254f82611a75565b91507fffffffffffffffffffffffffffffffffffffffffffffffffffffffffffffffff820361258157612580612352565b5b600182019050919050565b7f496e61637469766520636f757273650000000000000000000000000000000000600082015250565b60006125c2600f83611b81565b91506125cd8261258c565b602082019050919050565b600060208201905081810360008301526125f1816125b5565b9050919050565b7f54657374206e6f7420636f6d706c657465640000000000000000000000000000600082015250565b600061262e601283611b81565b9150612639826125f8565b602082019050919050565b6000602082019050818103600083015261265d81612621565b9050919050565b7f4e487b7100000000000000000000000000000000000000000000000000000000600052601260045260246000fd5b600061269e82611a75565b91506126a983611a75565b9250826126b9576126b8612664565b5b828204905092915050565b60006126cf82611a75565b91506126da83611a75565b92508282039050818111156126f2576126f1612352565b5b92915050565b7f496e7374727563746f72207061796d656e74206661696c656400000000000000600082015250565b600061272e601983611b81565b9150612739826126f8565b602082019050919050565b6000602082019050818103600083015261275d81612721565b9050919050565b7f506c6174666f726d20666565206661696c656400000000000000000000000000600082015250565b600061279a601383611b81565b91506127a582612764565b602082019050919050565b600060208201905081810360008301526127c98161278d565b9050919050565b7f4e6f7420656e726f6c6c65640000000000000000000000000000000000000000600082015250565b6000612806600c83611b81565b9150612811826127d0565b602082019050919050565b60006020820190508181036000830152612835816127f9565b9050919050565b60006040820190506128516000830185611fe0565b81810360208301526128638184611bcd565b90509392505050565b60008151905061287b81611a7f565b92915050565b60006020828403121561289757612896611a6b565b5b60006128a58482850161286c565b91505092915050565b60008190508160005260206000209050919050565b60006020601f8301049050919050565b600082821b905092915050565b6000600883026129107fffffffffffffffffffffffffffffffffffffffffffffffffffffffffffffffff826128d3565b61291a86836128d3565b95508019841693508086168417925050509392505050565b600061294d61294861294384611a75565b611f3c565b611a75565b9050919050565b6000819050919050565b61296783612932565b61297b61297382612954565b8484546128e0565b825550505050565b600090565b612990612983565b61299b81848461295e565b505050565b5b818110156129bf576129b4600082612988565b6001810190506129a1565b5050565b601f821115612a04576129d5816128ae565b6129de846128c3565b810160208510156129ed578190505b612a016129f9856128c3565b8301826129a0565b50505b505050565b600082821c905092915050565b6000612a2760001984600802612a09565b1980831691505092915050565b6000612a408383612a16565b9150826002028217905092915050565b612a5982611b76565b67ffffffffffffffff811115612a7257612a71611db5565b5b612a7c82546124e4565b612a878282856129c3565b600060209050601f831160018114612aba5760008415612aa8578287015190505b612ab28582612a34565b865550612b1a565b601f198416612ac8866128ae565b60005b82811015612af057848901518255600182019150602085019450602081019050612acb565b86831015612b0d5784890151612b09601f891682612a16565b8355505b6001600288020188555050505b505050505050565b60006040820190508181036000830152612b3c8185611bcd565b9050612b4b6020830184611fb6565b9392505050565b7f5465737420616c726561647920636f6d706c6574656400000000000000000000600082015250565b6000612b88601683611b81565b9150612b9382612b52565b602082019050919050565b60006020820190508181036000830152612bb781612b7b565b905091905056fea26469706673582212200538764963b649ee3a14f3793c505eefea36505e6d4f3459edc232ee18b33aeb64736f6c63430008140033","opcodes":"PUSH1 0x80 PUSH1 0x40 MSTORE CALLVALUE DUP1 ISZERO PUSH3 0x11 JUMPI PUSH1 0x0 DUP1 REVERT JUMPDEST POP PUSH1 0x40 MLOAD PUSH3 0x2F0E CODESIZE SUB DUP1 PUSH3 0x2F0E DUP4 CODECOPY DUP2 DUP2 ADD PUSH1 0x40 MSTORE DUP2 ADD SWAP1 PUSH3 0x37 SWAP2 SWAP1 PUSH3 0x280 JUMP JUMPDEST DUP1 PUSH1 0x0 PUSH20 0xFFFFFFFFFFFFFFFFFFFFFFFFFFFFFFFFFFFFFFFF AND DUP2 PUSH20 0xFFFFFFFFFFFFFFFFFFFFFFFFFFFFFFFFFFFFFFFF AND SUB PUSH3 0xAD JUMPI PUSH1 0x0 PUSH1 0x40 MLOAD PUSH32 0x1E4FBDF700000000000000000000000000000000000000000000000000000000 DUP2 MSTORE PUSH1 0x4 ADD PUSH3 0xA4 SWAP2 SWAP1 PUSH3 0x2ED JUMP JUMPDEST PUSH1 0x40 MLOAD DUP1 SWAP2 SUB SWAP1 REVERT JUMPDEST PUSH3 0xBE DUP2 PUSH3 0x152 PUSH1 0x20 SHL PUSH1 0x20 SHR JUMP JUMPDEST POP DUP3 PUSH1 0x1 PUSH1 0x0 PUSH2 0x100 EXP DUP2 SLOAD DUP2 PUSH20 0xFFFFFFFFFFFFFFFFFFFFFFFFFFFFFFFFFFFFFFFF MUL NOT AND SWAP1 DUP4 PUSH20 0xFFFFFFFFFFFFFFFFFFFFFFFFFFFFFFFFFFFFFFFF AND MUL OR SWAP1 SSTORE POP DUP2 PUSH1 0x2 PUSH1 0x0 PUSH2 0x100 EXP DUP2 SLOAD DUP2 PUSH20 0xFFFFFFFFFFFFFFFFFFFFFFFFFFFFFFFFFFFFFFFF MUL NOT AND SWAP1 DUP4 PUSH20 0xFFFFFFFFFFFFFFFFFFFFFFFFFFFFFFFFFFFFFFFF AND MUL OR SWAP1 SSTORE POP PUSH1 0x1 PUSH1 0x3 DUP2 SWAP1 SSTORE POP POP POP POP PUSH3 0x30A JUMP JUMPDEST PUSH1 0x0 DUP1 PUSH1 0x0 SWAP1 SLOAD SWAP1 PUSH2 0x100 EXP SWAP1 DIV PUSH20 0xFFFFFFFFFFFFFFFFFFFFFFFFFFFFFFFFFFFFFFFF AND SWAP1 POP DUP2 PUSH1 0x0 DUP1 PUSH2 0x100 EXP DUP2 SLOAD DUP2 PUSH20 0xFFFFFFFFFFFFFFFFFFFFFFFFFFFFFFFFFFFFFFFF MUL NOT AND SWAP1 DUP4 PUSH20 0xFFFFFFFFFFFFFFFFFFFFFFFFFFFFFFFFFFFFFFFF AND MUL OR SWAP1 SSTORE POP DUP2 PUSH20 0xFFFFFFFFFFFFFFFFFFFFFFFFFFFFFFFFFFFFFFFF AND DUP2 PUSH20 0xFFFFFFFFFFFFFFFFFFFFFFFFFFFFFFFFFFFFFFFF AND PUSH32 0x8BE0079C531659141344CD1FD0A4F28419497F9722A3DAAFE3B4186F6B6457E0 PUSH1 0x40 MLOAD PUSH1 0x40 MLOAD DUP1 SWAP2 SUB SWAP1 LOG3 POP POP JUMP JUMPDEST PUSH1 0x0 DUP1 REVERT JUMPDEST PUSH1 0x0 PUSH20 0xFFFFFFFFFFFFFFFFFFFFFFFFFFFFFFFFFFFFFFFF DUP3 AND SWAP1 POP SWAP2 SWAP1 POP JUMP JUMPDEST PUSH1 0x0 PUSH3 0x248 DUP3 PUSH3 0x21B JUMP JUMPDEST SWAP1 POP SWAP2 SWAP1 POP JUMP JUMPDEST PUSH3 0x25A DUP2 PUSH3 0x23B JUMP JUMPDEST DUP2 EQ PUSH3 0x266 JUMPI PUSH1 0x0 DUP1 REVERT JUMPDEST POP JUMP JUMPDEST PUSH1 0x0 DUP2 MLOAD SWAP1 POP PUSH3 0x27A DUP2 PUSH3 0x24F JUMP JUMPDEST SWAP3 SWAP2 POP POP JUMP JUMPDEST PUSH1 0x0 DUP1 PUSH1 0x0 PUSH1 0x60 DUP5 DUP7 SUB SLT ISZERO PUSH3 0x29C JUMPI PUSH3 0x29B PUSH3 0x216 JUMP JUMPDEST JUMPDEST PUSH1 0x0 PUSH3 0x2AC DUP7 DUP3 DUP8 ADD PUSH3 0x269 JUMP JUMPDEST SWAP4 POP POP PUSH1 0x20 PUSH3 0x2BF DUP7 DUP3 DUP8 ADD PUSH3 0x269 JUMP JUMPDEST SWAP3 POP POP PUSH1 0x40 PUSH3 0x2D2 DUP7 DUP3 DUP8 ADD PUSH3 0x269 JUMP JUMPDEST SWAP2 POP POP SWAP3 POP SWAP3 POP SWAP3 JUMP JUMPDEST PUSH3 0x2E7 DUP2 PUSH3 0x23B JUMP JUMPDEST DUP3 MSTORE POP POP JUMP JUMPDEST PUSH1 0x0 PUSH1 0x20 DUP3 ADD SWAP1 POP PUSH3 0x304 PUSH1 0x0 DUP4 ADD DUP5 PUSH3 0x2DC JUMP JUMPDEST SWAP3 SWAP2 POP POP JUMP JUMPDEST PUSH2 0x2BF4 DUP1 PUSH3 0x31A PUSH1 0x0 CODECOPY PUSH1 0x0 RETURN INVALID PUSH1 0x80 PUSH1 0x40 MSTORE CALLVALUE DUP1 ISZERO PUSH2 0x10 JUMPI PUSH1 0x0 DUP1 REVERT JUMPDEST POP PUSH1 0x4 CALLDATASIZE LT PUSH2 0x137 JUMPI PUSH1 0x0 CALLDATALOAD PUSH1 0xE0 SHR DUP1 PUSH4 0x829AE6F4 GT PUSH2 0xB8 JUMPI DUP1 PUSH4 0xA87430BA GT PUSH2 0x7C JUMPI DUP1 PUSH4 0xA87430BA EQ PUSH2 0x366 JUMPI DUP1 PUSH4 0xADE778F4 EQ PUSH2 0x39A JUMPI DUP1 PUSH4 0xC9D4188F EQ PUSH2 0x3B6 JUMPI DUP1 PUSH4 0xE359D997 EQ PUSH2 0x3D2 JUMPI DUP1 PUSH4 0xEC57C20B EQ PUSH2 0x3F0 JUMPI DUP1 PUSH4 0xF2FDE38B EQ PUSH2 0x420 JUMPI PUSH2 0x137 JUMP JUMPDEST DUP1 PUSH4 0x829AE6F4 EQ PUSH2 0x296 JUMPI DUP1 PUSH4 0x8DA5CB5B EQ PUSH2 0x2C6 JUMPI DUP1 PUSH4 0x93A05C20 EQ PUSH2 0x2E4 JUMPI DUP1 PUSH4 0x96F979D2 EQ PUSH2 0x314 JUMPI DUP1 PUSH4 0xA4ADB24B EQ PUSH2 0x34A JUMPI PUSH2 0x137 JUMP JUMPDEST DUP1 PUSH4 0x690E8434 GT PUSH2 0xFF JUMPI DUP1 PUSH4 0x690E8434 EQ PUSH2 0x204 JUMPI DUP1 PUSH4 0x6A0304BF EQ PUSH2 0x220 JUMPI DUP1 PUSH4 0x6CEFF219 EQ PUSH2 0x23E JUMPI DUP1 PUSH4 0x715018A6 EQ PUSH2 0x26E JUMPI DUP1 PUSH4 0x7D83DAF2 EQ PUSH2 0x278 JUMPI PUSH2 0x137 JUMP JUMPDEST DUP1 PUSH4 0xE3FECD2 EQ PUSH2 0x13C JUMPI DUP1 PUSH4 0x403E2707 EQ PUSH2 0x158 JUMPI DUP1 PUSH4 0x44674E43 EQ PUSH2 0x188 JUMPI DUP1 PUSH4 0x50774A15 EQ PUSH2 0x1B8 JUMPI DUP1 PUSH4 0x5E52DA27 EQ PUSH2 0x1E8 JUMPI JUMPDEST PUSH1 0x0 DUP1 REVERT JUMPDEST PUSH2 0x156 PUSH1 0x4 DUP1 CALLDATASIZE SUB DUP2 ADD SWAP1 PUSH2 0x151 SWAP2 SWAP1 PUSH2 0x1AAB JUMP JUMPDEST PUSH2 0x43C JUMP JUMPDEST STOP JUMPDEST PUSH2 0x172 PUSH1 0x4 DUP1 CALLDATASIZE SUB DUP2 ADD SWAP1 PUSH2 0x16D SWAP2 SWAP1 PUSH2 0x1B49 JUMP JUMPDEST PUSH2 0x7B8 JUMP JUMPDEST PUSH1 0x40 MLOAD PUSH2 0x17F SWAP2 SWAP1 PUSH2 0x1C06 JUMP JUMPDEST PUSH1 0x40 MLOAD DUP1 SWAP2 SUB SWAP1 RETURN JUMPDEST PUSH2 0x1A2 PUSH1 0x4 DUP1 CALLDATASIZE SUB DUP2 ADD SWAP1 PUSH2 0x19D SWAP2 SWAP1 PUSH2 0x1B49 JUMP JUMPDEST PUSH2 0x889 JUMP JUMPDEST PUSH1 0x40 MLOAD PUSH2 0x1AF SWAP2 SWAP1 PUSH2 0x1CE6 JUMP JUMPDEST PUSH1 0x40 MLOAD DUP1 SWAP2 SUB SWAP1 RETURN JUMPDEST PUSH2 0x1D2 PUSH1 0x4 DUP1 CALLDATASIZE SUB DUP2 ADD SWAP1 PUSH2 0x1CD SWAP2 SWAP1 PUSH2 0x1D08 JUMP JUMPDEST PUSH2 0x920 JUMP JUMPDEST PUSH1 0x40 MLOAD PUSH2 0x1DF SWAP2 SWAP1 PUSH2 0x1D63 JUMP JUMPDEST PUSH1 0x40 MLOAD DUP1 SWAP2 SUB SWAP1 RETURN JUMPDEST PUSH2 0x202 PUSH1 0x4 DUP1 CALLDATASIZE SUB DUP2 ADD SWAP1 PUSH2 0x1FD SWAP2 SWAP1 PUSH2 0x1D7E JUMP JUMPDEST PUSH2 0x9E8 JUMP JUMPDEST STOP JUMPDEST PUSH2 0x21E PUSH1 0x4 DUP1 CALLDATASIZE SUB DUP2 ADD SWAP1 PUSH2 0x219 SWAP2 SWAP1 PUSH2 0x1EE0 JUMP JUMPDEST PUSH2 0xE23 JUMP JUMPDEST STOP JUMPDEST PUSH2 0x228 PUSH2 0xFBC JUMP JUMPDEST PUSH1 0x40 MLOAD PUSH2 0x235 SWAP2 SWAP1 PUSH2 0x1F9B JUMP JUMPDEST PUSH1 0x40 MLOAD DUP1 SWAP2 SUB SWAP1 RETURN JUMPDEST PUSH2 0x258 PUSH1 0x4 DUP1 CALLDATASIZE SUB DUP2 ADD SWAP1 PUSH2 0x253 SWAP2 SWAP1 PUSH2 0x1D08 JUMP JUMPDEST PUSH2 0xFE2 JUMP JUMPDEST PUSH1 0x40 MLOAD PUSH2 0x265 SWAP2 SWAP1 PUSH2 0x1FC5 JUMP JUMPDEST PUSH1 0x40 MLOAD DUP1 SWAP2 SUB SWAP1 RETURN JUMPDEST PUSH2 0x276 PUSH2 0x1013 JUMP JUMPDEST STOP JUMPDEST PUSH2 0x280 PUSH2 0x1027 JUMP JUMPDEST PUSH1 0x40 MLOAD PUSH2 0x28D SWAP2 SWAP1 PUSH2 0x1FC5 JUMP JUMPDEST PUSH1 0x40 MLOAD DUP1 SWAP2 SUB SWAP1 RETURN JUMPDEST PUSH2 0x2B0 PUSH1 0x4 DUP1 CALLDATASIZE SUB DUP2 ADD SWAP1 PUSH2 0x2AB SWAP2 SWAP1 PUSH2 0x1B49 JUMP JUMPDEST PUSH2 0x102D JUMP JUMPDEST PUSH1 0x40 MLOAD PUSH2 0x2BD SWAP2 SWAP1 PUSH2 0x1CE6 JUMP JUMPDEST PUSH1 0x40 MLOAD DUP1 SWAP2 SUB SWAP1 RETURN JUMPDEST PUSH2 0x2CE PUSH2 0x10C4 JUMP JUMPDEST PUSH1 0x40 MLOAD PUSH2 0x2DB SWAP2 SWAP1 PUSH2 0x1FEF JUMP JUMPDEST PUSH1 0x40 MLOAD DUP1 SWAP2 SUB SWAP1 RETURN JUMPDEST PUSH2 0x2FE PUSH1 0x4 DUP1 CALLDATASIZE SUB DUP2 ADD SWAP1 PUSH2 0x2F9 SWAP2 SWAP1 PUSH2 0x1D08 JUMP JUMPDEST PUSH2 0x10ED JUMP JUMPDEST PUSH1 0x40 MLOAD PUSH2 0x30B SWAP2 SWAP1 PUSH2 0x1FC5 JUMP JUMPDEST PUSH1 0x40 MLOAD DUP1 SWAP2 SUB SWAP1 RETURN JUMPDEST PUSH2 0x32E PUSH1 0x4 DUP1 CALLDATASIZE SUB DUP2 ADD SWAP1 PUSH2 0x329 SWAP2 SWAP1 PUSH2 0x1D7E JUMP JUMPDEST PUSH2 0x111E JUMP JUMPDEST PUSH1 0x40 MLOAD PUSH2 0x341 SWAP8 SWAP7 SWAP6 SWAP5 SWAP4 SWAP3 SWAP2 SWAP1 PUSH2 0x200A JUMP JUMPDEST PUSH1 0x40 MLOAD DUP1 SWAP2 SUB SWAP1 RETURN JUMPDEST PUSH2 0x364 PUSH1 0x4 DUP1 CALLDATASIZE SUB DUP2 ADD SWAP1 PUSH2 0x35F SWAP2 SWAP1 PUSH2 0x2087 JUMP JUMPDEST PUSH2 0x129D JUMP JUMPDEST STOP JUMPDEST PUSH2 0x380 PUSH1 0x4 DUP1 CALLDATASIZE SUB DUP2 ADD SWAP1 PUSH2 0x37B SWAP2 SWAP1 PUSH2 0x1B49 JUMP JUMPDEST PUSH2 0x142C JUMP JUMPDEST PUSH1 0x40 MLOAD PUSH2 0x391 SWAP6 SWAP5 SWAP4 SWAP3 SWAP2 SWAP1 PUSH2 0x2112 JUMP JUMPDEST PUSH1 0x40 MLOAD DUP1 SWAP2 SUB SWAP1 RETURN JUMPDEST PUSH2 0x3B4 PUSH1 0x4 DUP1 CALLDATASIZE SUB DUP2 ADD SWAP1 PUSH2 0x3AF SWAP2 SWAP1 PUSH2 0x2165 JUMP JUMPDEST PUSH2 0x148F JUMP JUMPDEST STOP JUMPDEST PUSH2 0x3D0 PUSH1 0x4 DUP1 CALLDATASIZE SUB DUP2 ADD SWAP1 PUSH2 0x3CB SWAP2 SWAP1 PUSH2 0x1D7E JUMP JUMPDEST PUSH2 0x14DF JUMP JUMPDEST STOP JUMPDEST PUSH2 0x3DA PUSH2 0x17C2 JUMP JUMPDEST PUSH1 0x40 MLOAD PUSH2 0x3E7 SWAP2 SWAP1 PUSH2 0x21CF JUMP JUMPDEST PUSH1 0x40 MLOAD DUP1 SWAP2 SUB SWAP1 RETURN JUMPDEST PUSH2 0x40A PUSH1 0x4 DUP1 CALLDATASIZE SUB DUP2 ADD SWAP1 PUSH2 0x405 SWAP2 SWAP1 PUSH2 0x1B49 JUMP JUMPDEST PUSH2 0x17E8 JUMP JUMPDEST PUSH1 0x40 MLOAD PUSH2 0x417 SWAP2 SWAP1 PUSH2 0x1C06 JUMP JUMPDEST PUSH1 0x40 MLOAD DUP1 SWAP2 SUB SWAP1 RETURN JUMPDEST PUSH2 0x43A PUSH1 0x4 DUP1 CALLDATASIZE SUB DUP2 ADD SWAP1 PUSH2 0x435 SWAP2 SWAP1 PUSH2 0x1B49 JUMP JUMPDEST PUSH2 0x1888 JUMP JUMPDEST STOP JUMPDEST PUSH1 0x4 PUSH1 0x0 CALLER PUSH20 0xFFFFFFFFFFFFFFFFFFFFFFFFFFFFFFFFFFFFFFFF AND PUSH20 0xFFFFFFFFFFFFFFFFFFFFFFFFFFFFFFFFFFFFFFFF AND DUP2 MSTORE PUSH1 0x20 ADD SWAP1 DUP2 MSTORE PUSH1 0x20 ADD PUSH1 0x0 KECCAK256 PUSH1 0x4 ADD PUSH1 0x0 SWAP1 SLOAD SWAP1 PUSH2 0x100 EXP SWAP1 DIV PUSH1 0xFF AND PUSH2 0x4CB JUMPI PUSH1 0x40 MLOAD PUSH32 0x8C379A000000000000000000000000000000000000000000000000000000000 DUP2 MSTORE PUSH1 0x4 ADD PUSH2 0x4C2 SWAP1 PUSH2 0x2236 JUMP JUMPDEST PUSH1 0x40 MLOAD DUP1 SWAP2 SUB SWAP1 REVERT JUMPDEST PUSH1 0x1 PUSH1 0x0 SWAP1 SLOAD SWAP1 PUSH2 0x100 EXP SWAP1 DIV PUSH20 0xFFFFFFFFFFFFFFFFFFFFFFFFFFFFFFFFFFFFFFFF AND PUSH20 0xFFFFFFFFFFFFFFFFFFFFFFFFFFFFFFFFFFFFFFFF AND PUSH4 0x23B872DD CALLER ADDRESS DUP5 PUSH1 0x40 MLOAD DUP5 PUSH4 0xFFFFFFFF AND PUSH1 0xE0 SHL DUP2 MSTORE PUSH1 0x4 ADD PUSH2 0x52A SWAP4 SWAP3 SWAP2 SWAP1 PUSH2 0x2256 JUMP JUMPDEST PUSH1 0x20 PUSH1 0x40 MLOAD DUP1 DUP4 SUB DUP2 PUSH1 0x0 DUP8 GAS CALL ISZERO DUP1 ISZERO PUSH2 0x549 JUMPI RETURNDATASIZE PUSH1 0x0 DUP1 RETURNDATACOPY RETURNDATASIZE PUSH1 0x0 REVERT JUMPDEST POP POP POP POP PUSH1 0x40 MLOAD RETURNDATASIZE PUSH1 0x1F NOT PUSH1 0x1F DUP3 ADD AND DUP3 ADD DUP1 PUSH1 0x40 MSTORE POP DUP2 ADD SWAP1 PUSH2 0x56D SWAP2 SWAP1 PUSH2 0x22B9 JUMP JUMPDEST PUSH2 0x5AC JUMPI PUSH1 0x40 MLOAD PUSH32 0x8C379A000000000000000000000000000000000000000000000000000000000 DUP2 MSTORE PUSH1 0x4 ADD PUSH2 0x5A3 SWAP1 PUSH2 0x2332 JUMP JUMPDEST PUSH1 0x40 MLOAD DUP1 SWAP2 SUB SWAP1 REVERT JUMPDEST DUP2 PUSH1 0x4 PUSH1 0x0 CALLER PUSH20 0xFFFFFFFFFFFFFFFFFFFFFFFFFFFFFFFFFFFFFFFF AND PUSH20 0xFFFFFFFFFFFFFFFFFFFFFFFFFFFFFFFFFFFFFFFF AND DUP2 MSTORE PUSH1 0x20 ADD SWAP1 DUP2 MSTORE PUSH1 0x20 ADD PUSH1 0x0 KECCAK256 PUSH1 0x1 ADD DUP2 SWAP1 SSTORE POP PUSH8 0xDE0B6B3A7640000 DUP3 PUSH2 0x607 SWAP2 SWAP1 PUSH2 0x2381 JUMP JUMPDEST PUSH1 0x4 PUSH1 0x0 CALLER PUSH20 0xFFFFFFFFFFFFFFFFFFFFFFFFFFFFFFFFFFFFFFFF AND PUSH20 0xFFFFFFFFFFFFFFFFFFFFFFFFFFFFFFFFFFFFFFFF AND DUP2 MSTORE PUSH1 0x20 ADD SWAP1 DUP2 MSTORE PUSH1 0x20 ADD PUSH1 0x0 KECCAK256 PUSH1 0x2 ADD PUSH1 0x0 DUP3 DUP3 SLOAD PUSH2 0x658 SWAP2 SWAP1 PUSH2 0x23C3 JUMP JUMPDEST SWAP3 POP POP DUP2 SWAP1 SSTORE POP PUSH1 0x1 PUSH1 0x0 SWAP1 SLOAD SWAP1 PUSH2 0x100 EXP SWAP1 DIV PUSH20 0xFFFFFFFFFFFFFFFFFFFFFFFFFFFFFFFFFFFFFFFF AND PUSH20 0xFFFFFFFFFFFFFFFFFFFFFFFFFFFFFFFFFFFFFFFF AND PUSH4 0xA9059CBB CALLER PUSH8 0xDE0B6B3A7640000 DUP6 PUSH2 0x6B2 SWAP2 SWAP1 PUSH2 0x2381 JUMP JUMPDEST PUSH1 0x40 MLOAD DUP4 PUSH4 0xFFFFFFFF AND PUSH1 0xE0 SHL DUP2 MSTORE PUSH1 0x4 ADD PUSH2 0x6CF SWAP3 SWAP2 SWAP1 PUSH2 0x23F7 JUMP JUMPDEST PUSH1 0x20 PUSH1 0x40 MLOAD DUP1 DUP4 SUB DUP2 PUSH1 0x0 DUP8 GAS CALL ISZERO DUP1 ISZERO PUSH2 0x6EE JUMPI RETURNDATASIZE PUSH1 0x0 DUP1 RETURNDATACOPY RETURNDATASIZE PUSH1 0x0 REVERT JUMPDEST POP POP POP POP PUSH1 0x40 MLOAD RETURNDATASIZE PUSH1 0x1F NOT PUSH1 0x1F DUP3 ADD AND DUP3 ADD DUP1 PUSH1 0x40 MSTORE POP DUP2 ADD SWAP1 PUSH2 0x712 SWAP2 SWAP1 PUSH2 0x22B9 JUMP JUMPDEST PUSH2 0x751 JUMPI PUSH1 0x40 MLOAD PUSH32 0x8C379A000000000000000000000000000000000000000000000000000000000 DUP2 MSTORE PUSH1 0x4 ADD PUSH2 0x748 SWAP1 PUSH2 0x246C JUMP JUMPDEST PUSH1 0x40 MLOAD DUP1 SWAP2 SUB SWAP1 REVERT JUMPDEST CALLER PUSH20 0xFFFFFFFFFFFFFFFFFFFFFFFFFFFFFFFFFFFFFFFF AND PUSH32 0x2324ACB3FE79183632CEECBAE105261C5D54E95AFD1CFBE33EBFFC2B05652FD2 DUP4 PUSH8 0xDE0B6B3A7640000 DUP6 PUSH2 0x79E SWAP2 SWAP1 PUSH2 0x2381 JUMP JUMPDEST PUSH1 0x40 MLOAD PUSH2 0x7AC SWAP3 SWAP2 SWAP1 PUSH2 0x248C JUMP JUMPDEST PUSH1 0x40 MLOAD DUP1 SWAP2 SUB SWAP1 LOG2 POP POP JUMP JUMPDEST PUSH1 0x60 PUSH1 0x8 PUSH1 0x0 DUP4 PUSH20 0xFFFFFFFFFFFFFFFFFFFFFFFFFFFFFFFFFFFFFFFF AND PUSH20 0xFFFFFFFFFFFFFFFFFFFFFFFFFFFFFFFFFFFFFFFF AND DUP2 MSTORE PUSH1 0x20 ADD SWAP1 DUP2 MSTORE PUSH1 0x20 ADD PUSH1 0x0 KECCAK256 DUP1 SLOAD PUSH2 0x804 SWAP1 PUSH2 0x24E4 JUMP JUMPDEST DUP1 PUSH1 0x1F ADD PUSH1 0x20 DUP1 SWAP2 DIV MUL PUSH1 0x20 ADD PUSH1 0x40 MLOAD SWAP1 DUP2 ADD PUSH1 0x40 MSTORE DUP1 SWAP3 SWAP2 SWAP1 DUP2 DUP2 MSTORE PUSH1 0x20 ADD DUP3 DUP1 SLOAD PUSH2 0x830 SWAP1 PUSH2 0x24E4 JUMP JUMPDEST DUP1 ISZERO PUSH2 0x87D JUMPI DUP1 PUSH1 0x1F LT PUSH2 0x852 JUMPI PUSH2 0x100 DUP1 DUP4 SLOAD DIV MUL DUP4 MSTORE SWAP2 PUSH1 0x20 ADD SWAP2 PUSH2 0x87D JUMP JUMPDEST DUP3 ADD SWAP2 SWAP1 PUSH1 0x0 MSTORE PUSH1 0x20 PUSH1 0x0 KECCAK256 SWAP1 JUMPDEST DUP2 SLOAD DUP2 MSTORE SWAP1 PUSH1 0x1 ADD SWAP1 PUSH1 0x20 ADD DUP1 DUP4 GT PUSH2 0x860 JUMPI DUP3 SWAP1 SUB PUSH1 0x1F AND DUP3 ADD SWAP2 JUMPDEST POP POP POP POP POP SWAP1 POP SWAP2 SWAP1 POP JUMP JUMPDEST PUSH1 0x60 PUSH1 0x7 PUSH1 0x0 DUP4 PUSH20 0xFFFFFFFFFFFFFFFFFFFFFFFFFFFFFFFFFFFFFFFF AND PUSH20 0xFFFFFFFFFFFFFFFFFFFFFFFFFFFFFFFFFFFFFFFF AND DUP2 MSTORE PUSH1 0x20 ADD SWAP1 DUP2 MSTORE PUSH1 0x20 ADD PUSH1 0x0 KECCAK256 DUP1 SLOAD DUP1 PUSH1 0x20 MUL PUSH1 0x20 ADD PUSH1 0x40 MLOAD SWAP1 DUP2 ADD PUSH1 0x40 MSTORE DUP1 SWAP3 SWAP2 SWAP1 DUP2 DUP2 MSTORE PUSH1 0x20 ADD DUP3 DUP1 SLOAD DUP1 ISZERO PUSH2 0x914 JUMPI PUSH1 0x20 MUL DUP3 ADD SWAP2 SWAP1 PUSH1 0x0 MSTORE PUSH1 0x20 PUSH1 0x0 KECCAK256 SWAP1 JUMPDEST DUP2 SLOAD DUP2 MSTORE PUSH1 0x20 ADD SWAP1 PUSH1 0x1 ADD SWAP1 DUP1 DUP4 GT PUSH2 0x900 JUMPI JUMPDEST POP POP POP POP POP SWAP1 POP SWAP2 SWAP1 POP JUMP JUMPDEST PUSH1 0x0 DUP1 PUSH1 0x5 PUSH1 0x0 DUP5 DUP2 MSTORE PUSH1 0x20 ADD SWAP1 DUP2 MSTORE PUSH1 0x20 ADD PUSH1 0x0 KECCAK256 SWAP1 POP PUSH1 0x0 JUMPDEST DUP2 PUSH1 0x5 ADD DUP1 SLOAD SWAP1 POP DUP2 LT ISZERO PUSH2 0x9DB JUMPI DUP5 PUSH20 0xFFFFFFFFFFFFFFFFFFFFFFFFFFFFFFFFFFFFFFFF AND DUP3 PUSH1 0x5 ADD DUP3 DUP2 SLOAD DUP2 LT PUSH2 0x977 JUMPI PUSH2 0x976 PUSH2 0x2515 JUMP JUMPDEST JUMPDEST SWAP1 PUSH1 0x0 MSTORE PUSH1 0x20 PUSH1 0x0 KECCAK256 ADD PUSH1 0x0 SWAP1 SLOAD SWAP1 PUSH2 0x100 EXP SWAP1 DIV PUSH20 0xFFFFFFFFFFFFFFFFFFFFFFFFFFFFFFFFFFFFFFFF AND PUSH20 0xFFFFFFFFFFFFFFFFFFFFFFFFFFFFFFFFFFFFFFFF AND SUB PUSH2 0x9C8 JUMPI PUSH1 0x1 SWAP3 POP POP POP PUSH2 0x9E2 JUMP JUMPDEST DUP1 DUP1 PUSH2 0x9D3 SWAP1 PUSH2 0x2544 JUMP JUMPDEST SWAP2 POP POP PUSH2 0x93B JUMP JUMPDEST POP PUSH1 0x0 SWAP2 POP POP JUMPDEST SWAP3 SWAP2 POP POP JUMP JUMPDEST PUSH1 0x0 PUSH1 0x5 PUSH1 0x0 DUP4 DUP2 MSTORE PUSH1 0x20 ADD SWAP1 DUP2 MSTORE PUSH1 0x20 ADD PUSH1 0x0 KECCAK256 SWAP1 POP DUP1 PUSH1 0x6 ADD PUSH1 0x0 SWAP1 SLOAD SWAP1 PUSH2 0x100 EXP SWAP1 DIV PUSH1 0xFF AND PUSH2 0xA50 JUMPI PUSH1 0x40 MLOAD PUSH32 0x8C379A000000000000000000000000000000000000000000000000000000000 DUP2 MSTORE PUSH1 0x4 ADD PUSH2 0xA47 SWAP1 PUSH2 0x25D8 JUMP JUMPDEST PUSH1 0x40 MLOAD DUP1 SWAP2 SUB SWAP1 REVERT JUMPDEST PUSH1 0x4 PUSH1 0x0 CALLER PUSH20 0xFFFFFFFFFFFFFFFFFFFFFFFFFFFFFFFFFFFFFFFF AND PUSH20 0xFFFFFFFFFFFFFFFFFFFFFFFFFFFFFFFFFFFFFFFF AND DUP2 MSTORE PUSH1 0x20 ADD SWAP1 DUP2 MSTORE PUSH1 0x20 ADD PUSH1 0x0 KECCAK256 PUSH1 0x4 ADD PUSH1 0x0 SWAP1 SLOAD SWAP1 PUSH2 0x100 EXP SWAP1 DIV PUSH1 0xFF AND PUSH2 0xADF JUMPI PUSH1 0x40 MLOAD PUSH32 0x8C379A000000000000000000000000000000000000000000000000000000000 DUP2 MSTORE PUSH1 0x4 ADD PUSH2 0xAD6 SWAP1 PUSH2 0x2644 JUMP JUMPDEST PUSH1 0x40 MLOAD DUP1 SWAP2 SUB SWAP1 REVERT JUMPDEST PUSH1 0x0 DUP2 PUSH1 0x3 ADD SLOAD SWAP1 POP PUSH1 0x0 PUSH1 0x64 PUSH1 0x50 DUP4 PUSH2 0xAF9 SWAP2 SWAP1 PUSH2 0x2381 JUMP JUMPDEST PUSH2 0xB03 SWAP2 SWAP1 PUSH2 0x2693 JUMP JUMPDEST SWAP1 POP PUSH1 0x0 DUP2 DUP4 PUSH2 0xB13 SWAP2 SWAP1 PUSH2 0x26C4 JUMP JUMPDEST SWAP1 POP PUSH1 0x1 PUSH1 0x0 SWAP1 SLOAD SWAP1 PUSH2 0x100 EXP SWAP1 DIV PUSH20 0xFFFFFFFFFFFFFFFFFFFFFFFFFFFFFFFFFFFFFFFF AND PUSH20 0xFFFFFFFFFFFFFFFFFFFFFFFFFFFFFFFFFFFFFFFF AND PUSH4 0x23B872DD CALLER DUP7 PUSH1 0x1 ADD PUSH1 0x0 SWAP1 SLOAD SWAP1 PUSH2 0x100 EXP SWAP1 DIV PUSH20 0xFFFFFFFFFFFFFFFFFFFFFFFFFFFFFFFFFFFFFFFF AND DUP6 PUSH1 0x40 MLOAD DUP5 PUSH4 0xFFFFFFFF AND PUSH1 0xE0 SHL DUP2 MSTORE PUSH1 0x4 ADD PUSH2 0xB98 SWAP4 SWAP3 SWAP2 SWAP1 PUSH2 0x2256 JUMP JUMPDEST PUSH1 0x20 PUSH1 0x40 MLOAD DUP1 DUP4 SUB DUP2 PUSH1 0x0 DUP8 GAS CALL ISZERO DUP1 ISZERO PUSH2 0xBB7 JUMPI RETURNDATASIZE PUSH1 0x0 DUP1 RETURNDATACOPY RETURNDATASIZE PUSH1 0x0 REVERT JUMPDEST POP POP POP POP PUSH1 0x40 MLOAD RETURNDATASIZE PUSH1 0x1F NOT PUSH1 0x1F DUP3 ADD AND DUP3 ADD DUP1 PUSH1 0x40 MSTORE POP DUP2 ADD SWAP1 PUSH2 0xBDB SWAP2 SWAP1 PUSH2 0x22B9 JUMP JUMPDEST PUSH2 0xC1A JUMPI PUSH1 0x40 MLOAD PUSH32 0x8C379A000000000000000000000000000000000000000000000000000000000 DUP2 MSTORE PUSH1 0x4 ADD PUSH2 0xC11 SWAP1 PUSH2 0x2744 JUMP JUMPDEST PUSH1 0x40 MLOAD DUP1 SWAP2 SUB SWAP1 REVERT JUMPDEST PUSH1 0x1 PUSH1 0x0 SWAP1 SLOAD SWAP1 PUSH2 0x100 EXP SWAP1 DIV PUSH20 0xFFFFFFFFFFFFFFFFFFFFFFFFFFFFFFFFFFFFFFFF AND PUSH20 0xFFFFFFFFFFFFFFFFFFFFFFFFFFFFFFFFFFFFFFFF AND PUSH4 0x23B872DD CALLER PUSH2 0xC61 PUSH2 0x10C4 JUMP JUMPDEST DUP5 PUSH1 0x40 MLOAD DUP5 PUSH4 0xFFFFFFFF AND PUSH1 0xE0 SHL DUP2 MSTORE PUSH1 0x4 ADD PUSH2 0xC80 SWAP4 SWAP3 SWAP2 SWAP1 PUSH2 0x2256 JUMP JUMPDEST PUSH1 0x20 PUSH1 0x40 MLOAD DUP1 DUP4 SUB DUP2 PUSH1 0x0 DUP8 GAS CALL ISZERO DUP1 ISZERO PUSH2 0xC9F JUMPI RETURNDATASIZE PUSH1 0x0 DUP1 RETURNDATACOPY RETURNDATASIZE PUSH1 0x0 REVERT JUMPDEST POP POP POP POP PUSH1 0x40 MLOAD RETURNDATASIZE PUSH1 0x1F NOT PUSH1 0x1F DUP3 ADD AND DUP3 ADD DUP1 PUSH1 0x40 MSTORE POP DUP2 ADD SWAP1 PUSH2 0xCC3 SWAP2 SWAP1 PUSH2 0x22B9 JUMP JUMPDEST PUSH2 0xD02 JUMPI PUSH1 0x40 MLOAD PUSH32 0x8C379A000000000000000000000000000000000000000000000000000000000 DUP2 MSTORE PUSH1 0x4 ADD PUSH2 0xCF9 SWAP1 PUSH2 0x27B0 JUMP JUMPDEST PUSH1 0x40 MLOAD DUP1 SWAP2 SUB SWAP1 REVERT JUMPDEST DUP4 PUSH1 0x5 ADD CALLER SWAP1 DUP1 PUSH1 0x1 DUP2 SLOAD ADD DUP1 DUP3 SSTORE DUP1 SWAP2 POP POP PUSH1 0x1 SWAP1 SUB SWAP1 PUSH1 0x0 MSTORE PUSH1 0x20 PUSH1 0x0 KECCAK256 ADD PUSH1 0x0 SWAP1 SWAP2 SWAP1 SWAP2 SWAP1 SWAP2 PUSH2 0x100 EXP DUP2 SLOAD DUP2 PUSH20 0xFFFFFFFFFFFFFFFFFFFFFFFFFFFFFFFFFFFFFFFF MUL NOT AND SWAP1 DUP4 PUSH20 0xFFFFFFFFFFFFFFFFFFFFFFFFFFFFFFFFFFFFFFFF AND MUL OR SWAP1 SSTORE POP PUSH1 0x6 PUSH1 0x0 CALLER PUSH20 0xFFFFFFFFFFFFFFFFFFFFFFFFFFFFFFFFFFFFFFFF AND PUSH20 0xFFFFFFFFFFFFFFFFFFFFFFFFFFFFFFFFFFFFFFFF AND DUP2 MSTORE PUSH1 0x20 ADD SWAP1 DUP2 MSTORE PUSH1 0x20 ADD PUSH1 0x0 KECCAK256 DUP6 SWAP1 DUP1 PUSH1 0x1 DUP2 SLOAD ADD DUP1 DUP3 SSTORE DUP1 SWAP2 POP POP PUSH1 0x1 SWAP1 SUB SWAP1 PUSH1 0x0 MSTORE PUSH1 0x20 PUSH1 0x0 KECCAK256 ADD PUSH1 0x0 SWAP1 SWAP2 SWAP1 SWAP2 SWAP1 SWAP2 POP SSTORE DUP5 CALLER PUSH20 0xFFFFFFFFFFFFFFFFFFFFFFFFFFFFFFFFFFFFFFFF AND PUSH32 0xB975C93C50AA94D9C86DD9FB379701DC0BDC2AA1C503BF46D9CF4F313E0F47FC DUP6 PUSH1 0x40 MLOAD PUSH2 0xE14 SWAP2 SWAP1 PUSH2 0x1FC5 JUMP JUMPDEST PUSH1 0x40 MLOAD DUP1 SWAP2 SUB SWAP1 LOG3 POP POP POP POP POP JUMP JUMPDEST PUSH2 0xE2D CALLER DUP4 PUSH2 0x920 JUMP JUMPDEST PUSH2 0xE6C JUMPI PUSH1 0x40 MLOAD PUSH32 0x8C379A000000000000000000000000000000000000000000000000000000000 DUP2 MSTORE PUSH1 0x4 ADD PUSH2 0xE63 SWAP1 PUSH2 0x281C JUMP JUMPDEST PUSH1 0x40 MLOAD DUP1 SWAP2 SUB SWAP1 REVERT JUMPDEST PUSH1 0x0 PUSH1 0x2 PUSH1 0x0 SWAP1 SLOAD SWAP1 PUSH2 0x100 EXP SWAP1 DIV PUSH20 0xFFFFFFFFFFFFFFFFFFFFFFFFFFFFFFFFFFFFFFFF AND PUSH20 0xFFFFFFFFFFFFFFFFFFFFFFFFFFFFFFFFFFFFFFFF AND PUSH4 0x712249F CALLER DUP5 PUSH1 0x40 MLOAD DUP4 PUSH4 0xFFFFFFFF AND PUSH1 0xE0 SHL DUP2 MSTORE PUSH1 0x4 ADD PUSH2 0xECB SWAP3 SWAP2 SWAP1 PUSH2 0x283C JUMP JUMPDEST PUSH1 0x20 PUSH1 0x40 MLOAD DUP1 DUP4 SUB DUP2 PUSH1 0x0 DUP8 GAS CALL ISZERO DUP1 ISZERO PUSH2 0xEEA JUMPI RETURNDATASIZE PUSH1 0x0 DUP1 RETURNDATACOPY RETURNDATASIZE PUSH1 0x0 REVERT JUMPDEST POP POP POP POP PUSH1 0x40 MLOAD RETURNDATASIZE PUSH1 0x1F NOT PUSH1 0x1F DUP3 ADD AND DUP3 ADD DUP1 PUSH1 0x40 MSTORE POP DUP2 ADD SWAP1 PUSH2 0xF0E SWAP2 SWAP1 PUSH2 0x2881 JUMP JUMPDEST SWAP1 POP PUSH1 0x4 PUSH1 0x0 CALLER PUSH20 0xFFFFFFFFFFFFFFFFFFFFFFFFFFFFFFFFFFFFFFFF AND PUSH20 0xFFFFFFFFFFFFFFFFFFFFFFFFFFFFFFFFFFFFFFFF AND DUP2 MSTORE PUSH1 0x20 ADD SWAP1 DUP2 MSTORE PUSH1 0x20 ADD PUSH1 0x0 KECCAK256 PUSH1 0x3 ADD PUSH1 0x0 DUP2 SLOAD DUP1 SWAP3 SWAP2 SWAP1 PUSH2 0xF63 SWAP1 PUSH2 0x2544 JUMP JUMPDEST SWAP2 SWAP1 POP SSTORE POP DUP3 CALLER PUSH20 0xFFFFFFFFFFFFFFFFFFFFFFFFFFFFFFFFFFFFFFFF AND PUSH32 0x69598479254610BC37273EC300171CD231505BEB1EE68D360CBD78C1BD818278 DUP4 PUSH1 0x40 MLOAD PUSH2 0xFAF SWAP2 SWAP1 PUSH2 0x1FC5 JUMP JUMPDEST PUSH1 0x40 MLOAD DUP1 SWAP2 SUB SWAP1 LOG3 POP POP POP JUMP JUMPDEST PUSH1 0x2 PUSH1 0x0 SWAP1 SLOAD SWAP1 PUSH2 0x100 EXP SWAP1 DIV PUSH20 0xFFFFFFFFFFFFFFFFFFFFFFFFFFFFFFFFFFFFFFFF AND DUP2 JUMP JUMPDEST PUSH1 0x7 PUSH1 0x20 MSTORE DUP2 PUSH1 0x0 MSTORE PUSH1 0x40 PUSH1 0x0 KECCAK256 DUP2 DUP2 SLOAD DUP2 LT PUSH2 0xFFE JUMPI PUSH1 0x0 DUP1 REVERT JUMPDEST SWAP1 PUSH1 0x0 MSTORE PUSH1 0x20 PUSH1 0x0 KECCAK256 ADD PUSH1 0x0 SWAP2 POP SWAP2 POP POP SLOAD DUP2 JUMP JUMPDEST PUSH2 0x101B PUSH2 0x190E JUMP JUMPDEST PUSH2 0x1025 PUSH1 0x0 PUSH2 0x1995 JUMP JUMPDEST JUMP JUMPDEST PUSH1 0x3 SLOAD DUP2 JUMP JUMPDEST PUSH1 0x60 PUSH1 0x6 PUSH1 0x0 DUP4 PUSH20 0xFFFFFFFFFFFFFFFFFFFFFFFFFFFFFFFFFFFFFFFF AND PUSH20 0xFFFFFFFFFFFFFFFFFFFFFFFFFFFFFFFFFFFFFFFF AND DUP2 MSTORE PUSH1 0x20 ADD SWAP1 DUP2 MSTORE PUSH1 0x20 ADD PUSH1 0x0 KECCAK256 DUP1 SLOAD DUP1 PUSH1 0x20 MUL PUSH1 0x20 ADD PUSH1 0x40 MLOAD SWAP1 DUP2 ADD PUSH1 0x40 MSTORE DUP1 SWAP3 SWAP2 SWAP1 DUP2 DUP2 MSTORE PUSH1 0x20 ADD DUP3 DUP1 SLOAD DUP1 ISZERO PUSH2 0x10B8 JUMPI PUSH1 0x20 MUL DUP3 ADD SWAP2 SWAP1 PUSH1 0x0 MSTORE PUSH1 0x20 PUSH1 0x0 KECCAK256 SWAP1 JUMPDEST DUP2 SLOAD DUP2 MSTORE PUSH1 0x20 ADD SWAP1 PUSH1 0x1 ADD SWAP1 DUP1 DUP4 GT PUSH2 0x10A4 JUMPI JUMPDEST POP POP POP POP POP SWAP1 POP SWAP2 SWAP1 POP JUMP JUMPDEST PUSH1 0x0 DUP1 PUSH1 0x0 SWAP1 SLOAD SWAP1 PUSH2 0x100 EXP SWAP1 DIV PUSH20 0xFFFFFFFFFFFFFFFFFFFFFFFFFFFFFFFFFFFFFFFF AND SWAP1 POP SWAP1 JUMP JUMPDEST PUSH1 0x6 PUSH1 0x20 MSTORE DUP2 PUSH1 0x0 MSTORE PUSH1 0x40 PUSH1 0x0 KECCAK256 DUP2 DUP2 SLOAD DUP2 LT PUSH2 0x1109 JUMPI PUSH1 0x0 DUP1 REVERT JUMPDEST SWAP1 PUSH1 0x0 MSTORE PUSH1 0x20 PUSH1 0x0 KECCAK256 ADD PUSH1 0x0 SWAP2 POP SWAP2 POP POP SLOAD DUP2 JUMP JUMPDEST PUSH1 0x5 PUSH1 0x20 MSTORE DUP1 PUSH1 0x0 MSTORE PUSH1 0x40 PUSH1 0x0 KECCAK256 PUSH1 0x0 SWAP2 POP SWAP1 POP DUP1 PUSH1 0x0 ADD SLOAD SWAP1 DUP1 PUSH1 0x1 ADD PUSH1 0x0 SWAP1 SLOAD SWAP1 PUSH2 0x100 EXP SWAP1 DIV PUSH20 0xFFFFFFFFFFFFFFFFFFFFFFFFFFFFFFFFFFFFFFFF AND SWAP1 DUP1 PUSH1 0x2 ADD DUP1 SLOAD PUSH2 0x116D SWAP1 PUSH2 0x24E4 JUMP JUMPDEST DUP1 PUSH1 0x1F ADD PUSH1 0x20 DUP1 SWAP2 DIV MUL PUSH1 0x20 ADD PUSH1 0x40 MLOAD SWAP1 DUP2 ADD PUSH1 0x40 MSTORE DUP1 SWAP3 SWAP2 SWAP1 DUP2 DUP2 MSTORE PUSH1 0x20 ADD DUP3 DUP1 SLOAD PUSH2 0x1199 SWAP1 PUSH2 0x24E4 JUMP JUMPDEST DUP1 ISZERO PUSH2 0x11E6 JUMPI DUP1 PUSH1 0x1F LT PUSH2 0x11BB JUMPI PUSH2 0x100 DUP1 DUP4 SLOAD DIV MUL DUP4 MSTORE SWAP2 PUSH1 0x20 ADD SWAP2 PUSH2 0x11E6 JUMP JUMPDEST DUP3 ADD SWAP2 SWAP1 PUSH1 0x0 MSTORE PUSH1 0x20 PUSH1 0x0 KECCAK256 SWAP1 JUMPDEST DUP2 SLOAD DUP2 MSTORE SWAP1 PUSH1 0x1 ADD SWAP1 PUSH1 0x20 ADD DUP1 DUP4 GT PUSH2 0x11C9 JUMPI DUP3 SWAP1 SUB PUSH1 0x1F AND DUP3 ADD SWAP2 JUMPDEST POP POP POP POP POP SWAP1 DUP1 PUSH1 0x3 ADD SLOAD SWAP1 DUP1 PUSH1 0x4 ADD DUP1 SLOAD PUSH2 0x1201 SWAP1 PUSH2 0x24E4 JUMP JUMPDEST DUP1 PUSH1 0x1F ADD PUSH1 0x20 DUP1 SWAP2 DIV MUL PUSH1 0x20 ADD PUSH1 0x40 MLOAD SWAP1 DUP2 ADD PUSH1 0x40 MSTORE DUP1 SWAP3 SWAP2 SWAP1 DUP2 DUP2 MSTORE PUSH1 0x20 ADD DUP3 DUP1 SLOAD PUSH2 0x122D SWAP1 PUSH2 0x24E4 JUMP JUMPDEST DUP1 ISZERO PUSH2 0x127A JUMPI DUP1 PUSH1 0x1F LT PUSH2 0x124F JUMPI PUSH2 0x100 DUP1 DUP4 SLOAD DIV MUL DUP4 MSTORE SWAP2 PUSH1 0x20 ADD SWAP2 PUSH2 0x127A JUMP JUMPDEST DUP3 ADD SWAP2 SWAP1 PUSH1 0x0 MSTORE PUSH1 0x20 PUSH1 0x0 KECCAK256 SWAP1 JUMPDEST DUP2 SLOAD DUP2 MSTORE SWAP1 PUSH1 0x1 ADD SWAP1 PUSH1 0x20 ADD DUP1 DUP4 GT PUSH2 0x125D JUMPI DUP3 SWAP1 SUB PUSH1 0x1F AND DUP3 ADD SWAP2 JUMPDEST POP POP POP POP POP SWAP1 DUP1 PUSH1 0x6 ADD PUSH1 0x0 SWAP1 SLOAD SWAP1 PUSH2 0x100 EXP SWAP1 DIV PUSH1 0xFF AND SWAP1 DUP1 PUSH1 0x7 ADD SLOAD SWAP1 POP DUP8 JUMP JUMPDEST PUSH1 0x0 PUSH1 0x3 PUSH1 0x0 DUP2 SLOAD DUP1 SWAP3 SWAP2 SWAP1 PUSH2 0x12B2 SWAP1 PUSH2 0x2544 JUMP JUMPDEST SWAP2 SWAP1 POP SSTORE SWAP1 POP PUSH1 0x0 PUSH1 0x5 PUSH1 0x0 DUP4 DUP2 MSTORE PUSH1 0x20 ADD SWAP1 DUP2 MSTORE PUSH1 0x20 ADD PUSH1 0x0 KECCAK256 SWAP1 POP DUP2 DUP2 PUSH1 0x0 ADD DUP2 SWAP1 SSTORE POP CALLER DUP2 PUSH1 0x1 ADD PUSH1 0x0 PUSH2 0x100 EXP DUP2 SLOAD DUP2 PUSH20 0xFFFFFFFFFFFFFFFFFFFFFFFFFFFFFFFFFFFFFFFF MUL NOT AND SWAP1 DUP4 PUSH20 0xFFFFFFFFFFFFFFFFFFFFFFFFFFFFFFFFFFFFFFFF AND MUL OR SWAP1 SSTORE POP DUP4 DUP2 PUSH1 0x2 ADD SWAP1 DUP2 PUSH2 0x132C SWAP2 SWAP1 PUSH2 0x2A50 JUMP JUMPDEST POP DUP3 DUP2 PUSH1 0x3 ADD DUP2 SWAP1 SSTORE POP DUP5 DUP2 PUSH1 0x4 ADD SWAP1 DUP2 PUSH2 0x1347 SWAP2 SWAP1 PUSH2 0x2A50 JUMP JUMPDEST POP PUSH1 0x1 DUP2 PUSH1 0x6 ADD PUSH1 0x0 PUSH2 0x100 EXP DUP2 SLOAD DUP2 PUSH1 0xFF MUL NOT AND SWAP1 DUP4 ISZERO ISZERO MUL OR SWAP1 SSTORE POP TIMESTAMP DUP2 PUSH1 0x7 ADD DUP2 SWAP1 SSTORE POP PUSH1 0x7 PUSH1 0x0 CALLER PUSH20 0xFFFFFFFFFFFFFFFFFFFFFFFFFFFFFFFFFFFFFFFF AND PUSH20 0xFFFFFFFFFFFFFFFFFFFFFFFFFFFFFFFFFFFFFFFF AND DUP2 MSTORE PUSH1 0x20 ADD SWAP1 DUP2 MSTORE PUSH1 0x20 ADD PUSH1 0x0 KECCAK256 DUP3 SWAP1 DUP1 PUSH1 0x1 DUP2 SLOAD ADD DUP1 DUP3 SSTORE DUP1 SWAP2 POP POP PUSH1 0x1 SWAP1 SUB SWAP1 PUSH1 0x0 MSTORE PUSH1 0x20 PUSH1 0x0 KECCAK256 ADD PUSH1 0x0 SWAP1 SWAP2 SWAP1 SWAP2 SWAP1 SWAP2 POP SSTORE CALLER PUSH20 0xFFFFFFFFFFFFFFFFFFFFFFFFFFFFFFFFFFFFFFFF AND DUP3 PUSH32 0x27B444394F1A7B0AA73D468FF76433D70CCBD1517709B5A2B06EAF249A4DDCF0 DUP7 DUP7 PUSH1 0x40 MLOAD PUSH2 0x141D SWAP3 SWAP2 SWAP1 PUSH2 0x2B22 JUMP JUMPDEST PUSH1 0x40 MLOAD DUP1 SWAP2 SUB SWAP1 LOG3 POP POP POP POP POP JUMP JUMPDEST PUSH1 0x4 PUSH1 0x20 MSTORE DUP1 PUSH1 0x0 MSTORE PUSH1 0x40 PUSH1 0x0 KECCAK256 PUSH1 0x0 SWAP2 POP SWAP1 POP DUP1 PUSH1 0x0 ADD PUSH1 0x0 SWAP1 SLOAD SWAP1 PUSH2 0x100 EXP SWAP1 DIV PUSH20 0xFFFFFFFFFFFFFFFFFFFFFFFFFFFFFFFFFFFFFFFF AND SWAP1 DUP1 PUSH1 0x1 ADD SLOAD SWAP1 DUP1 PUSH1 0x2 ADD SLOAD SWAP1 DUP1 PUSH1 0x3 ADD SLOAD SWAP1 DUP1 PUSH1 0x4 ADD PUSH1 0x0 SWAP1 SLOAD SWAP1 PUSH2 0x100 EXP SWAP1 DIV PUSH1 0xFF AND SWAP1 POP DUP6 JUMP JUMPDEST DUP1 PUSH1 0x8 PUSH1 0x0 CALLER PUSH20 0xFFFFFFFFFFFFFFFFFFFFFFFFFFFFFFFFFFFFFFFF AND PUSH20 0xFFFFFFFFFFFFFFFFFFFFFFFFFFFFFFFFFFFFFFFF AND DUP2 MSTORE PUSH1 0x20 ADD SWAP1 DUP2 MSTORE PUSH1 0x20 ADD PUSH1 0x0 KECCAK256 SWAP1 DUP2 PUSH2 0x14DB SWAP2 SWAP1 PUSH2 0x2A50 JUMP JUMPDEST POP POP JUMP JUMPDEST PUSH1 0x4 PUSH1 0x0 CALLER PUSH20 0xFFFFFFFFFFFFFFFFFFFFFFFFFFFFFFFFFFFFFFFF AND PUSH20 0xFFFFFFFFFFFFFFFFFFFFFFFFFFFFFFFFFFFFFFFF AND DUP2 MSTORE PUSH1 0x20 ADD SWAP1 DUP2 MSTORE PUSH1 0x20 ADD PUSH1 0x0 KECCAK256 PUSH1 0x4 ADD PUSH1 0x0 SWAP1 SLOAD SWAP1 PUSH2 0x100 EXP SWAP1 DIV PUSH1 0xFF AND ISZERO PUSH2 0x156F JUMPI PUSH1 0x40 MLOAD PUSH32 0x8C379A000000000000000000000000000000000000000000000000000000000 DUP2 MSTORE PUSH1 0x4 ADD PUSH2 0x1566 SWAP1 PUSH2 0x2B9E JUMP JUMPDEST PUSH1 0x40 MLOAD DUP1 SWAP2 SUB SWAP1 REVERT JUMPDEST PUSH1 0x0 PUSH8 0xDE0B6B3A7640000 DUP3 PUSH2 0x1585 SWAP2 SWAP1 PUSH2 0x2381 JUMP JUMPDEST SWAP1 POP PUSH1 0x40 MLOAD DUP1 PUSH1 0xA0 ADD PUSH1 0x40 MSTORE DUP1 CALLER PUSH20 0xFFFFFFFFFFFFFFFFFFFFFFFFFFFFFFFFFFFFFFFF AND DUP2 MSTORE PUSH1 0x20 ADD DUP4 DUP2 MSTORE PUSH1 0x20 ADD DUP3 DUP2 MSTORE PUSH1 0x20 ADD PUSH1 0x0 DUP2 MSTORE PUSH1 0x20 ADD PUSH1 0x1 ISZERO ISZERO DUP2 MSTORE POP PUSH1 0x4 PUSH1 0x0 CALLER PUSH20 0xFFFFFFFFFFFFFFFFFFFFFFFFFFFFFFFFFFFFFFFF AND PUSH20 0xFFFFFFFFFFFFFFFFFFFFFFFFFFFFFFFFFFFFFFFF AND DUP2 MSTORE PUSH1 0x20 ADD SWAP1 DUP2 MSTORE PUSH1 0x20 ADD PUSH1 0x0 KECCAK256 PUSH1 0x0 DUP3 ADD MLOAD DUP2 PUSH1 0x0 ADD PUSH1 0x0 PUSH2 0x100 EXP DUP2 SLOAD DUP2 PUSH20 0xFFFFFFFFFFFFFFFFFFFFFFFFFFFFFFFFFFFFFFFF MUL NOT AND SWAP1 DUP4 PUSH20 0xFFFFFFFFFFFFFFFFFFFFFFFFFFFFFFFFFFFFFFFF AND MUL OR SWAP1 SSTORE POP PUSH1 0x20 DUP3 ADD MLOAD DUP2 PUSH1 0x1 ADD SSTORE PUSH1 0x40 DUP3 ADD MLOAD DUP2 PUSH1 0x2 ADD SSTORE PUSH1 0x60 DUP3 ADD MLOAD DUP2 PUSH1 0x3 ADD SSTORE PUSH1 0x80 DUP3 ADD MLOAD DUP2 PUSH1 0x4 ADD PUSH1 0x0 PUSH2 0x100 EXP DUP2 SLOAD DUP2 PUSH1 0xFF MUL NOT AND SWAP1 DUP4 ISZERO ISZERO MUL OR SWAP1 SSTORE POP SWAP1 POP POP PUSH1 0x1 PUSH1 0x0 SWAP1 SLOAD SWAP1 PUSH2 0x100 EXP SWAP1 DIV PUSH20 0xFFFFFFFFFFFFFFFFFFFFFFFFFFFFFFFFFFFFFFFF AND PUSH20 0xFFFFFFFFFFFFFFFFFFFFFFFFFFFFFFFFFFFFFFFF AND PUSH4 0xA9059CBB CALLER DUP4 PUSH1 0x40 MLOAD DUP4 PUSH4 0xFFFFFFFF AND PUSH1 0xE0 SHL DUP2 MSTORE PUSH1 0x4 ADD PUSH2 0x16EC SWAP3 SWAP2 SWAP1 PUSH2 0x23F7 JUMP JUMPDEST PUSH1 0x20 PUSH1 0x40 MLOAD DUP1 DUP4 SUB DUP2 PUSH1 0x0 DUP8 GAS CALL ISZERO DUP1 ISZERO PUSH2 0x170B JUMPI RETURNDATASIZE PUSH1 0x0 DUP1 RETURNDATACOPY RETURNDATASIZE PUSH1 0x0 REVERT JUMPDEST POP POP POP POP PUSH1 0x40 MLOAD RETURNDATASIZE PUSH1 0x1F NOT PUSH1 0x1F DUP3 ADD AND DUP3 ADD DUP1 PUSH1 0x40 MSTORE POP DUP2 ADD SWAP1 PUSH2 0x172F SWAP2 SWAP1 PUSH2 0x22B9 JUMP JUMPDEST PUSH2 0x176E JUMPI PUSH1 0x40 MLOAD PUSH32 0x8C379A000000000000000000000000000000000000000000000000000000000 DUP2 MSTORE PUSH1 0x4 ADD PUSH2 0x1765 SWAP1 PUSH2 0x246C JUMP JUMPDEST PUSH1 0x40 MLOAD DUP1 SWAP2 SUB SWAP1 REVERT JUMPDEST CALLER PUSH20 0xFFFFFFFFFFFFFFFFFFFFFFFFFFFFFFFFFFFFFFFF AND PUSH32 0x2324ACB3FE79183632CEECBAE105261C5D54E95AFD1CFBE33EBFFC2B05652FD2 DUP4 DUP4 PUSH1 0x40 MLOAD PUSH2 0x17B6 SWAP3 SWAP2 SWAP1 PUSH2 0x248C JUMP JUMPDEST PUSH1 0x40 MLOAD DUP1 SWAP2 SUB SWAP1 LOG2 POP POP JUMP JUMPDEST PUSH1 0x1 PUSH1 0x0 SWAP1 SLOAD SWAP1 PUSH2 0x100 EXP SWAP1 DIV PUSH20 0xFFFFFFFFFFFFFFFFFFFFFFFFFFFFFFFFFFFFFFFF AND DUP2 JUMP JUMPDEST PUSH1 0x8 PUSH1 0x20 MSTORE DUP1 PUSH1 0x0 MSTORE PUSH1 0x40 PUSH1 0x0 KECCAK256 PUSH1 0x0 SWAP2 POP SWAP1 POP DUP1 SLOAD PUSH2 0x1807 SWAP1 PUSH2 0x24E4 JUMP JUMPDEST DUP1 PUSH1 0x1F ADD PUSH1 0x20 DUP1 SWAP2 DIV MUL PUSH1 0x20 ADD PUSH1 0x40 MLOAD SWAP1 DUP2 ADD PUSH1 0x40 MSTORE DUP1 SWAP3 SWAP2 SWAP1 DUP2 DUP2 MSTORE PUSH1 0x20 ADD DUP3 DUP1 SLOAD PUSH2 0x1833 SWAP1 PUSH2 0x24E4 JUMP JUMPDEST DUP1 ISZERO PUSH2 0x1880 JUMPI DUP1 PUSH1 0x1F LT PUSH2 0x1855 JUMPI PUSH2 0x100 DUP1 DUP4 SLOAD DIV MUL DUP4 MSTORE SWAP2 PUSH1 0x20 ADD SWAP2 PUSH2 0x1880 JUMP JUMPDEST DUP3 ADD SWAP2 SWAP1 PUSH1 0x0 MSTORE PUSH1 0x20 PUSH1 0x0 KECCAK256 SWAP1 JUMPDEST DUP2 SLOAD DUP2 MSTORE SWAP1 PUSH1 0x1 ADD SWAP1 PUSH1 0x20 ADD DUP1 DUP4 GT PUSH2 0x1863 JUMPI DUP3 SWAP1 SUB PUSH1 0x1F AND DUP3 ADD SWAP2 JUMPDEST POP POP POP POP POP DUP2 JUMP JUMPDEST PUSH2 0x1890 PUSH2 0x190E JUMP JUMPDEST PUSH1 0x0 PUSH20 0xFFFFFFFFFFFFFFFFFFFFFFFFFFFFFFFFFFFFFFFF AND DUP2 PUSH20 0xFFFFFFFFFFFFFFFFFFFFFFFFFFFFFFFFFFFFFFFF AND SUB PUSH2 0x1902 JUMPI PUSH1 0x0 PUSH1 0x40 MLOAD PUSH32 0x1E4FBDF700000000000000000000000000000000000000000000000000000000 DUP2 MSTORE PUSH1 0x4 ADD PUSH2 0x18F9 SWAP2 SWAP1 PUSH2 0x1FEF JUMP JUMPDEST PUSH1 0x40 MLOAD DUP1 SWAP2 SUB SWAP1 REVERT JUMPDEST PUSH2 0x190B DUP2 PUSH2 0x1995 JUMP JUMPDEST POP JUMP JUMPDEST PUSH2 0x1916 PUSH2 0x1A59 JUMP JUMPDEST PUSH20 0xFFFFFFFFFFFFFFFFFFFFFFFFFFFFFFFFFFFFFFFF AND PUSH2 0x1934 PUSH2 0x10C4 JUMP JUMPDEST PUSH20 0xFFFFFFFFFFFFFFFFFFFFFFFFFFFFFFFFFFFFFFFF AND EQ PUSH2 0x1993 JUMPI PUSH2 0x1957 PUSH2 0x1A59 JUMP JUMPDEST PUSH1 0x40 MLOAD PUSH32 0x118CDAA700000000000000000000000000000000000000000000000000000000 DUP2 MSTORE PUSH1 0x4 ADD PUSH2 0x198A SWAP2 SWAP1 PUSH2 0x1FEF JUMP JUMPDEST PUSH1 0x40 MLOAD DUP1 SWAP2 SUB SWAP1 REVERT JUMPDEST JUMP JUMPDEST PUSH1 0x0 DUP1 PUSH1 0x0 SWAP1 SLOAD SWAP1 PUSH2 0x100 EXP SWAP1 DIV PUSH20 0xFFFFFFFFFFFFFFFFFFFFFFFFFFFFFFFFFFFFFFFF AND SWAP1 POP DUP2 PUSH1 0x0 DUP1 PUSH2 0x100 EXP DUP2 SLOAD DUP2 PUSH20 0xFFFFFFFFFFFFFFFFFFFFFFFFFFFFFFFFFFFFFFFF MUL NOT AND SWAP1 DUP4 PUSH20 0xFFFFFFFFFFFFFFFFFFFFFFFFFFFFFFFFFFFFFFFF AND MUL OR SWAP1 SSTORE POP DUP2 PUSH20 0xFFFFFFFFFFFFFFFFFFFFFFFFFFFFFFFFFFFFFFFF AND DUP2 PUSH20 0xFFFFFFFFFFFFFFFFFFFFFFFFFFFFFFFFFFFFFFFF AND PUSH32 0x8BE0079C531659141344CD1FD0A4F28419497F9722A3DAAFE3B4186F6B6457E0 PUSH1 0x40 MLOAD PUSH1 0x40 MLOAD DUP1 SWAP2 SUB SWAP1 LOG3 POP POP JUMP JUMPDEST PUSH1 0x0 CALLER SWAP1 POP SWAP1 JUMP JUMPDEST PUSH1 0x0 PUSH1 0x40 MLOAD SWAP1 POP SWAP1 JUMP JUMPDEST PUSH1 0x0 DUP1 REVERT JUMPDEST PUSH1 0x0 DUP1 REVERT JUMPDEST PUSH1 0x0 DUP2 SWAP1 POP SWAP2 SWAP1 POP JUMP JUMPDEST PUSH2 0x1A88 DUP2 PUSH2 0x1A75 JUMP JUMPDEST DUP2 EQ PUSH2 0x1A93 JUMPI PUSH1 0x0 DUP1 REVERT JUMPDEST POP JUMP JUMPDEST PUSH1 0x0 DUP2 CALLDATALOAD SWAP1 POP PUSH2 0x1AA5 DUP2 PUSH2 0x1A7F JUMP JUMPDEST SWAP3 SWAP2 POP POP JUMP JUMPDEST PUSH1 0x0 DUP1 PUSH1 0x40 DUP4 DUP6 SUB SLT ISZERO PUSH2 0x1AC2 JUMPI PUSH2 0x1AC1 PUSH2 0x1A6B JUMP JUMPDEST JUMPDEST PUSH1 0x0 PUSH2 0x1AD0 DUP6 DUP3 DUP7 ADD PUSH2 0x1A96 JUMP JUMPDEST SWAP3 POP POP PUSH1 0x20 PUSH2 0x1AE1 DUP6 DUP3 DUP7 ADD PUSH2 0x1A96 JUMP JUMPDEST SWAP2 POP POP SWAP3 POP SWAP3 SWAP1 POP JUMP JUMPDEST PUSH1 0x0 PUSH20 0xFFFFFFFFFFFFFFFFFFFFFFFFFFFFFFFFFFFFFFFF DUP3 AND SWAP1 POP SWAP2 SWAP1 POP JUMP JUMPDEST PUSH1 0x0 PUSH2 0x1B16 DUP3 PUSH2 0x1AEB JUMP JUMPDEST SWAP1 POP SWAP2 SWAP1 POP JUMP JUMPDEST PUSH2 0x1B26 DUP2 PUSH2 0x1B0B JUMP JUMPDEST DUP2 EQ PUSH2 0x1B31 JUMPI PUSH1 0x0 DUP1 REVERT JUMPDEST POP JUMP JUMPDEST PUSH1 0x0 DUP2 CALLDATALOAD SWAP1 POP PUSH2 0x1B43 DUP2 PUSH2 0x1B1D JUMP JUMPDEST SWAP3 SWAP2 POP POP JUMP JUMPDEST PUSH1 0x0 PUSH1 0x20 DUP3 DUP5 SUB SLT ISZERO PUSH2 0x1B5F JUMPI PUSH2 0x1B5E PUSH2 0x1A6B JUMP JUMPDEST JUMPDEST PUSH1 0x0 PUSH2 0x1B6D DUP5 DUP3 DUP6 ADD PUSH2 0x1B34 JUMP JUMPDEST SWAP2 POP POP SWAP3 SWAP2 POP POP JUMP JUMPDEST PUSH1 0x0 DUP2 MLOAD SWAP1 POP SWAP2 SWAP1 POP JUMP JUMPDEST PUSH1 0x0 DUP3 DUP3 MSTORE PUSH1 0x20 DUP3 ADD SWAP1 POP SWAP3 SWAP2 POP POP JUMP JUMPDEST PUSH1 0x0 JUMPDEST DUP4 DUP2 LT ISZERO PUSH2 0x1BB0 JUMPI DUP1 DUP3 ADD MLOAD DUP2 DUP5 ADD MSTORE PUSH1 0x20 DUP2 ADD SWAP1 POP PUSH2 0x1B95 JUMP JUMPDEST PUSH1 0x0 DUP5 DUP5 ADD MSTORE POP POP POP POP JUMP JUMPDEST PUSH1 0x0 PUSH1 0x1F NOT PUSH1 0x1F DUP4 ADD AND SWAP1 POP SWAP2 SWAP1 POP JUMP JUMPDEST PUSH1 0x0 PUSH2 0x1BD8 DUP3 PUSH2 0x1B76 JUMP JUMPDEST PUSH2 0x1BE2 DUP2 DUP6 PUSH2 0x1B81 JUMP JUMPDEST SWAP4 POP PUSH2 0x1BF2 DUP2 DUP6 PUSH1 0x20 DUP7 ADD PUSH2 0x1B92 JUMP JUMPDEST PUSH2 0x1BFB DUP2 PUSH2 0x1BBC JUMP JUMPDEST DUP5 ADD SWAP2 POP POP SWAP3 SWAP2 POP POP JUMP JUMPDEST PUSH1 0x0 PUSH1 0x20 DUP3 ADD SWAP1 POP DUP2 DUP2 SUB PUSH1 0x0 DUP4 ADD MSTORE PUSH2 0x1C20 DUP2 DUP5 PUSH2 0x1BCD JUMP JUMPDEST SWAP1 POP SWAP3 SWAP2 POP POP JUMP JUMPDEST PUSH1 0x0 DUP2 MLOAD SWAP1 POP SWAP2 SWAP1 POP JUMP JUMPDEST PUSH1 0x0 DUP3 DUP3 MSTORE PUSH1 0x20 DUP3 ADD SWAP1 POP SWAP3 SWAP2 POP POP JUMP JUMPDEST PUSH1 0x0 DUP2 SWAP1 POP PUSH1 0x20 DUP3 ADD SWAP1 POP SWAP2 SWAP1 POP JUMP JUMPDEST PUSH2 0x1C5D DUP2 PUSH2 0x1A75 JUMP JUMPDEST DUP3 MSTORE POP POP JUMP JUMPDEST PUSH1 0x0 PUSH2 0x1C6F DUP4 DUP4 PUSH2 0x1C54 JUMP JUMPDEST PUSH1 0x20 DUP4 ADD SWAP1 POP SWAP3 SWAP2 POP POP JUMP JUMPDEST PUSH1 0x0 PUSH1 0x20 DUP3 ADD SWAP1 POP SWAP2 SWAP1 POP JUMP JUMPDEST PUSH1 0x0 PUSH2 0x1C93 DUP3 PUSH2 0x1C28 JUMP JUMPDEST PUSH2 0x1C9D DUP2 DUP6 PUSH2 0x1C33 JUMP JUMPDEST SWAP4 POP PUSH2 0x1CA8 DUP4 PUSH2 0x1C44 JUMP JUMPDEST DUP1 PUSH1 0x0 JUMPDEST DUP4 DUP2 LT ISZERO PUSH2 0x1CD9 JUMPI DUP2 MLOAD PUSH2 0x1CC0 DUP9 DUP3 PUSH2 0x1C63 JUMP JUMPDEST SWAP8 POP PUSH2 0x1CCB DUP4 PUSH2 0x1C7B JUMP JUMPDEST SWAP3 POP POP PUSH1 0x1 DUP2 ADD SWAP1 POP PUSH2 0x1CAC JUMP JUMPDEST POP DUP6 SWAP4 POP POP POP POP SWAP3 SWAP2 POP POP JUMP JUMPDEST PUSH1 0x0 PUSH1 0x20 DUP3 ADD SWAP1 POP DUP2 DUP2 SUB PUSH1 0x0 DUP4 ADD MSTORE PUSH2 0x1D00 DUP2 DUP5 PUSH2 0x1C88 JUMP JUMPDEST SWAP1 POP SWAP3 SWAP2 POP POP JUMP JUMPDEST PUSH1 0x0 DUP1 PUSH1 0x40 DUP4 DUP6 SUB SLT ISZERO PUSH2 0x1D1F JUMPI PUSH2 0x1D1E PUSH2 0x1A6B JUMP JUMPDEST JUMPDEST PUSH1 0x0 PUSH2 0x1D2D DUP6 DUP3 DUP7 ADD PUSH2 0x1B34 JUMP JUMPDEST SWAP3 POP POP PUSH1 0x20 PUSH2 0x1D3E DUP6 DUP3 DUP7 ADD PUSH2 0x1A96 JUMP JUMPDEST SWAP2 POP POP SWAP3 POP SWAP3 SWAP1 POP JUMP JUMPDEST PUSH1 0x0 DUP2 ISZERO ISZERO SWAP1 POP SWAP2 SWAP1 POP JUMP JUMPDEST PUSH2 0x1D5D DUP2 PUSH2 0x1D48 JUMP JUMPDEST DUP3 MSTORE POP POP JUMP JUMPDEST PUSH1 0x0 PUSH1 0x20 DUP3 ADD SWAP1 POP PUSH2 0x1D78 PUSH1 0x0 DUP4 ADD DUP5 PUSH2 0x1D54 JUMP JUMPDEST SWAP3 SWAP2 POP POP JUMP JUMPDEST PUSH1 0x0 PUSH1 0x20 DUP3 DUP5 SUB SLT ISZERO PUSH2 0x1D94 JUMPI PUSH2 0x1D93 PUSH2 0x1A6B JUMP JUMPDEST JUMPDEST PUSH1 0x0 PUSH2 0x1DA2 DUP5 DUP3 DUP6 ADD PUSH2 0x1A96 JUMP JUMPDEST SWAP2 POP POP SWAP3 SWAP2 POP POP JUMP JUMPDEST PUSH1 0x0 DUP1 REVERT JUMPDEST PUSH1 0x0 DUP1 REVERT JUMPDEST PUSH32 0x4E487B7100000000000000000000000000000000000000000000000000000000 PUSH1 0x0 MSTORE PUSH1 0x41 PUSH1 0x4 MSTORE PUSH1 0x24 PUSH1 0x0 REVERT JUMPDEST PUSH2 0x1DED DUP3 PUSH2 0x1BBC JUMP JUMPDEST DUP2 ADD DUP2 DUP2 LT PUSH8 0xFFFFFFFFFFFFFFFF DUP3 GT OR ISZERO PUSH2 0x1E0C JUMPI PUSH2 0x1E0B PUSH2 0x1DB5 JUMP JUMPDEST JUMPDEST DUP1 PUSH1 0x40 MSTORE POP POP POP JUMP JUMPDEST PUSH1 0x0 PUSH2 0x1E1F PUSH2 0x1A61 JUMP JUMPDEST SWAP1 POP PUSH2 0x1E2B DUP3 DUP3 PUSH2 0x1DE4 JUMP JUMPDEST SWAP2 SWAP1 POP JUMP JUMPDEST PUSH1 0x0 PUSH8 0xFFFFFFFFFFFFFFFF DUP3 GT ISZERO PUSH2 0x1E4B JUMPI PUSH2 0x1E4A PUSH2 0x1DB5 JUMP JUMPDEST JUMPDEST PUSH2 0x1E54 DUP3 PUSH2 0x1BBC JUMP JUMPDEST SWAP1 POP PUSH1 0x20 DUP2 ADD SWAP1 POP SWAP2 SWAP1 POP JUMP JUMPDEST DUP3 DUP2 DUP4 CALLDATACOPY PUSH1 0x0 DUP4 DUP4 ADD MSTORE POP POP POP JUMP JUMPDEST PUSH1 0x0 PUSH2 0x1E83 PUSH2 0x1E7E DUP5 PUSH2 0x1E30 JUMP JUMPDEST PUSH2 0x1E15 JUMP JUMPDEST SWAP1 POP DUP3 DUP2 MSTORE PUSH1 0x20 DUP2 ADD DUP5 DUP5 DUP5 ADD GT ISZERO PUSH2 0x1E9F JUMPI PUSH2 0x1E9E PUSH2 0x1DB0 JUMP JUMPDEST JUMPDEST PUSH2 0x1EAA DUP5 DUP3 DUP6 PUSH2 0x1E61 JUMP JUMPDEST POP SWAP4 SWAP3 POP POP POP JUMP JUMPDEST PUSH1 0x0 DUP3 PUSH1 0x1F DUP4 ADD SLT PUSH2 0x1EC7 JUMPI PUSH2 0x1EC6 PUSH2 0x1DAB JUMP JUMPDEST JUMPDEST DUP2 CALLDATALOAD PUSH2 0x1ED7 DUP5 DUP3 PUSH1 0x20 DUP7 ADD PUSH2 0x1E70 JUMP JUMPDEST SWAP2 POP POP SWAP3 SWAP2 POP POP JUMP JUMPDEST PUSH1 0x0 DUP1 PUSH1 0x40 DUP4 DUP6 SUB SLT ISZERO PUSH2 0x1EF7 JUMPI PUSH2 0x1EF6 PUSH2 0x1A6B JUMP JUMPDEST JUMPDEST PUSH1 0x0 PUSH2 0x1F05 DUP6 DUP3 DUP7 ADD PUSH2 0x1A96 JUMP JUMPDEST SWAP3 POP POP PUSH1 0x20 DUP4 ADD CALLDATALOAD PUSH8 0xFFFFFFFFFFFFFFFF DUP2 GT ISZERO PUSH2 0x1F26 JUMPI PUSH2 0x1F25 PUSH2 0x1A70 JUMP JUMPDEST JUMPDEST PUSH2 0x1F32 DUP6 DUP3 DUP7 ADD PUSH2 0x1EB2 JUMP JUMPDEST SWAP2 POP POP SWAP3 POP SWAP3 SWAP1 POP JUMP JUMPDEST PUSH1 0x0 DUP2 SWAP1 POP SWAP2 SWAP1 POP JUMP JUMPDEST PUSH1 0x0 PUSH2 0x1F61 PUSH2 0x1F5C PUSH2 0x1F57 DUP5 PUSH2 0x1AEB JUMP JUMPDEST PUSH2 0x1F3C JUMP JUMPDEST PUSH2 0x1AEB JUMP JUMPDEST SWAP1 POP SWAP2 SWAP1 POP JUMP JUMPDEST PUSH1 0x0 PUSH2 0x1F73 DUP3 PUSH2 0x1F46 JUMP JUMPDEST SWAP1 POP SWAP2 SWAP1 POP JUMP JUMPDEST PUSH1 0x0 PUSH2 0x1F85 DUP3 PUSH2 0x1F68 JUMP JUMPDEST SWAP1 POP SWAP2 SWAP1 POP JUMP JUMPDEST PUSH2 0x1F95 DUP2 PUSH2 0x1F7A JUMP JUMPDEST DUP3 MSTORE POP POP JUMP JUMPDEST PUSH1 0x0 PUSH1 0x20 DUP3 ADD SWAP1 POP PUSH2 0x1FB0 PUSH1 0x0 DUP4 ADD DUP5 PUSH2 0x1F8C JUMP JUMPDEST SWAP3 SWAP2 POP POP JUMP JUMPDEST PUSH2 0x1FBF DUP2 PUSH2 0x1A75 JUMP JUMPDEST DUP3 MSTORE POP POP JUMP JUMPDEST PUSH1 0x0 PUSH1 0x20 DUP3 ADD SWAP1 POP PUSH2 0x1FDA PUSH1 0x0 DUP4 ADD DUP5 PUSH2 0x1FB6 JUMP JUMPDEST SWAP3 SWAP2 POP POP JUMP JUMPDEST PUSH2 0x1FE9 DUP2 PUSH2 0x1B0B JUMP JUMPDEST DUP3 MSTORE POP POP JUMP JUMPDEST PUSH1 0x0 PUSH1 0x20 DUP3 ADD SWAP1 POP PUSH2 0x2004 PUSH1 0x0 DUP4 ADD DUP5 PUSH2 0x1FE0 JUMP JUMPDEST SWAP3 SWAP2 POP POP JUMP JUMPDEST PUSH1 0x0 PUSH1 0xE0 DUP3 ADD SWAP1 POP PUSH2 0x201F PUSH1 0x0 DUP4 ADD DUP11 PUSH2 0x1FB6 JUMP JUMPDEST PUSH2 0x202C PUSH1 0x20 DUP4 ADD DUP10 PUSH2 0x1FE0 JUMP JUMPDEST DUP2 DUP2 SUB PUSH1 0x40 DUP4 ADD MSTORE PUSH2 0x203E DUP2 DUP9 PUSH2 0x1BCD JUMP JUMPDEST SWAP1 POP PUSH2 0x204D PUSH1 0x60 DUP4 ADD DUP8 PUSH2 0x1FB6 JUMP JUMPDEST DUP2 DUP2 SUB PUSH1 0x80 DUP4 ADD MSTORE PUSH2 0x205F DUP2 DUP7 PUSH2 0x1BCD JUMP JUMPDEST SWAP1 POP PUSH2 0x206E PUSH1 0xA0 DUP4 ADD DUP6 PUSH2 0x1D54 JUMP JUMPDEST PUSH2 0x207B PUSH1 0xC0 DUP4 ADD DUP5 PUSH2 0x1FB6 JUMP JUMPDEST SWAP9 SWAP8 POP POP POP POP POP POP POP POP JUMP JUMPDEST PUSH1 0x0 DUP1 PUSH1 0x0 PUSH1 0x60 DUP5 DUP7 SUB SLT ISZERO PUSH2 0x20A0 JUMPI PUSH2 0x209F PUSH2 0x1A6B JUMP JUMPDEST JUMPDEST PUSH1 0x0 DUP5 ADD CALLDATALOAD PUSH8 0xFFFFFFFFFFFFFFFF DUP2 GT ISZERO PUSH2 0x20BE JUMPI PUSH2 0x20BD PUSH2 0x1A70 JUMP JUMPDEST JUMPDEST PUSH2 0x20CA DUP7 DUP3 DUP8 ADD PUSH2 0x1EB2 JUMP JUMPDEST SWAP4 POP POP PUSH1 0x20 DUP5 ADD CALLDATALOAD PUSH8 0xFFFFFFFFFFFFFFFF DUP2 GT ISZERO PUSH2 0x20EB JUMPI PUSH2 0x20EA PUSH2 0x1A70 JUMP JUMPDEST JUMPDEST PUSH2 0x20F7 DUP7 DUP3 DUP8 ADD PUSH2 0x1EB2 JUMP JUMPDEST SWAP3 POP POP PUSH1 0x40 PUSH2 0x2108 DUP7 DUP3 DUP8 ADD PUSH2 0x1A96 JUMP JUMPDEST SWAP2 POP POP SWAP3 POP SWAP3 POP SWAP3 JUMP JUMPDEST PUSH1 0x0 PUSH1 0xA0 DUP3 ADD SWAP1 POP PUSH2 0x2127 PUSH1 0x0 DUP4 ADD DUP9 PUSH2 0x1FE0 JUMP JUMPDEST PUSH2 0x2134 PUSH1 0x20 DUP4 ADD DUP8 PUSH2 0x1FB6 JUMP JUMPDEST PUSH2 0x2141 PUSH1 0x40 DUP4 ADD DUP7 PUSH2 0x1FB6 JUMP JUMPDEST PUSH2 0x214E PUSH1 0x60 DUP4 ADD DUP6 PUSH2 0x1FB6 JUMP JUMPDEST PUSH2 0x215B PUSH1 0x80 DUP4 ADD DUP5 PUSH2 0x1D54 JUMP JUMPDEST SWAP7 SWAP6 POP POP POP POP POP POP JUMP JUMPDEST PUSH1 0x0 PUSH1 0x20 DUP3 DUP5 SUB SLT ISZERO PUSH2 0x217B JUMPI PUSH2 0x217A PUSH2 0x1A6B JUMP JUMPDEST JUMPDEST PUSH1 0x0 DUP3 ADD CALLDATALOAD PUSH8 0xFFFFFFFFFFFFFFFF DUP2 GT ISZERO PUSH2 0x2199 JUMPI PUSH2 0x2198 PUSH2 0x1A70 JUMP JUMPDEST JUMPDEST PUSH2 0x21A5 DUP5 DUP3 DUP6 ADD PUSH2 0x1EB2 JUMP JUMPDEST SWAP2 POP POP SWAP3 SWAP2 POP POP JUMP JUMPDEST PUSH1 0x0 PUSH2 0x21B9 DUP3 PUSH2 0x1F68 JUMP JUMPDEST SWAP1 POP SWAP2 SWAP1 POP JUMP JUMPDEST PUSH2 0x21C9 DUP2 PUSH2 0x21AE JUMP JUMPDEST DUP3 MSTORE POP POP JUMP JUMPDEST PUSH1 0x0 PUSH1 0x20 DUP3 ADD SWAP1 POP PUSH2 0x21E4 PUSH1 0x0 DUP4 ADD DUP5 PUSH2 0x21C0 JUMP JUMPDEST SWAP3 SWAP2 POP POP JUMP JUMPDEST PUSH32 0x496E697469616C20746573742072657175697265640000000000000000000000 PUSH1 0x0 DUP3 ADD MSTORE POP JUMP JUMPDEST PUSH1 0x0 PUSH2 0x2220 PUSH1 0x15 DUP4 PUSH2 0x1B81 JUMP JUMPDEST SWAP2 POP PUSH2 0x222B DUP3 PUSH2 0x21EA JUMP JUMPDEST PUSH1 0x20 DUP3 ADD SWAP1 POP SWAP2 SWAP1 POP JUMP JUMPDEST PUSH1 0x0 PUSH1 0x20 DUP3 ADD SWAP1 POP DUP2 DUP2 SUB PUSH1 0x0 DUP4 ADD MSTORE PUSH2 0x224F DUP2 PUSH2 0x2213 JUMP JUMPDEST SWAP1 POP SWAP2 SWAP1 POP JUMP JUMPDEST PUSH1 0x0 PUSH1 0x60 DUP3 ADD SWAP1 POP PUSH2 0x226B PUSH1 0x0 DUP4 ADD DUP7 PUSH2 0x1FE0 JUMP JUMPDEST PUSH2 0x2278 PUSH1 0x20 DUP4 ADD DUP6 PUSH2 0x1FE0 JUMP JUMPDEST PUSH2 0x2285 PUSH1 0x40 DUP4 ADD DUP5 PUSH2 0x1FB6 JUMP JUMPDEST SWAP5 SWAP4 POP POP POP POP JUMP JUMPDEST PUSH2 0x2296 DUP2 PUSH2 0x1D48 JUMP JUMPDEST DUP2 EQ PUSH2 0x22A1 JUMPI PUSH1 0x0 DUP1 REVERT JUMPDEST POP JUMP JUMPDEST PUSH1 0x0 DUP2 MLOAD SWAP1 POP PUSH2 0x22B3 DUP2 PUSH2 0x228D JUMP JUMPDEST SWAP3 SWAP2 POP POP JUMP JUMPDEST PUSH1 0x0 PUSH1 0x20 DUP3 DUP5 SUB SLT ISZERO PUSH2 0x22CF JUMPI PUSH2 0x22CE PUSH2 0x1A6B JUMP JUMPDEST JUMPDEST PUSH1 0x0 PUSH2 0x22DD DUP5 DUP3 DUP6 ADD PUSH2 0x22A4 JUMP JUMPDEST SWAP2 POP POP SWAP3 SWAP2 POP POP JUMP JUMPDEST PUSH32 0x526574616B6520666565206661696C6564000000000000000000000000000000 PUSH1 0x0 DUP3 ADD MSTORE POP JUMP JUMPDEST PUSH1 0x0 PUSH2 0x231C PUSH1 0x11 DUP4 PUSH2 0x1B81 JUMP JUMPDEST SWAP2 POP PUSH2 0x2327 DUP3 PUSH2 0x22E6 JUMP JUMPDEST PUSH1 0x20 DUP3 ADD SWAP1 POP SWAP2 SWAP1 POP JUMP JUMPDEST PUSH1 0x0 PUSH1 0x20 DUP3 ADD SWAP1 POP DUP2 DUP2 SUB PUSH1 0x0 DUP4 ADD MSTORE PUSH2 0x234B DUP2 PUSH2 0x230F JUMP JUMPDEST SWAP1 POP SWAP2 SWAP1 POP JUMP JUMPDEST PUSH32 0x4E487B7100000000000000000000000000000000000000000000000000000000 PUSH1 0x0 MSTORE PUSH1 0x11 PUSH1 0x4 MSTORE PUSH1 0x24 PUSH1 0x0 REVERT JUMPDEST PUSH1 0x0 PUSH2 0x238C DUP3 PUSH2 0x1A75 JUMP JUMPDEST SWAP2 POP PUSH2 0x2397 DUP4 PUSH2 0x1A75 JUMP JUMPDEST SWAP3 POP DUP3 DUP3 MUL PUSH2 0x23A5 DUP2 PUSH2 0x1A75 JUMP JUMPDEST SWAP2 POP DUP3 DUP3 DIV DUP5 EQ DUP4 ISZERO OR PUSH2 0x23BC JUMPI PUSH2 0x23BB PUSH2 0x2352 JUMP JUMPDEST JUMPDEST POP SWAP3 SWAP2 POP POP JUMP JUMPDEST PUSH1 0x0 PUSH2 0x23CE DUP3 PUSH2 0x1A75 JUMP JUMPDEST SWAP2 POP PUSH2 0x23D9 DUP4 PUSH2 0x1A75 JUMP JUMPDEST SWAP3 POP DUP3 DUP3 ADD SWAP1 POP DUP1 DUP3 GT ISZERO PUSH2 0x23F1 JUMPI PUSH2 0x23F0 PUSH2 0x2352 JUMP JUMPDEST JUMPDEST SWAP3 SWAP2 POP POP JUMP JUMPDEST PUSH1 0x0 PUSH1 0x40 DUP3 ADD SWAP1 POP PUSH2 0x240C PUSH1 0x0 DUP4 ADD DUP6 PUSH2 0x1FE0 JUMP JUMPDEST PUSH2 0x2419 PUSH1 0x20 DUP4 ADD DUP5 PUSH2 0x1FB6 JUMP JUMPDEST SWAP4 SWAP3 POP POP POP JUMP JUMPDEST PUSH32 0x546F6B656E20726577617264206661696C656400000000000000000000000000 PUSH1 0x0 DUP3 ADD MSTORE POP JUMP JUMPDEST PUSH1 0x0 PUSH2 0x2456 PUSH1 0x13 DUP4 PUSH2 0x1B81 JUMP JUMPDEST SWAP2 POP PUSH2 0x2461 DUP3 PUSH2 0x2420 JUMP JUMPDEST PUSH1 0x20 DUP3 ADD SWAP1 POP SWAP2 SWAP1 POP JUMP JUMPDEST PUSH1 0x0 PUSH1 0x20 DUP3 ADD SWAP1 POP DUP2 DUP2 SUB PUSH1 0x0 DUP4 ADD MSTORE PUSH2 0x2485 DUP2 PUSH2 0x2449 JUMP JUMPDEST SWAP1 POP SWAP2 SWAP1 POP JUMP JUMPDEST PUSH1 0x0 PUSH1 0x40 DUP3 ADD SWAP1 POP PUSH2 0x24A1 PUSH1 0x0 DUP4 ADD DUP6 PUSH2 0x1FB6 JUMP JUMPDEST PUSH2 0x24AE PUSH1 0x20 DUP4 ADD DUP5 PUSH2 0x1FB6 JUMP JUMPDEST SWAP4 SWAP3 POP POP POP JUMP JUMPDEST PUSH32 0x4E487B7100000000000000000000000000000000000000000000000000000000 PUSH1 0x0 MSTORE PUSH1 0x22 PUSH1 0x4 MSTORE PUSH1 0x24 PUSH1 0x0 REVERT JUMPDEST PUSH1 0x0 PUSH1 0x2 DUP3 DIV SWAP1 POP PUSH1 0x1 DUP3 AND DUP1 PUSH2 0x24FC JUMPI PUSH1 0x7F DUP3 AND SWAP2 POP JUMPDEST PUSH1 0x20 DUP3 LT DUP2 SUB PUSH2 0x250F JUMPI PUSH2 0x250E PUSH2 0x24B5 JUMP JUMPDEST JUMPDEST POP SWAP2 SWAP1 POP JUMP JUMPDEST PUSH32 0x4E487B7100000000000000000000000000000000000000000000000000000000 PUSH1 0x0 MSTORE PUSH1 0x32 PUSH1 0x4 MSTORE PUSH1 0x24 PUSH1 0x0 REVERT JUMPDEST PUSH1 0x0 PUSH2 0x254F DUP3 PUSH2 0x1A75 JUMP JUMPDEST SWAP2 POP PUSH32 0xFFFFFFFFFFFFFFFFFFFFFFFFFFFFFFFFFFFFFFFFFFFFFFFFFFFFFFFFFFFFFFFF DUP3 SUB PUSH2 0x2581 JUMPI PUSH2 0x2580 PUSH2 0x2352 JUMP JUMPDEST JUMPDEST PUSH1 0x1 DUP3 ADD SWAP1 POP SWAP2 SWAP1 POP JUMP JUMPDEST PUSH32 0x496E61637469766520636F757273650000000000000000000000000000000000 PUSH1 0x0 DUP3 ADD MSTORE POP JUMP JUMPDEST PUSH1 0x0 PUSH2 0x25C2 PUSH1 0xF DUP4 PUSH2 0x1B81 JUMP JUMPDEST SWAP2 POP PUSH2 0x25CD DUP3 PUSH2 0x258C JUMP JUMPDEST PUSH1 0x20 DUP3 ADD SWAP1 POP SWAP2 SWAP1 POP JUMP JUMPDEST PUSH1 0x0 PUSH1 0x20 DUP3 ADD SWAP1 POP DUP2 DUP2 SUB PUSH1 0x0 DUP4 ADD MSTORE PUSH2 0x25F1 DUP2 PUSH2 0x25B5 JUMP JUMPDEST SWAP1 POP SWAP2 SWAP1 POP JUMP JUMPDEST PUSH32 0x54657374206E6F7420636F6D706C657465640000000000000000000000000000 PUSH1 0x0 DUP3 ADD MSTORE POP JUMP JUMPDEST PUSH1 0x0 PUSH2 0x262E PUSH1 0x12 DUP4 PUSH2 0x1B81 JUMP JUMPDEST SWAP2 POP PUSH2 0x2639 DUP3 PUSH2 0x25F8 JUMP JUMPDEST PUSH1 0x20 DUP3 ADD SWAP1 POP SWAP2 SWAP1 POP JUMP JUMPDEST PUSH1 0x0 PUSH1 0x20 DUP3 ADD SWAP1 POP DUP2 DUP2 SUB PUSH1 0x0 DUP4 ADD MSTORE PUSH2 0x265D DUP2 PUSH2 0x2621 JUMP JUMPDEST SWAP1 POP SWAP2 SWAP1 POP JUMP JUMPDEST PUSH32 0x4E487B7100000000000000000000000000000000000000000000000000000000 PUSH1 0x0 MSTORE PUSH1 0x12 PUSH1 0x4 MSTORE PUSH1 0x24 PUSH1 0x0 REVERT JUMPDEST PUSH1 0x0 PUSH2 0x269E DUP3 PUSH2 0x1A75 JUMP JUMPDEST SWAP2 POP PUSH2 0x26A9 DUP4 PUSH2 0x1A75 JUMP JUMPDEST SWAP3 POP DUP3 PUSH2 0x26B9 JUMPI PUSH2 0x26B8 PUSH2 0x2664 JUMP JUMPDEST JUMPDEST DUP3 DUP3 DIV SWAP1 POP SWAP3 SWAP2 POP POP JUMP JUMPDEST PUSH1 0x0 PUSH2 0x26CF DUP3 PUSH2 0x1A75 JUMP JUMPDEST SWAP2 POP PUSH2 0x26DA DUP4 PUSH2 0x1A75 JUMP JUMPDEST SWAP3 POP DUP3 DUP3 SUB SWAP1 POP DUP2 DUP2 GT ISZERO PUSH2 0x26F2 JUMPI PUSH2 0x26F1 PUSH2 0x2352 JUMP JUMPDEST JUMPDEST SWAP3 SWAP2 POP POP JUMP JUMPDEST PUSH32 0x496E7374727563746F72207061796D656E74206661696C656400000000000000 PUSH1 0x0 DUP3 ADD MSTORE POP JUMP JUMPDEST PUSH1 0x0 PUSH2 0x272E PUSH1 0x19 DUP4 PUSH2 0x1B81 JUMP JUMPDEST SWAP2 POP PUSH2 0x2739 DUP3 PUSH2 0x26F8 JUMP JUMPDEST PUSH1 0x20 DUP3 ADD SWAP1 POP SWAP2 SWAP1 POP JUMP JUMPDEST PUSH1 0x0 PUSH1 0x20 DUP3 ADD SWAP1 POP DUP2 DUP2 SUB PUSH1 0x0 DUP4 ADD MSTORE PUSH2 0x275D DUP2 PUSH2 0x2721 JUMP JUMPDEST SWAP1 POP SWAP2 SWAP1 POP JUMP JUMPDEST PUSH32 0x506C6174666F726D20666565206661696C656400000000000000000000000000 PUSH1 0x0 DUP3 ADD MSTORE POP JUMP JUMPDEST PUSH1 0x0 PUSH2 0x279A PUSH1 0x13 DUP4 PUSH2 0x1B81 JUMP JUMPDEST SWAP2 POP PUSH2 0x27A5 DUP3 PUSH2 0x2764 JUMP JUMPDEST PUSH1 0x20 DUP3 ADD SWAP1 POP SWAP2 SWAP1 POP JUMP JUMPDEST PUSH1 0x0 PUSH1 0x20 DUP3 ADD SWAP1 POP DUP2 DUP2 SUB PUSH1 0x0 DUP4 ADD MSTORE PUSH2 0x27C9 DUP2 PUSH2 0x278D JUMP JUMPDEST SWAP1 POP SWAP2 SWAP1 POP JUMP JUMPDEST PUSH32 0x4E6F7420656E726F6C6C65640000000000000000000000000000000000000000 PUSH1 0x0 DUP3 ADD MSTORE POP JUMP JUMPDEST PUSH1 0x0 PUSH2 0x2806 PUSH1 0xC DUP4 PUSH2 0x1B81 JUMP JUMPDEST SWAP2 POP PUSH2 0x2811 DUP3 PUSH2 0x27D0 JUMP JUMPDEST PUSH1 0x20 DUP3 ADD SWAP1 POP SWAP2 SWAP1 POP JUMP JUMPDEST PUSH1 0x0 PUSH1 0x20 DUP3 ADD SWAP1 POP DUP2 DUP2 SUB PUSH1 0x0 DUP4 ADD MSTORE PUSH2 0x2835 DUP2 PUSH2 0x27F9 JUMP JUMPDEST SWAP1 POP SWAP2 SWAP1 POP JUMP JUMPDEST PUSH1 0x0 PUSH1 0x40 DUP3 ADD SWAP1 POP PUSH2 0x2851 PUSH1 0x0 DUP4 ADD DUP6 PUSH2 0x1FE0 JUMP JUMPDEST DUP2 DUP2 SUB PUSH1 0x20 DUP4 ADD MSTORE PUSH2 0x2863 DUP2 DUP5 PUSH2 0x1BCD JUMP JUMPDEST SWAP1 POP SWAP4 SWAP3 POP POP POP JUMP JUMPDEST PUSH1 0x0 DUP2 MLOAD SWAP1 POP PUSH2 0x287B DUP2 PUSH2 0x1A7F JUMP JUMPDEST SWAP3 SWAP2 POP POP JUMP JUMPDEST PUSH1 0x0 PUSH1 0x20 DUP3 DUP5 SUB SLT ISZERO PUSH2 0x2897 JUMPI PUSH2 0x2896 PUSH2 0x1A6B JUMP JUMPDEST JUMPDEST PUSH1 0x0 PUSH2 0x28A5 DUP5 DUP3 DUP6 ADD PUSH2 0x286C JUMP JUMPDEST SWAP2 POP POP SWAP3 SWAP2 POP POP JUMP JUMPDEST PUSH1 0x0 DUP2 SWAP1 POP DUP2 PUSH1 0x0 MSTORE PUSH1 0x20 PUSH1 0x0 KECCAK256 SWAP1 POP SWAP2 SWAP1 POP JUMP JUMPDEST PUSH1 0x0 PUSH1 0x20 PUSH1 0x1F DUP4 ADD DIV SWAP1 POP SWAP2 SWAP1 POP JUMP JUMPDEST PUSH1 0x0 DUP3 DUP3 SHL SWAP1 POP SWAP3 SWAP2 POP POP JUMP JUMPDEST PUSH1 0x0 PUSH1 0x8 DUP4 MUL PUSH2 0x2910 PUSH32 0xFFFFFFFFFFFFFFFFFFFFFFFFFFFFFFFFFFFFFFFFFFFFFFFFFFFFFFFFFFFFFFFF DUP3 PUSH2 0x28D3 JUMP JUMPDEST PUSH2 0x291A DUP7 DUP4 PUSH2 0x28D3 JUMP JUMPDEST SWAP6 POP DUP1 NOT DUP5 AND SWAP4 POP DUP1 DUP7 AND DUP5 OR SWAP3 POP POP POP SWAP4 SWAP3 POP POP POP JUMP JUMPDEST PUSH1 0x0 PUSH2 0x294D PUSH2 0x2948 PUSH2 0x2943 DUP5 PUSH2 0x1A75 JUMP JUMPDEST PUSH2 0x1F3C JUMP JUMPDEST PUSH2 0x1A75 JUMP JUMPDEST SWAP1 POP SWAP2 SWAP1 POP JUMP JUMPDEST PUSH1 0x0 DUP2 SWAP1 POP SWAP2 SWAP1 POP JUMP JUMPDEST PUSH2 0x2967 DUP4 PUSH2 0x2932 JUMP JUMPDEST PUSH2 0x297B PUSH2 0x2973 DUP3 PUSH2 0x2954 JUMP JUMPDEST DUP5 DUP5 SLOAD PUSH2 0x28E0 JUMP JUMPDEST DUP3 SSTORE POP POP POP POP JUMP JUMPDEST PUSH1 0x0 SWAP1 JUMP JUMPDEST PUSH2 0x2990 PUSH2 0x2983 JUMP JUMPDEST PUSH2 0x299B DUP2 DUP5 DUP5 PUSH2 0x295E JUMP JUMPDEST POP POP POP JUMP JUMPDEST JUMPDEST DUP2 DUP2 LT ISZERO PUSH2 0x29BF JUMPI PUSH2 0x29B4 PUSH1 0x0 DUP3 PUSH2 0x2988 JUMP JUMPDEST PUSH1 0x1 DUP2 ADD SWAP1 POP PUSH2 0x29A1 JUMP JUMPDEST POP POP JUMP JUMPDEST PUSH1 0x1F DUP3 GT ISZERO PUSH2 0x2A04 JUMPI PUSH2 0x29D5 DUP2 PUSH2 0x28AE JUMP JUMPDEST PUSH2 0x29DE DUP5 PUSH2 0x28C3 JUMP JUMPDEST DUP2 ADD PUSH1 0x20 DUP6 LT ISZERO PUSH2 0x29ED JUMPI DUP2 SWAP1 POP JUMPDEST PUSH2 0x2A01 PUSH2 0x29F9 DUP6 PUSH2 0x28C3 JUMP JUMPDEST DUP4 ADD DUP3 PUSH2 0x29A0 JUMP JUMPDEST POP POP JUMPDEST POP POP POP JUMP JUMPDEST PUSH1 0x0 DUP3 DUP3 SHR SWAP1 POP SWAP3 SWAP2 POP POP JUMP JUMPDEST PUSH1 0x0 PUSH2 0x2A27 PUSH1 0x0 NOT DUP5 PUSH1 0x8 MUL PUSH2 0x2A09 JUMP JUMPDEST NOT DUP1 DUP4 AND SWAP2 POP POP SWAP3 SWAP2 POP POP JUMP JUMPDEST PUSH1 0x0 PUSH2 0x2A40 DUP4 DUP4 PUSH2 0x2A16 JUMP JUMPDEST SWAP2 POP DUP3 PUSH1 0x2 MUL DUP3 OR SWAP1 POP SWAP3 SWAP2 POP POP JUMP JUMPDEST PUSH2 0x2A59 DUP3 PUSH2 0x1B76 JUMP JUMPDEST PUSH8 0xFFFFFFFFFFFFFFFF DUP2 GT ISZERO PUSH2 0x2A72 JUMPI PUSH2 0x2A71 PUSH2 0x1DB5 JUMP JUMPDEST JUMPDEST PUSH2 0x2A7C DUP3 SLOAD PUSH2 0x24E4 JUMP JUMPDEST PUSH2 0x2A87 DUP3 DUP3 DUP6 PUSH2 0x29C3 JUMP JUMPDEST PUSH1 0x0 PUSH1 0x20 SWAP1 POP PUSH1 0x1F DUP4 GT PUSH1 0x1 DUP2 EQ PUSH2 0x2ABA JUMPI PUSH1 0x0 DUP5 ISZERO PUSH2 0x2AA8 JUMPI DUP3 DUP8 ADD MLOAD SWAP1 POP JUMPDEST PUSH2 0x2AB2 DUP6 DUP3 PUSH2 0x2A34 JUMP JUMPDEST DUP7 SSTORE POP PUSH2 0x2B1A JUMP JUMPDEST PUSH1 0x1F NOT DUP5 AND PUSH2 0x2AC8 DUP7 PUSH2 0x28AE JUMP JUMPDEST PUSH1 0x0 JUMPDEST DUP3 DUP2 LT ISZERO PUSH2 0x2AF0 JUMPI DUP5 DUP10 ADD MLOAD DUP3 SSTORE PUSH1 0x1 DUP3 ADD SWAP2 POP PUSH1 0x20 DUP6 ADD SWAP5 POP PUSH1 0x20 DUP2 ADD SWAP1 POP PUSH2 0x2ACB JUMP JUMPDEST DUP7 DUP4 LT ISZERO PUSH2 0x2B0D JUMPI DUP5 DUP10 ADD MLOAD PUSH2 0x2B09 PUSH1 0x1F DUP10 AND DUP3 PUSH2 0x2A16 JUMP JUMPDEST DUP4 SSTORE POP JUMPDEST PUSH1 0x1 PUSH1 0x2 DUP9 MUL ADD DUP9 SSTORE POP POP POP JUMPDEST POP POP POP POP POP POP JUMP JUMPDEST PUSH1 0x0 PUSH1 0x40 DUP3 ADD SWAP1 POP DUP2 DUP2 SUB PUSH1 0x0 DUP4 ADD MSTORE PUSH2 0x2B3C DUP2 DUP6 PUSH2 0x1BCD JUMP JUMPDEST SWAP1 POP PUSH2 0x2B4B PUSH1 0x20 DUP4 ADD DUP5 PUSH2 0x1FB6 JUMP JUMPDEST SWAP4 SWAP3 POP POP POP JUMP JUMPDEST PUSH32 0x5465737420616C726561647920636F6D706C6574656400000000000000000000 PUSH1 0x0 DUP3 ADD MSTORE POP JUMP JUMPDEST PUSH1 0x0 PUSH2 0x2B88 PUSH1 0x16 DUP4 PUSH2 0x1B81 JUMP JUMPDEST SWAP2 POP PUSH2 0x2B93 DUP3 PUSH2 0x2B52 JUMP JUMPDEST PUSH1 0x20 DUP3 ADD SWAP1 POP SWAP2 SWAP1 POP JUMP JUMPDEST PUSH1 0x0 PUSH1 0x20 DUP3 ADD SWAP1 POP DUP2 DUP2 SUB PUSH1 0x0 DUP4 ADD MSTORE PUSH2 0x2BB7 DUP2 PUSH2 0x2B7B JUMP JUMPDEST SWAP1 POP SWAP2 SWAP1 POP JUMP INVALID LOG2 PUSH5 0x6970667358 0x22 SLT KECCAK256 SDIV CODESIZE PUSH23 0x4963B649EE3A14F3793C505EEFEA36505E6D4F3459EDC2 ORIGIN 0xEE XOR 0xB3 GASPRICE 0xEB PUSH5 0x736F6C6343 STOP ADDMOD EQ STOP CALLER "},"methodIdentifiers":{"completeCourse(uint256,string)":"690e8434","completeTest(uint256)":"c9d4188f","courses(uint256)":"96f979d2","createCourse(string,string,uint256)":"a4adb24b","enrollInCourse(uint256)":"5e52da27","getInstructorCourses(address)":"44674e43","getProfileMetadata(address)":"403e2707","getUserEnrolledCourses(address)":"829ae6f4","hasAccessToCourse(address,uint256)":"50774a15","instructorCourses(address,uint256)":"6ceff219","nextCourseId()":"7d83daf2","nftCertificate()":"6a0304bf","owner()":"8da5cb5b","renounceOwnership()":"715018a6","retakeTest(uint256,uint256)":"0e3fecd2","sbtToken()":"e359d997","setProfileMetadata(string)":"ade778f4","transferOwnership(address)":"f2fde38b","userCourses(address,uint256)":"93a05c20","userProfileCid(address)":"ec57c20b","users(address)":"a87430ba"}}}}}