{
  "_format": "hh-sol-artifact-1",
  "contractName": "SkillBridgeNFT",
  "sourceName": "SkillBridgeNFT.sol",
  "abi": [
    {
      "inputs": [
        {
          "internalType": "string",
          "name": "name",
          "type": "string"
        },
        {
          "internalType": "string",
          "name": "symbol",
          "type": "string"
        },
        {
          "internalType": "address",
          "name": "initialOwner",
          "type": "address"
        }
      ],
      "stateMutability": "nonpayable",
      "type": "constructor"
    },
    {
      "inputs": [
        {
          "internalType": "address",
          "name": "sender",
          "type": "address"
        },
        {
          "internalType": "uint256",
          "name": "tokenId",
          "type": "uint256"
        },
        {
          "internalType": "address",
          "name": "owner",
          "type": "address"
        }
      ],
      "name": "ERC721IncorrectOwner",
      "type": "error"
    },
    {
      "inputs": [
        {
          "internalType": "address",
          "name": "operator",
          "type": "address"
        },
        {
          "internalType": "uint256",
          "name": "tokenId",
          "type": "uint256"
        }
      ],
      "name": "ERC721InsufficientApproval",
      "type": "error"
    },
    {
      "inputs": [
        {
          "internalType": "address",
          "name": "approver",
          "type": "address"
        }
      ],
      "name": "ERC721InvalidApprover",
      "type": "error"
    },
    {
      "inputs": [
        {
          "internalType": "address",
          "name": "operator",
          "type": "address"
        }
      ],
      "name": "ERC721InvalidOperator",
      "type": "error"
    },
    {
      "inputs": [
        {
          "internalType": "address",
          "name": "owner",
          "type": "address"
        }
      ],
      "name": "ERC721InvalidOwner",
      "type": "error"
    },
    {
      "inputs": [
        {
          "internalType": "address",
          "name": "receiver",
          "type": "address"
        }
      ],
      "name": "ERC721InvalidReceiver",
      "type": "error"
    },
    {
      "inputs": [
        {
          "internalType": "address",
          "name": "sender",
          "type": "address"
        }
      ],
      "name": "ERC721InvalidSender",
      "type": "error"
    },
    {
      "inputs": [
        {
          "internalType": "uint256",
          "name": "tokenId",
          "type": "uint256"
        }
      ],
      "name": "ERC721NonexistentToken",
      "type": "error"
    },
    {
      "inputs": [
        {
          "internalType": "address",
          "name": "owner",
          "type": "address"
        }
      ],
      "name": "OwnableInvalidOwner",
      "type": "error"
    },
    {
      "inputs": [
        {
          "internalType": "address",
          "name": "account",
          "type": "address"
        }
      ],
      "name": "OwnableUnauthorizedAccount",
      "type": "error"
    },
    {
      "anonymous": false,
      "inputs": [
        {
          "indexed": true,
          "internalType": "address",
          "name": "owner",
          "type": "address"
        },
        {
          "indexed": true,
          "internalType": "address",
          "name": "approved",
          "type": "address"
        },
        {
          "indexed": true,
          "internalType": "uint256",
          "name": "tokenId",
          "type": "uint256"
        }
      ],
      "name": "Approval",
      "type": "event"
    },
    {
      "anonymous": false,
      "inputs": [
        {
          "indexed": true,
          "internalType": "address",
          "name": "owner",
          "type": "address"
        },
        {
          "indexed": true,
          "internalType": "address",
          "name": "operator",
          "type": "address"
        },
        {
          "indexed": false,
          "internalType": "bool",
          "name": "approved",
          "type": "bool"
        }
      ],
      "name": "ApprovalForAll",
      "type": "event"
    },
    {
      "anonymous": false,
      "inputs": [
        {
          "indexed": false,
          "internalType": "uint256",
          "name": "_fromTokenId",
          "type": "uint256"
        },
        {
          "indexed": false,
          "internalType": "uint256",
          "name": "_toTokenId",
          "type": "uint256"
        }
      ],
      "name": "BatchMetadataUpdate",
      "type": "event"
    },
    {
      "anonymous": false,
      "inputs": [
        {
          "indexed": false,
          "internalType": "uint256",
          "name": "_tokenId",
          "type": "uint256"
        }
      ],
      "name": "MetadataUpdate",
      "type": "event"
    },
    {
      "anonymous": false,
      "inputs": [
        {
          "indexed": true,
          "internalType": "address",
          "name": "previousOwner",
          "type": "address"
        },
        {
          "indexed": true,
          "internalType": "address",
          "name": "newOwner",
          "type": "address"
        }
      ],
      "name": "OwnershipTransferred",
      "type": "event"
    },
    {
      "anonymous": false,
      "inputs": [
        {
          "indexed": true,
          "internalType": "address",
          "name": "from",
          "type": "address"
        },
        {
          "indexed": true,
          "internalType": "address",
          "name": "to",
          "type": "address"
        },
        {
          "indexed": true,
          "internalType": "uint256",
          "name": "tokenId",
          "type": "uint256"
        }
      ],
      "name": "Transfer",
      "type": "event"
    },
    {
      "inputs": [
        {
          "internalType": "address",
          "name": "to",
          "type": "address"
        },
        {
          "internalType": "uint256",
          "name": "tokenId",
          "type": "uint256"
        }
      ],
      "name": "approve",
      "outputs": [],
      "stateMutability": "nonpayable",
      "type": "function"
    },
    {
      "inputs": [
        {
          "internalType": "address",
          "name": "owner",
          "type": "address"
        }
      ],
      "name": "balanceOf",
      "outputs": [
        {
          "internalType": "uint256",
          "name": "",
          "type": "uint256"
        }
      ],
      "stateMutability": "view",
      "type": "function"
    },
    {
      "inputs": [
        {
          "internalType": "uint256",
          "name": "tokenId",
          "type": "uint256"
        }
      ],
      "name": "getApproved",
      "outputs": [
        {
          "internalType": "address",
          "name": "",
          "type": "address"
        }
      ],
      "stateMutability": "view",
      "type": "function"
    },
    {
      "inputs": [
        {
          "internalType": "address",
          "name": "owner",
          "type": "address"
        },
        {
          "internalType": "address",
          "name": "operator",
          "type": "address"
        }
      ],
      "name": "isApprovedForAll",
      "outputs": [
        {
          "internalType": "bool",
          "name": "",
          "type": "bool"
        }
      ],
      "stateMutability": "view",
      "type": "function"
    },
    {
      "inputs": [
        {
          "internalType": "address",
          "name": "to",
          "type": "address"
        },
        {
          "internalType": "string",
          "name": "resultCID",
          "type": "string"
        }
      ],
      "name": "mintCertificate",
      "outputs": [
        {
          "internalType": "uint256",
          "name": "",
          "type": "uint256"
        }
      ],
      "stateMutability": "nonpayable",
      "type": "function"
    },
    {
      "inputs": [],
      "name": "name",
      "outputs": [
        {
          "internalType": "string",
          "name": "",
          "type": "string"
        }
      ],
      "stateMutability": "view",
      "type": "function"
    },
    {
      "inputs": [],
      "name": "nextTokenId",
      "outputs": [
        {
          "internalType": "uint256",
          "name": "",
          "type": "uint256"
        }
      ],
      "stateMutability": "view",
      "type": "function"
    },
    {
      "inputs": [],
      "name": "owner",
      "outputs": [
        {
          "internalType": "address",
          "name": "",
          "type": "address"
        }
      ],
      "stateMutability": "view",
      "type": "function"
    },
    {
      "inputs": [
        {
          "internalType": "uint256",
          "name": "tokenId",
          "type": "uint256"
        }
      ],
      "name": "ownerOf",
      "outputs": [
        {
          "internalType": "address",
          "name": "",
          "type": "address"
        }
      ],
      "stateMutability": "view",
      "type": "function"
    },
    {
      "inputs": [],
      "name": "renounceOwnership",
      "outputs": [],
      "stateMutability": "nonpayable",
      "type": "function"
    },
    {
      "inputs": [
        {
          "internalType": "address",
          "name": "from",
          "type": "address"
        },
        {
          "internalType": "address",
          "name": "to",
          "type": "address"
        },
        {
          "internalType": "uint256",
          "name": "tokenId",
          "type": "uint256"
        }
      ],
      "name": "safeTransferFrom",
      "outputs": [],
      "stateMutability": "nonpayable",
      "type": "function"
    },
    {
      "inputs": [
        {
          "internalType": "address",
          "name": "from",
          "type": "address"
        },
        {
          "internalType": "address",
          "name": "to",
          "type": "address"
        },
        {
          "internalType": "uint256",
          "name": "tokenId",
          "type": "uint256"
        },
        {
          "internalType": "bytes",
          "name": "data",
          "type": "bytes"
        }
      ],
      "name": "safeTransferFrom",
      "outputs": [],
      "stateMutability": "nonpayable",
      "type": "function"
    },
    {
      "inputs": [
        {
          "internalType": "address",
          "name": "operator",
          "type": "address"
        },
        {
          "internalType": "bool",
          "name": "approved",
          "type": "bool"
        }
      ],
      "name": "setApprovalForAll",
      "outputs": [],
      "stateMutability": "nonpayable",
      "type": "function"
    },
    {
      "inputs": [
        {
          "internalType": "bytes4",
          "name": "interfaceId",
          "type": "bytes4"
        }
      ],
      "name": "supportsInterface",
      "outputs": [
        {
          "internalType": "bool",
          "name": "",
          "type": "bool"
        }
      ],
      "stateMutability": "view",
      "type": "function"
    },
    {
      "inputs": [],
      "name": "symbol",
      "outputs": [
        {
          "internalType": "string",
          "name": "",
          "type": "string"
        }
      ],
      "stateMutability": "view",
      "type": "function"
    },
    {
      "inputs": [
        {
          "internalType": "uint256",
          "name": "tokenId",
          "type": "uint256"
        }
      ],
      "name": "tokenURI",
      "outputs": [
        {
          "internalType": "string",
          "name": "",
          "type": "string"
        }
      ],
      "stateMutability": "view",
      "type": "function"
    },
    {
      "inputs": [
        {
          "internalType": "address",
          "name": "from",
          "type": "address"
        },
        {
          "internalType": "address",
          "name": "to",
          "type": "address"
        },
        {
          "internalType": "uint256",
          "name": "tokenId",
          "type": "uint256"
        }
      ],
      "name": "transferFrom",
      "outputs": [],
      "stateMutability": "nonpayable",
      "type": "function"
    },
    {
      "inputs": [
        {
          "internalType": "address",
          "name": "newOwner",
          "type": "address"
        }
      ],
      "name": "transferOwnership",
      "outputs": [],
      "stateMutability": "nonpayable",
      "type": "function"
    }
  ],
  "bytecode": "0x60806040523480156200001157600080fd5b5060405162002e2438038062002e248339818101604052810190620000379190620003ae565b80838381600090816200004b919062000693565b5080600190816200005d919062000693565b505050600073ffffffffffffffffffffffffffffffffffffffff168173ffffffffffffffffffffffffffffffffffffffff1603620000d55760006040517f1e4fbdf7000000000000000000000000000000000000000000000000000000008152600401620000cc91906200078b565b60405180910390fd5b620000e681620000f060201b60201c565b50505050620007a8565b6000600760009054906101000a900473ffffffffffffffffffffffffffffffffffffffff16905081600760006101000a81548173ffffffffffffffffffffffffffffffffffffffff021916908373ffffffffffffffffffffffffffffffffffffffff1602179055508173ffffffffffffffffffffffffffffffffffffffff168173ffffffffffffffffffffffffffffffffffffffff167f8be0079c531659141344cd1fd0a4f28419497f9722a3daafe3b4186f6b6457e060405160405180910390a35050565b6000604051905090565b600080fd5b600080fd5b600080fd5b600080fd5b6000601f19601f8301169050919050565b7f4e487b7100000000000000000000000000000000000000000000000000000000600052604160045260246000fd5b6200021f82620001d4565b810181811067ffffffffffffffff82111715620002415762000240620001e5565b5b80604052505050565b600062000256620001b6565b905062000264828262000214565b919050565b600067ffffffffffffffff821115620002875762000286620001e5565b5b6200029282620001d4565b9050602081019050919050565b60005b83811015620002bf578082015181840152602081019050620002a2565b60008484015250505050565b6000620002e2620002dc8462000269565b6200024a565b905082815260208101848484011115620003015762000300620001cf565b5b6200030e8482856200029f565b509392505050565b600082601f8301126200032e576200032d620001ca565b5b815162000340848260208601620002cb565b91505092915050565b600073ffffffffffffffffffffffffffffffffffffffff82169050919050565b6000620003768262000349565b9050919050565b620003888162000369565b81146200039457600080fd5b50565b600081519050620003a8816200037d565b92915050565b600080600060608486031215620003ca57620003c9620001c0565b5b600084015167ffffffffffffffff811115620003eb57620003ea620001c5565b5b620003f98682870162000316565b935050602084015167ffffffffffffffff8111156200041d576200041c620001c5565b5b6200042b8682870162000316565b92505060406200043e8682870162000397565b9150509250925092565b600081519050919050565b7f4e487b7100000000000000000000000000000000000000000000000000000000600052602260045260246000fd5b600060028204905060018216806200049b57607f821691505b602082108103620004b157620004b062000453565b5b50919050565b60008190508160005260206000209050919050565b60006020601f8301049050919050565b600082821b905092915050565b6000600883026200051b7fffffffffffffffffffffffffffffffffffffffffffffffffffffffffffffffff82620004dc565b620005278683620004dc565b95508019841693508086168417925050509392505050565b6000819050919050565b6000819050919050565b6000620005746200056e62000568846200053f565b62000549565b6200053f565b9050919050565b6000819050919050565b620005908362000553565b620005a86200059f826200057b565b848454620004e9565b825550505050565b600090565b620005bf620005b0565b620005cc81848462000585565b505050565b5b81811015620005f457620005e8600082620005b5565b600181019050620005d2565b5050565b601f82111562000643576200060d81620004b7565b6200061884620004cc565b8101602085101562000628578190505b620006406200063785620004cc565b830182620005d1565b50505b505050565b600082821c905092915050565b6000620006686000198460080262000648565b1980831691505092915050565b600062000683838362000655565b9150826002028217905092915050565b6200069e8262000448565b67ffffffffffffffff811115620006ba57620006b9620001e5565b5b620006c6825462000482565b620006d3828285620005f8565b600060209050601f8311600181146200070b5760008415620006f6578287015190505b62000702858262000675565b86555062000772565b601f1984166200071b86620004b7565b60005b8281101562000745578489015182556001820191506020850194506020810190506200071e565b8683101562000765578489015162000761601f89168262000655565b8355505b6001600288020188555050505b505050505050565b620007858162000369565b82525050565b6000602082019050620007a260008301846200077a565b92915050565b61266c80620007b86000396000f3fe608060405234801561001057600080fd5b50600436106101165760003560e01c8063715018a6116100a2578063a22cb46511610071578063a22cb465146102e1578063b88d4fde146102fd578063c87b56dd14610319578063e985e9c514610349578063f2fde38b1461037957610116565b8063715018a61461027d57806375794a3c146102875780638da5cb5b146102a557806395d89b41146102c357610116565b8063095ea7b3116100e9578063095ea7b3146101c957806323b872dd146101e557806342842e0e146102015780636352211e1461021d57806370a082311461024d57610116565b806301ffc9a71461011b57806306fdde031461014b5780630712249f14610169578063081812fc14610199575b600080fd5b61013560048036038101906101309190611ac4565b610395565b6040516101429190611b0c565b60405180910390f35b6101536103f6565b6040516101609190611bb7565b60405180910390f35b610183600480360381019061017e9190611d6c565b610488565b6040516101909190611de1565b60405180910390f35b6101b360048036038101906101ae9190611e28565b6104cb565b6040516101c09190611e64565b60405180910390f35b6101e360048036038101906101de9190611e7f565b6104e7565b005b6101ff60048036038101906101fa9190611ebf565b6104fd565b005b61021b60048036038101906102169190611ebf565b6105ff565b005b61023760048036038101906102329190611e28565b61061f565b6040516102449190611e64565b60405180910390f35b61026760048036038101906102629190611f12565b610631565b6040516102749190611de1565b60405180910390f35b6102856106eb565b005b61028f6106ff565b60405161029c9190611de1565b60405180910390f35b6102ad610705565b6040516102ba9190611e64565b60405180910390f35b6102cb61072f565b6040516102d89190611bb7565b60405180910390f35b6102fb60048036038101906102f69190611f6b565b6107c1565b005b6103176004803603810190610312919061204c565b6107d7565b005b610333600480360381019061032e9190611e28565b6107fc565b6040516103409190611bb7565b60405180910390f35b610363600480360381019061035e91906120cf565b61090f565b6040516103709190611b0c565b60405180910390f35b610393600480360381019061038e9190611f12565b6109a3565b005b6000634906490660e01b7bffffffffffffffffffffffffffffffffffffffffffffffffffffffff1916827bffffffffffffffffffffffffffffffffffffffffffffffffffffffff191614806103ef57506103ee82610a29565b5b9050919050565b6060600080546104059061213e565b80601f01602080910402602001604051908101604052809291908181526020018280546104319061213e565b801561047e5780601f106104535761010080835404028352916020019161047e565b820191906000526020600020905b81548152906001019060200180831161046157829003601f168201915b5050505050905090565b6000610492610b0b565b6000600860008154809291906104a79061219e565b9190505590506104b78482610b92565b6104c18184610c8b565b8091505092915050565b60006104d682610ce7565b506104e082610d6f565b9050919050565b6104f982826104f4610dac565b610db4565b5050565b600073ffffffffffffffffffffffffffffffffffffffff168273ffffffffffffffffffffffffffffffffffffffff160361056f5760006040517f64a0ae920000000000000000000000000000000000000000000000000000000081526004016105669190611e64565b60405180910390fd5b6000610583838361057e610dac565b610dc6565b90508373ffffffffffffffffffffffffffffffffffffffff168173ffffffffffffffffffffffffffffffffffffffff16146105f9578382826040517f64283d7b0000000000000000000000000000000000000000000000000000000081526004016105f0939291906121e6565b60405180910390fd5b50505050565b61061a838383604051806020016040528060008152506107d7565b505050565b600061062a82610ce7565b9050919050565b60008073ffffffffffffffffffffffffffffffffffffffff168273ffffffffffffffffffffffffffffffffffffffff16036106a45760006040517f89c62b6400000000000000000000000000000000000000000000000000000000815260040161069b9190611e64565b60405180910390fd5b600360008373ffffffffffffffffffffffffffffffffffffffff1673ffffffffffffffffffffffffffffffffffffffff168152602001908152602001600020549050919050565b6106f3610b0b565b6106fd6000610fe0565b565b60085481565b6000600760009054906101000a900473ffffffffffffffffffffffffffffffffffffffff16905090565b60606001805461073e9061213e565b80601f016020809104026020016040519081016040528092919081815260200182805461076a9061213e565b80156107b75780601f1061078c576101008083540402835291602001916107b7565b820191906000526020600020905b81548152906001019060200180831161079a57829003601f168201915b5050505050905090565b6107d36107cc610dac565b83836110a6565b5050565b6107e28484846104fd565b6107f66107ed610dac565b85858585611215565b50505050565b606061080782610ce7565b5060006006600084815260200190815260200160002080546108289061213e565b80601f01602080910402602001604051908101604052809291908181526020018280546108549061213e565b80156108a15780601f10610876576101008083540402835291602001916108a1565b820191906000526020600020905b81548152906001019060200180831161088457829003601f168201915b5050505050905060006108b26113c6565b905060008151036108c757819250505061090a565b6000825111156108fc5780826040516020016108e4929190612259565b6040516020818303038152906040529250505061090a565b610905846113dd565b925050505b919050565b6000600560008473ffffffffffffffffffffffffffffffffffffffff1673ffffffffffffffffffffffffffffffffffffffff16815260200190815260200160002060008373ffffffffffffffffffffffffffffffffffffffff1673ffffffffffffffffffffffffffffffffffffffff16815260200190815260200160002060009054906101000a900460ff16905092915050565b6109ab610b0b565b600073ffffffffffffffffffffffffffffffffffffffff168173ffffffffffffffffffffffffffffffffffffffff1603610a1d5760006040517f1e4fbdf7000000000000000000000000000000000000000000000000000000008152600401610a149190611e64565b60405180910390fd5b610a2681610fe0565b50565b60007f80ac58cd000000000000000000000000000000000000000000000000000000007bffffffffffffffffffffffffffffffffffffffffffffffffffffffff1916827bffffffffffffffffffffffffffffffffffffffffffffffffffffffff19161480610af457507f5b5e139f000000000000000000000000000000000000000000000000000000007bffffffffffffffffffffffffffffffffffffffffffffffffffffffff1916827bffffffffffffffffffffffffffffffffffffffffffffffffffffffff1916145b80610b045750610b0382611446565b5b9050919050565b610b13610dac565b73ffffffffffffffffffffffffffffffffffffffff16610b31610705565b73ffffffffffffffffffffffffffffffffffffffff1614610b9057610b54610dac565b6040517f118cdaa7000000000000000000000000000000000000000000000000000000008152600401610b879190611e64565b60405180910390fd5b565b600073ffffffffffffffffffffffffffffffffffffffff168273ffffffffffffffffffffffffffffffffffffffff1603610c045760006040517f64a0ae92000000000000000000000000000000000000000000000000000000008152600401610bfb9190611e64565b60405180910390fd5b6000610c1283836000610dc6565b9050600073ffffffffffffffffffffffffffffffffffffffff168173ffffffffffffffffffffffffffffffffffffffff1614610c865760006040517f73c6ac6e000000000000000000000000000000000000000000000000000000008152600401610c7d9190611e64565b60405180910390fd5b505050565b80600660008481526020019081526020016000209081610cab9190612429565b507ff8e1a15aba9398e019f0b49df1a4fde98ee17ae345cb5f6b5e2c27f5033e8ce782604051610cdb9190611de1565b60405180910390a15050565b600080610cf3836114b0565b9050600073ffffffffffffffffffffffffffffffffffffffff168173ffffffffffffffffffffffffffffffffffffffff1603610d6657826040517f7e273289000000000000000000000000000000000000000000000000000000008152600401610d5d9190611de1565b60405180910390fd5b80915050919050565b60006004600083815260200190815260200160002060009054906101000a900473ffffffffffffffffffffffffffffffffffffffff169050919050565b600033905090565b610dc183838360016114ed565b505050565b600080610dd2846114b0565b9050600073ffffffffffffffffffffffffffffffffffffffff168373ffffffffffffffffffffffffffffffffffffffff1614610e1457610e138184866116b2565b5b600073ffffffffffffffffffffffffffffffffffffffff168173ffffffffffffffffffffffffffffffffffffffff1614610ea557610e566000856000806114ed565b6001600360008373ffffffffffffffffffffffffffffffffffffffff1673ffffffffffffffffffffffffffffffffffffffff168152602001908152602001600020600082825403925050819055505b600073ffffffffffffffffffffffffffffffffffffffff168573ffffffffffffffffffffffffffffffffffffffff1614610f28576001600360008773ffffffffffffffffffffffffffffffffffffffff1673ffffffffffffffffffffffffffffffffffffffff168152602001908152602001600020600082825401925050819055505b846002600086815260200190815260200160002060006101000a81548173ffffffffffffffffffffffffffffffffffffffff021916908373ffffffffffffffffffffffffffffffffffffffff160217905550838573ffffffffffffffffffffffffffffffffffffffff168273ffffffffffffffffffffffffffffffffffffffff167fddf252ad1be2c89b69c2b068fc378daa952ba7f163c4a11628f55a4df523b3ef60405160405180910390a4809150509392505050565b6000600760009054906101000a900473ffffffffffffffffffffffffffffffffffffffff16905081600760006101000a81548173ffffffffffffffffffffffffffffffffffffffff021916908373ffffffffffffffffffffffffffffffffffffffff1602179055508173ffffffffffffffffffffffffffffffffffffffff168173ffffffffffffffffffffffffffffffffffffffff167f8be0079c531659141344cd1fd0a4f28419497f9722a3daafe3b4186f6b6457e060405160405180910390a35050565b600073ffffffffffffffffffffffffffffffffffffffff168273ffffffffffffffffffffffffffffffffffffffff160361111757816040517f5b08ba1800000000000000000000000000000000000000000000000000000000815260040161110e9190611e64565b60405180910390fd5b80600560008573ffffffffffffffffffffffffffffffffffffffff1673ffffffffffffffffffffffffffffffffffffffff16815260200190815260200160002060008473ffffffffffffffffffffffffffffffffffffffff1673ffffffffffffffffffffffffffffffffffffffff16815260200190815260200160002060006101000a81548160ff0219169083151502179055508173ffffffffffffffffffffffffffffffffffffffff168373ffffffffffffffffffffffffffffffffffffffff167f17307eab39ab6107e8899845ad3d59bd9653f200f220920489ca2b5937696c31836040516112089190611b0c565b60405180910390a3505050565b60008373ffffffffffffffffffffffffffffffffffffffff163b11156113bf578273ffffffffffffffffffffffffffffffffffffffff1663150b7a02868685856040518563ffffffff1660e01b81526004016112749493929190612550565b6020604051808303816000875af19250505080156112b057506040513d601f19601f820116820180604052508101906112ad91906125b1565b60015b611334573d80600081146112e0576040519150601f19603f3d011682016040523d82523d6000602084013e6112e5565b606091505b50600081510361132c57836040517f64a0ae920000000000000000000000000000000000000000000000000000000081526004016113239190611e64565b60405180910390fd5b805181602001fd5b63150b7a0260e01b7bffffffffffffffffffffffffffffffffffffffffffffffffffffffff1916817bffffffffffffffffffffffffffffffffffffffffffffffffffffffff1916146113bd57836040517f64a0ae920000000000000000000000000000000000000000000000000000000081526004016113b49190611e64565b60405180910390fd5b505b5050505050565b606060405180602001604052806000815250905090565b60606113e882610ce7565b5060006113f36113c6565b90506000815111611413576040518060200160405280600081525061143e565b8061141d84611776565b60405160200161142e929190612259565b6040516020818303038152906040525b915050919050565b60007f01ffc9a7000000000000000000000000000000000000000000000000000000007bffffffffffffffffffffffffffffffffffffffffffffffffffffffff1916827bffffffffffffffffffffffffffffffffffffffffffffffffffffffff1916149050919050565b60006002600083815260200190815260200160002060009054906101000a900473ffffffffffffffffffffffffffffffffffffffff169050919050565b80806115265750600073ffffffffffffffffffffffffffffffffffffffff168273ffffffffffffffffffffffffffffffffffffffff1614155b1561165a57600061153684610ce7565b9050600073ffffffffffffffffffffffffffffffffffffffff168373ffffffffffffffffffffffffffffffffffffffff16141580156115a157508273ffffffffffffffffffffffffffffffffffffffff168173ffffffffffffffffffffffffffffffffffffffff1614155b80156115b457506115b2818461090f565b155b156115f657826040517fa9fbf51f0000000000000000000000000000000000000000000000000000000081526004016115ed9190611e64565b60405180910390fd5b811561165857838573ffffffffffffffffffffffffffffffffffffffff168273ffffffffffffffffffffffffffffffffffffffff167f8c5be1e5ebec7d5bd14f71427d1e84f3dd0314c0f7b2291e5b200ac8c7c3b92560405160405180910390a45b505b836004600085815260200190815260200160002060006101000a81548173ffffffffffffffffffffffffffffffffffffffff021916908373ffffffffffffffffffffffffffffffffffffffff16021790555050505050565b6116bd838383611844565b61177157600073ffffffffffffffffffffffffffffffffffffffff168373ffffffffffffffffffffffffffffffffffffffff160361173257806040517f7e2732890000000000000000000000000000000000000000000000000000000081526004016117299190611de1565b60405180910390fd5b81816040517f177e802f0000000000000000000000000000000000000000000000000000000081526004016117689291906125de565b60405180910390fd5b505050565b60606000600161178584611905565b01905060008167ffffffffffffffff8111156117a4576117a3611c41565b5b6040519080825280601f01601f1916602001820160405280156117d65781602001600182028036833780820191505090505b509050600082602001820190505b600115611839578080600190039150507f3031323334353637383961626364656600000000000000000000000000000000600a86061a8153600a858161182d5761182c612607565b5b049450600085036117e4575b819350505050919050565b60008073ffffffffffffffffffffffffffffffffffffffff168373ffffffffffffffffffffffffffffffffffffffff16141580156118fc57508273ffffffffffffffffffffffffffffffffffffffff168473ffffffffffffffffffffffffffffffffffffffff1614806118bd57506118bc848461090f565b5b806118fb57508273ffffffffffffffffffffffffffffffffffffffff166118e383610d6f565b73ffffffffffffffffffffffffffffffffffffffff16145b5b90509392505050565b600080600090507a184f03e93ff9f4daa797ed6e38ed64bf6a1f0100000000000000008310611963577a184f03e93ff9f4daa797ed6e38ed64bf6a1f010000000000000000838161195957611958612607565b5b0492506040810190505b6d04ee2d6d415b85acef810000000083106119a0576d04ee2d6d415b85acef8100000000838161199657611995612607565b5b0492506020810190505b662386f26fc1000083106119cf57662386f26fc1000083816119c5576119c4612607565b5b0492506010810190505b6305f5e10083106119f8576305f5e10083816119ee576119ed612607565b5b0492506008810190505b6127108310611a1d576127108381611a1357611a12612607565b5b0492506004810190505b60648310611a405760648381611a3657611a35612607565b5b0492506002810190505b600a8310611a4f576001810190505b80915050919050565b6000604051905090565b600080fd5b600080fd5b60007fffffffff0000000000000000000000000000000000000000000000000000000082169050919050565b611aa181611a6c565b8114611aac57600080fd5b50565b600081359050611abe81611a98565b92915050565b600060208284031215611ada57611ad9611a62565b5b6000611ae884828501611aaf565b91505092915050565b60008115159050919050565b611b0681611af1565b82525050565b6000602082019050611b216000830184611afd565b92915050565b600081519050919050565b600082825260208201905092915050565b60005b83811015611b61578082015181840152602081019050611b46565b60008484015250505050565b6000601f19601f8301169050919050565b6000611b8982611b27565b611b938185611b32565b9350611ba3818560208601611b43565b611bac81611b6d565b840191505092915050565b60006020820190508181036000830152611bd18184611b7e565b905092915050565b600073ffffffffffffffffffffffffffffffffffffffff82169050919050565b6000611c0482611bd9565b9050919050565b611c1481611bf9565b8114611c1f57600080fd5b50565b600081359050611c3181611c0b565b92915050565b600080fd5b600080fd5b7f4e487b7100000000000000000000000000000000000000000000000000000000600052604160045260246000fd5b611c7982611b6d565b810181811067ffffffffffffffff82111715611c9857611c97611c41565b5b80604052505050565b6000611cab611a58565b9050611cb78282611c70565b919050565b600067ffffffffffffffff821115611cd757611cd6611c41565b5b611ce082611b6d565b9050602081019050919050565b82818337600083830152505050565b6000611d0f611d0a84611cbc565b611ca1565b905082815260208101848484011115611d2b57611d2a611c3c565b5b611d36848285611ced565b509392505050565b600082601f830112611d5357611d52611c37565b5b8135611d63848260208601611cfc565b91505092915050565b60008060408385031215611d8357611d82611a62565b5b6000611d9185828601611c22565b925050602083013567ffffffffffffffff811115611db257611db1611a67565b5b611dbe85828601611d3e565b9150509250929050565b6000819050919050565b611ddb81611dc8565b82525050565b6000602082019050611df66000830184611dd2565b92915050565b611e0581611dc8565b8114611e1057600080fd5b50565b600081359050611e2281611dfc565b92915050565b600060208284031215611e3e57611e3d611a62565b5b6000611e4c84828501611e13565b91505092915050565b611e5e81611bf9565b82525050565b6000602082019050611e796000830184611e55565b92915050565b60008060408385031215611e9657611e95611a62565b5b6000611ea485828601611c22565b9250506020611eb585828601611e13565b9150509250929050565b600080600060608486031215611ed857611ed7611a62565b5b6000611ee686828701611c22565b9350506020611ef786828701611c22565b9250506040611f0886828701611e13565b9150509250925092565b600060208284031215611f2857611f27611a62565b5b6000611f3684828501611c22565b91505092915050565b611f4881611af1565b8114611f5357600080fd5b50565b600081359050611f6581611f3f565b92915050565b60008060408385031215611f8257611f81611a62565b5b6000611f9085828601611c22565b9250506020611fa185828601611f56565b9150509250929050565b600067ffffffffffffffff821115611fc657611fc5611c41565b5b611fcf82611b6d565b9050602081019050919050565b6000611fef611fea84611fab565b611ca1565b90508281526020810184848401111561200b5761200a611c3c565b5b612016848285611ced565b509392505050565b600082601f83011261203357612032611c37565b5b8135612043848260208601611fdc565b91505092915050565b6000806000806080858703121561206657612065611a62565b5b600061207487828801611c22565b945050602061208587828801611c22565b935050604061209687828801611e13565b925050606085013567ffffffffffffffff8111156120b7576120b6611a67565b5b6120c38782880161201e565b91505092959194509250565b600080604083850312156120e6576120e5611a62565b5b60006120f485828601611c22565b925050602061210585828601611c22565b9150509250929050565b7f4e487b7100000000000000000000000000000000000000000000000000000000600052602260045260246000fd5b6000600282049050600182168061215657607f821691505b6020821081036121695761216861210f565b5b50919050565b7f4e487b7100000000000000000000000000000000000000000000000000000000600052601160045260246000fd5b60006121a982611dc8565b91507fffffffffffffffffffffffffffffffffffffffffffffffffffffffffffffffff82036121db576121da61216f565b5b600182019050919050565b60006060820190506121fb6000830186611e55565b6122086020830185611dd2565b6122156040830184611e55565b949350505050565b600081905092915050565b600061223382611b27565b61223d818561221d565b935061224d818560208601611b43565b80840191505092915050565b60006122658285612228565b91506122718284612228565b91508190509392505050565b60008190508160005260206000209050919050565b60006020601f8301049050919050565b600082821b905092915050565b6000600883026122df7fffffffffffffffffffffffffffffffffffffffffffffffffffffffffffffffff826122a2565b6122e986836122a2565b95508019841693508086168417925050509392505050565b6000819050919050565b600061232661232161231c84611dc8565b612301565b611dc8565b9050919050565b6000819050919050565b6123408361230b565b61235461234c8261232d565b8484546122af565b825550505050565b600090565b61236961235c565b612374818484612337565b505050565b5b818110156123985761238d600082612361565b60018101905061237a565b5050565b601f8211156123dd576123ae8161227d565b6123b784612292565b810160208510156123c6578190505b6123da6123d285612292565b830182612379565b50505b505050565b600082821c905092915050565b6000612400600019846008026123e2565b1980831691505092915050565b600061241983836123ef565b9150826002028217905092915050565b61243282611b27565b67ffffffffffffffff81111561244b5761244a611c41565b5b612455825461213e565b61246082828561239c565b600060209050601f8311600181146124935760008415612481578287015190505b61248b858261240d565b8655506124f3565b601f1984166124a18661227d565b60005b828110156124c9578489015182556001820191506020850194506020810190506124a4565b868310156124e657848901516124e2601f8916826123ef565b8355505b6001600288020188555050505b505050505050565b600081519050919050565b600082825260208201905092915050565b6000612522826124fb565b61252c8185612506565b935061253c818560208601611b43565b61254581611b6d565b840191505092915050565b60006080820190506125656000830187611e55565b6125726020830186611e55565b61257f6040830185611dd2565b81810360608301526125918184612517565b905095945050505050565b6000815190506125ab81611a98565b92915050565b6000602082840312156125c7576125c6611a62565b5b60006125d58482850161259c565b91505092915050565b60006040820190506125f36000830185611e55565b6126006020830184611dd2565b9392505050565b7f4e487b7100000000000000000000000000000000000000000000000000000000600052601260045260246000fdfea2646970667358221220a890ca6e1f82daa8f99ad325da5d2f41a176af213457695bf06e787f4374e11064736f6c63430008140033",
  "linkReferences": {},
  "deployedLinkReferences": {}
}